:020000040800F2
:10000000E0150020659F0008219400082394000853
:100010002594000827940008299400080000000097
:100020000000000000000000000000002B94000809
:100030002D940008000000002F940008319400085F
:10004000E79F0008EB9F0008EF9F0008F39F000860
:10005000F79F0008FB9F0008FF9F000803A000080F
:1000600007A000083D940008479400080BA0000872
:100070000FA0000813A0000817A000081BA000088C
:100080001FA0000823A0000827A000082BA000083C
:10009000519400082FA0000833A000085B940008CA
:1000A00037A000083BA000083FA0000843A00008BC
:1000B00047A000084BA000084FA0000853A000086C
:1000C00057A000085BA000085FA0000863A000081C
:1000D00067A000086BA000086FA0000873A00008CC
:1000E00077A000087BA000087FA0000883A000087C
:1000F00087A000088BA000088FA0000893A000082C
:1001000097A000089BA000089FA00008A3A00008DB
:10011000A7A0000865940008ABA00008AFA00008E5
:10012000B3A00008B7A00008BBA00008BFA000084B
:100130002DE9F84F74A7A2B0D7E90045CDE90045F5
:100140002C9EDFF8307C04918DF843605FF0000155
:100150006FA40D9112944FF0FF3682469046994657
:100160000FE0C3462C461BF8011B0498D04700281B
:10017000049000F0B2800D98401C641E0D90F2D1E6
:10018000A84498F80000252807D10021079108917C
:1001900009910A910B910C910DE06A463146404657
:1001A00001F01CF8050001D10D98B5E0D9D5012565
:1001B000E6E741F0010118F8010F2028F9D02328C3
:1001C0000CD02B2804D02D2805D0302809D086E06B
:1001D00041F00201EFE741F00401ECE741F00801D2
:1001E000E9E741F01001E6E700200F900AE00F98E0
:1001F000B84205DA00EB800302EB4302303A0F927B
:1002000008F1010898F80020A2F130000A28EED386
:1002100098F800002E2818BF0E9629D118F8010F63
:100220002A280BD1D9F80000C9F8000008F101080C
:1002300050F8042BC9F800000E9219E02D280CBFCD
:1002400018F8010B002000220E920BE040B90E9A24
:10025000BA4205DA02EB820403EB4403303B0E930F
:1002600008F1010898F80030A3F130020A2AEDD312
:10027000ADF84010129898F8001000F0B9FF08B1DE
:1002800018F8010B8DF842009DF84200682804BF61
:1002900098F80010682903D162208DF8420008E028
:1002A0006C2804BF98F800006C2804D171218DF8E7
:1002B000421008F1010813A806904A4618F8013BBD
:1002C00002A9504600F068F838B913AA02A95046AE
:1002D00000F0CAF900287FF554AF30461CE02A2808
:1002E00082D1D9F80020C9F8002052F8040BC9F8CF
:1002F000002000280F9003D540420F9041F00401E8
:1003000008F1010884E70000000000000000000080
:10031000686A6C747A4C000023B0BDE8F08F6228E4
:1003200020D0682811D06A2803D06C2827D07128E3
:1003300025D10868C01D20F007000860D0E900231F
:1003400008300860194610467047002A0A680A609B
:10035000106803D0121D0A6000B217E0121D0A6077
:1003600080B217E0002A0A680A60106803D0121DE4
:100370000A6040B20AE0121D0A60C0B20AE0002A18
:100380000A680A60106803D0121D0A60C11770471E
:10039000121D0A60002170477CB50D4611461C46AF
:1003A0002E69B4F1250200F04D811C3A00F08680E0
:1003B000121F022A40F282800E3A00F00781521F7B
:1003C0005AD0093A7AD0921E16D0521E35D0521EFB
:1003D000022A73D9121F30D0521F00F09A80521E89
:1003E0004AD0521E00F0E480D21E00F0FD80921E22
:1003F00042D0D21E40D02BE195F83A206C2A09D089
:100400006869421C6A610A680A6052F8043B0A6023
:10041000335427E10A680A6052F8043B0A6000215D
:10042000009301914FF0FF322A6329466A4600F09B
:1004300096F9002840F1168101E195F83A00012271
:10044000FFF76DFFC5E900010023994204DA6869EE
:10045000411C69612D210DE0288F810704D5686951
:10046000411C69612B2105E0C00722D56869411C48
:100470006961202131541CE095F83A000022FFF711
:100480004EFFC5E9000195F83800010711D5D5E9FF
:1004900000230020834208BF82420AD044F020009B
:1004A000782806D1686930213154401C411C6961AB
:1004B0003454214668693044E86083E00868C01D10
:1004C00020F007000860D0E9002308300860C5E983
:1004D0000023D5E90001C80F04D06869411C696197
:1004E0002D210DE0288F810704D56869411C6961C1
:1004F0002B2105E0C00704D56869411C69612021F2
:10050000315468693044E8602146284600F032FAE8
:10051000A8E005F13A02507820B14FF0FF340FF611
:10052000243070E01078622808D0682824D06A2827
:1005300012D06C282ED071280ED02BE00A680A60E9
:1005400052F8040B0A6020B94FF0FF340FF60C305C
:1005500059E0E96A017085E00A680A6052F8040B04
:100560000A6020B94FF0FF340FF6F0204BE0EA6A42
:10057000D317C0E9002375E00A680A6052F8040B3B
:100580000A6020B94FF0FF340FF6D0203BE0E96A53
:10059000018067E00A680A6052F8040B0A6020B91B
:1005A0004FF0FF340FF6B4202DE0E96A016059E006
:1005B0000A680A6052F8040B0A600021C5E90001CC
:1005C000EE607821284600F029F94BE06C2285F88E
:1005D0003A200B680B6053F8042B0B6052BB4FF0B2
:1005E000FF340FF6AC200EE095F83A206C2AF0D0DC
:1005F0000868086050F8044B0860EC603CB94FF0A4
:10060000FF340FF6702000F00DFE201A76BD2E6B21
:10061000002E04D5204600F025FE044608E03246B0
:100620000021204600F046FE002814BF041B34467B
:10063000AC6117E0294600F092F8002812D54FF07F
:10064000FF3076BD6869411C69612521315409E09C
:100650006969481C686125227254210002D0411C3E
:1006600069613454002076BD2DE9F0410E460546FF
:10067000716B7069B46A091A306A091AB069091A8B
:10068000706A091AF069091A96F838000C1B4107BC
:1006900090460DD4002C0BDD2746B0682021A847DA
:1006A0000028B06057D0F06A401C7F1EF062F4D181
:1006B000736942463146284600F0ACFC00284AD116
:1006C000376A002F0ADDB0683021A8470028B060E3
:1006D00041D0F06A401C7F1EF062F4D1B369F26829
:1006E0003146284600F096FCA8BB776A002F09DD4A
:1006F000B0683021A847B06068B3F06A401C7F1E24
:10070000F062F5D1F068B169F369421831462846C4
:1007100000F080FCF8B9B76A002F09DDB06830211D
:10072000A847B060B8B1F06A401C7F1EF062F5D1F6
:1007300096F8380041070BD5002C09DDB068202160
:10074000A847B06038B1F06A401C641EF062F5D171
:100750000020BDE8F0814FF0FF30BDE8F0812DE9C9
:10076000F8470D46A3B02F6B002F8146904648BF37
:100770006FF0004700F0CAFD696B40180FF62C11AE
:100780008128D1E90023CDE9012328BF4FF0FF30B4
:100790003ED20024002F2FDDD8F8001001AA6846B1
:1007A00000F01EFD0646002E35D4D8F8000008B92A
:1007B000761E30D4B7421FDB6869301881280AD30F
:1007C0000020686303AA29464846FFF74DFF04004E
:1007D00012D40020686103A8D5F814A032466946F7
:1007E000504400F099FDB244C5F814A058F8040B29
:1007F000002818BFBF1BCDD12CB903AA29464846F3
:10080000FFF732FF044614B9002068616863204690
:1008100024B0BDE8F0874FF0FF34F8E72DE9FC473E
:1008200007468A463E69BAF16F0F08BF082405D013
:100830004AF02001782914BF0A2410243C25D7E966
:100840000023BAF1640F18BFBAF1690F90469946B8
:1008500006D100218B4203DAD8F1000869EB49097F
:100860000020814508BF80451FD1386BE8B9082CAE
:100870004CD197F83800010748D530203B2586F841
:100880003B0043E000280ED597F8380000F0140034
:10089000102808D17A6B7869121A386A121A511A1C
:1008A0000029C8BF3962BDE8F3878DF800A0404633
:1008B00049462246E31700F083FD3032D0B26D1E68
:1008C0003A28019504DB9DF80000A0F151018A1837
:1008D0007255404649462246E31700F071FD8046B6
:1008E00089460020814508BF804503D0F86871190A
:1008F0008842DCD3082C09D197F83800010705D5C8
:10090000715D302902D06D1E30207055C5F13C015B
:10091000B9617019F860386B8142B3DA411A3962F3
:100920004FF6EF70398F01403987BDE8F3872DE925
:10093000D04306460F4614464FF00008DFF83894BF
:1009400012E0E00707D542464B463046394600F0F4
:100950004FFE06460F464046494642464B4600F08B
:1009600047FE641080468946002CEAD1304639465D
:10097000BDE8D0832DE9F34F054641F020048DB04A
:10098000D5E90089612C02AE09D0286B002848BF48
:10099000062003D408BF672C01D101202863D5E9C4
:1009A000002358004015401C0ED119030CD0032021
:1009B000A8619DF8380061381A2802D20FF2F4615C
:1009C00011E00FF2F4610EE058004015401C0FD109
:1009D00019030DD10320A8619DF8380061381A2849
:1009E00014D30FF2DC61E868032200F095FCD3E138
:1009F000194621F00043B3F5801F10460DD20027A1
:100A0000BB4208BFBA42019703D111E00FF2AC61BB
:100A1000E9E701AA00F0BEFE0AE0DFF8607307EB29
:100A20001352DFF85C3301921940DFF85833194351
:100A3000C5E90001612C0ED1E86830210170811CEC
:100A4000E9609DF8381061290CBF78215821417068
:100A50006869801C6861D5E900AB2BF00043002079
:100A60002AF00002834204BF8242002300F05A8130
:100A7000612C40F0A980286B00284CBF2120401C2D
:100A800000904046009F7F1C49460022002300F052
:100A9000B9FED94601988DF8082038BF89F0004981
:100AA000001F0190002FD0460DF1090040F349814D
:100AB00040F2FF71DFF8D0B20C910646404649463D
:100AC0000022002300F0B6FE80F03A814800400D7D
:100AD00000F11C0210D0002A0EDD0C98824205DBCA
:100AE00009F0004040EA0B01002013E0A448084050
:100AF00040EA025140460DE029F00043002028F072
:100B00000002834208BF82420FBF40461C2240467B
:100B100000F0A8FE8046894600F042FFFF1F002F2C
:100B2000044609DD00F05AFF02460B46404649469E
:100B300000F066FF80468946F01D072104E004F0BE
:100B40000F0200F8012D2411002C01DD491EF6D5FD
:100B5000491E5CBF002200F8012DF9D5ECE0002011
:100B6000194602AA0A4400E05B1E12F80149491E18
:100B70008442F9D00F2804D10DF10900425C521CC7
:100B80004254002904D50198001D02AE5B1C01905F
:100B9000591E12D49DF838007218147804F13008E8
:100BA0005FFA88F4392CC4BFA0F13A04A044491E6E
:100BB00002F80189F1D58DF83800286B002840F142
:100BC000B080591E2963ACE040464946002200230C
:100BD00000F018FE019938BF89F0004947F297509C
:100BE00041436A4A91FBF2F20192D2F1070204DD1D
:100BF00040464946FFF79BFE0AE052420020644906
:100C0000FFF795FE02460B464046494600F06AFF54
:100C10008046662C286BDFF87CB106BF019F0A373F
:100C200006273F18142FC8BF142730208DF808005E
:100C300089460DF1090000E03046002F34DD0646FC
:100C40004046494601F072F801460A4606F108039B
:100C500004200A26B2FBF6F606EB860EA2EB4E0245
:100C6000303203F8012C0A22B6FBF2F202EB820EBC
:100C7000A6EB4E063036401E03F8026DE9D1083F60
:100C8000002F03F10806D7DD084601F063F802469D
:100C90000B464046494600F0B3FE00225B4600F09A
:100CA000A7FC80468946CBE70DF10901401A0DF1FA
:100CB000090604E00199491E401E0191761C317815
:100CC0003029F7D0662C02D10199491C03E0652C2C
:100CD0000CBF012100212B6BCB189842B8BF431EDB
:100CE000002B1ED4834204DAF05C3528A8BF3920DB
:100CF00000DA30201946721E02EB010800E05B1E8C
:100D000018F80199491E8145F9D0392802D1705C43
:100D1000401C7054002904D50198401C16465B1CE9
:100D20000190019800B200901BB29DF83810324635
:100D3000284600F035F82FE0C61D002F3FF7BEAE65
:100D400030460DF10901401A009903468842C8BF98
:100D50000B46002B0DF109063FF52FAF8342BFF67E
:100D6000FEAE0DF10900C05C07287FF7F8AE0F203A
:100D7000F6E60000CBCCCC0C0000244002FCFFFFC8
:100D8000FFFF0F800000E03F0000F07FA086010021
:100D90000000F03F84D797410FB0BDE8F08F00000E
:100DA0002DE9F84783B006468A461746984600F074
:100DB00019FAB8F1000F406A356B90F8009002DC28
:100DC0004FF00108BFA7BDF930404AF02000662867
:100DD00008BF641C15D0672840F0848014F1040F0C
:100DE000C0F28680AC4280F2838096F83800641CA2
:100DF000010702D4A845B8BF454620B22D1A48BF06
:100E000000250FFA84FAF068B169BAF1000F25DC09
:100E10004A1C30234354002D03DC96F838000107A8
:100E200003D5F06800F80290521C15EB0A0FB8BF0A
:100E30006C4220B2441941424445B8BFA046B26159
:100E400071620FFA88F5F561F068B3692A46394690
:100E5000184400F061FA641BB462C4E022B2904509
:100E6000084417DA4246394600F056FAB069404461
:100E7000B061AAEB0801002D716203DC96F838100E
:100E80000A0705D5F16801F80090F069401CF0618F
:100E9000B562A8E0394600F03FFAB069002D504431
:100EA000A8EB040803DC96F838100A0703D5F168AC
:100EB00001F80090401CB0610FFA88F08542F0689C
:100EC000B369B8BFA8460FFA88F207EB0A011844C5
:100ED00000F022FAB0690FFA88F10844B061681A8C
:100EE000706280E0BAF1610F14D14FF0700A16E021
:100EF000A84504DA96F838100A0758BF45466D1E13
:100F000048BF0025BAF1670F14BF4FF0450A4FF0F4
:100F1000650A04E0BAF1410F08BF4FF0500AB16909
:100F2000F368481CB061002D17F8012B5A5403DCFC
:100F300096F838100A071BD5F168431CB36101F815
:100F40000090002D14DDA8F101080FFA88F0854209
:100F5000F068B8BFA8460FFA88F23946184400F086
:100F6000DBF9B0690FFA88F108446D1AB061756257
:100F7000F068B1690844002C80F800A003D42B214C
:100F80004170811C03E02D2141706442811C0020CE
:100F90006A460AE023460A2493FBF4F404EB840532
:100FA000A3EB450302F8013B401C24B2002CF1DC0A
:100FB000012806DC4AF02002652A04BF302201F82D
:100FC000012B48B9302001F8010B07E0401E1DF845
:100FD0000020303201F8012B0028F7DCF068B269FC
:100FE0001044091AF16196F8380000F01400102836
:100FF0000DD17169B0694118706A4118F0694118E2
:10100000B06A4118706B8142BCBF411A316204B0B2
:10101000BDE8F087F8B505460E4617461C46002089
:1010200074B117F8011BB068A847B06030B1F06A1E
:10103000401CF0620020641EF3D1F2BD4FF0FF307F
:10104000F2BD00007072696E74665F733A20256E9F
:1010500020646973616C6C6F776564007072696E8F
:1010600074663A2062616420256E20617267756D36
:10107000656E74007072696E74665F733A206261A7
:101080006420257320617267756D656E74000000C1
:101090007072696E74665F733A2062616420256CB9
:1010A0007320617267756D656E740000000000004A
:1010B000000000006E616E004E414E00696E6600D9
:1010C000494E46003000F0B4024610689568131887
:1010D000506803EB5004C00721D54D441FE0F0BC1D
:1010E00002F10C00704713F8017B05F8017B491EE3
:1010F000F9D1A0B1B60813F8011B06F00306032EC0
:1011000008BF13F8016B01EB06214942801C2944FA
:1011100005D011F8016B05F8016B401EF9D1A3420F
:10112000DDD013F8016B16F0030104BF13F8011BA7
:10113000C91C30090F28DAD113F8010B0F30D6E79C
:10114000613807E005E0A0F161011A2901D2012010
:10115000704741381A288041C00F7047A0F109013B
:10116000052901D3202801D10120704700207047B4
:10117000A0F141011A2938BF203070471A48704742
:1011800030B45368D418042B09DA41B1057804F857
:10119000015B10F8015B15B15B1C491EF3E753605E
:1011A00030BC704738B514461D4661B1FFF7E8FF03
:1011B00061686A6B204690476FF00102811A02D085
:1011C000491E03D005E06FF0010032BD4FF0FF3043
:1011D00032BD0021616032BDDA6B1047024BE1E79E
:1011E000014BF9E701487047240B0020EC0A00206E
:1011F0000278C9B28A421AB11CBF10F8012FF9E770
:1012000018BF00207047B1F5807F02D34FF0FF3048
:1012100070470170012070470078401E8041C04334
:10122000C00F704780B500B906A005490B681BB117
:1012300022220021984701E000F099FD222002BD02
:10124000C4110020636F6E73747261696E742068DC
:10125000616E646C65723A20626164206D657373BF
:101260006167650000F10103810704D010F8011BDC
:1012700089B18107FAD10268B2F10131914311F0CD
:10128000803F04BF50F8042FF6E710F8011B11B19E
:1012900010F8011BFBE7C01A70478268521C82607D
:1012A000426832B10268531C036011704168491EE4
:1012B00041607047C9B2830706D0521E22D310F88E
:1012C000013B9942F7D11FE0083A13D302F104021F
:1012D00041EA012141EA014150F8043B121F21BFBC
:1012E0004B40A3F1013C2CEA030C1CF0803FF3D0EF
:1012F000C9B2001F083210F8013B521E28BF91EA04
:10130000030FF8D818BF0120401E704780B5FFF7C3
:1013100035FF006C02BD680062B38B0708D0521E17
:1013200011F8013B00F8013B00F024808B07F6D157
:10133000830740F0208000BF103A07D330B4B1E8F3
:101340003810103AA0E83810F9D230BC530724BF47
:10135000B1E80810A0E8081044BF51F8043B40F879
:10136000043BD20724BF31F8022B20F8022B44BFE4
:101370000B7803707047121F17D35B0009D151F827
:10138000043B20F8023B1B0C121F20F8023BF6D254
:101390000BE051F8043B00F8013B1B0A20F8023B2C
:1013A0001B0C121F00F8013BF3D238BF121D521E56
:1013B00024BF11F8013B00F8013BF8D87047310019
:1013C000B3BBD9B1B2F5803F7DD2022A1ED98C467B
:1013D000B1FBF2F102FB11C31B0443EA1043B3FB60
:1013E000F2FC02FB1C3380B240EA0343B3FBF2F091
:1013F00002FB103240EA0C4000237047022A05D954
:101400008446B0FBF2F002FB10C270474AB105D12E
:1014100000F0010249085FEA300070470022002313
:10142000704700F0A7BC0B000200002100207047AD
:10143000904271EB030CF6D3B3F5803F2FD2F0B599
:10144000B3FA83F7B1FA81F4A7F10F0E3D1B5340B5
:10145000CEF1200602FA0EF2F3415340B5F10F0728
:1014600046D80F3C2C444140C4F12006A040F14135
:101470004140B1FBF3F603FB1611A2FB0645001B2E
:10148000A94102D2761E8018594180EA010221FA50
:101490000EF362FA0EF200215A403046F0BD30B42D
:1014A000B1FBF3FC03FB1C11A2FB0C45001BA94183
:1014B00003D2ACF1010C8018594130BC02460B46F6
:1014C000604600217047B2F1807F65D3F0B5B2FA73
:1014D00082F7B1FA81F4C7F10F063D1B22FA06F339
:1014E00007F1110EF24120355A40B5F10F07B8D976
:1014F0004140C4F12006A040F1414140B1FBF3FC62
:1015000003FB1C11A2FB0C45001BA94103D2BCF13B
:10151000010C801859410F2F12D30F3FC90341EA24
:101520005041B1FBF3F603FB1611A2FB0645D4EBC9
:10153000C030A94102D2761E8018594146EACC3CFF
:1015400007B34140C7F12006B840F1414140B1FB2B
:10155000F3F603FB1611A2FB0645001BA94102D2BC
:10156000761E8018594180EA010221FA0EF3C7F174
:10157000200462FA0EF20CFA07F05A402CFA04F139
:101580003043F0BD80EA010221FA0EF3002162FA35
:101590000EF260465A40F0BD8C46B1FBF2F102FB00
:1015A00011C31B0243EA1063B3FBF2FC02FB1C33C2
:1015B0001B024CEA002043EA1063B3FBF2FC02FB7F
:1015C0001C331B024CEA002043EA1063B3FBF2FC1D
:1015D00002FB1C331B024CEA002043EA1063B3FBFE
:1015E000F2FC02FB1C324CEA0020002370476C0026
:1015F000B0B581EA030C0CF0004C40F2FF7515EA1F
:1016000011541DBF15EA1357AC42AF4239E0E4193B
:1016100023EA455343F48013C90241F0004141EAF3
:10162000505EC7021100A7FB020200284FF0000025
:10163000EEFB01204FF00001E3FB072118BF42F051
:101640000102401800214941E3FB0E01A4F580642A
:101650000F0302D252004041494154F101046CDDB4
:10166000470872F1004250F1000051EB0451A1F51E
:1016700080115CBF41EA0C01B0BD4CEA055100206D
:10168000B0BD05EA1357AC4214BFAF4241E050EA87
:10169000410E1CBF52EA430E02E061460020B0BD7D
:1016A00024423C441BD15FEA070EF6D0090302BF77
:1016B00001460020AEF1140EB1FA81F7AEEB07043B
:1016C00001FA07FE0C37C7F1200100FA07F7C840FE
:1016D0004EEA000E23EA455343F48013A2E733F0A9
:1016E0000043B3FA83F704BFB2FA82FE77440B3F9C
:1016F000E41BB7F1200E2FBF02FA0EF3BB40C7F177
:10170000200E22FA0EFE38BF43EA0E03BA40641CD4
:1017100082E750EA410E14BF52EA430E6FF0000117
:101720004FF4001717EB430F8ABF194617EB410F11
:10173000B5E74CEA05510020B0BDD4F10104B4F185
:1017400020070FDAC4F12007520828BF42F0010237
:1017500010FA07F501FA07F7E1BF2A43E0403843E2
:10176000E1400FE0352C98DCC7F1200452EA40023A
:1017700020FA07F218BF42F0010231FA07F0A14047
:101780000A43002172F1004250F1000051EB0C01BC
:10179000B0BD010210B5144600F002F8226010BD81
:1017A000C1F30A5343B14A0012F5001F28D2A3F235
:1017B000FE32A1EB0251704750EA410C20D001F0FB
:1017C000004C31EA0C01B1FA81F204BFB0FA80F3A7
:1017D000D2180B3AB2F120032CBF00FA03F191406A
:1017E00041EA0C013EBFC2F1200C20FA0CF3194370
:1017F0009040524240F2FD33D21A01EB0351704740
:10180000002270474FF4001C1CEB410F94BF1CEBEF
:10181000430F09E041EA030C50EA4C0C52EA0C0C6D
:1018200003D2994208BF9042704714BF8B42824254
:10183000704701024FF4001C1CEB410F94BF1CEBDE
:10184000430F09E041EA030C50EA4C0C52EA0C0C3D
:1018500003D28B4208BF8242704714BF9942904224
:1018600070470000124254D440F2FF7C1CEA11532E
:101870000FD0634531D09B1863453CBF01EB02514B
:10188000704701F0004141EA0C510020AFF30080A5
:10189000704750EA410320D001F0004C91EA0C015E
:1018A0001CD0B1FA81F30B3B9A420DD9D21A994060
:1018B00051EA0C01C3F1200C20FA0CFC6144984061
:1018C000531C40F2FF7CD7E7914041EA0C01C2F182
:1018D000200C20FA0CF3194390407047B0FA80F3C3
:1018E0001533202BE0D3202AEED3203A203B9A4216
:1018F00009D9D21A00FA03F141EA0C010020531C65
:1019000040F2FF7CB8E700FA02F141EA0C01002046
:101910007047524240F2FF7C1CEA11530DD06345E0
:10192000DBD0B2EB030C3CBFA1EB025170470CF1D2
:10193000010221EA035141F4801150EA410CCCD05C
:1019400001F0004C352A27DC30B481EA0C01B2F1F9
:10195000200309DAC2F12003044601FA03F5D0405E
:101960002843D1409C400CE0C3F12002450020FAFE
:1019700003F418BF44F0010421FA03F091400C4332
:10198000002174F1004550F1000051EB0C0124429C
:1019900030BC7FF47BAF70476146002076E70000E3
:1019A000C1F30A5340F2FE329B1A14DDD3F1200337
:1019B0004FEAE17208DDC90241EA505141F00040AE
:1019C000D84080185040704703F2E13010B1D24344
:1019D00082F000407047002070470000C11768B1D6
:1019E0004840401AB0FA80F29040D21CC907C2F5B4
:1019F000846241EA025202EBD021400570470000A8
:101A000070B44FF0004591EA030F40F1BD816B4087
:101A1000841A71EB030603D2001BB1411219734102
:101A20004FF4001C1CEB410F34BF7CEB430442E03D
:101A30000C0DA4EB1356352E4FDC45EAC323DB0A0D
:101A400045EAC121C912B6F120050DDD63FA05F69C
:101A5000EB4086EA0305124218BF45F00105C018A5
:101A600051F100010CD213E062FA06F5F240554044
:101A7000F3415A40B340F3405A408018594107D3CC
:101A800049085FEA30005FEA350528BF45F00105E7
:101A900001F58011420875F1004250F1000041EB60
:101AA00004514E0016F5001F70BC38BF704700206F
:101AB000090D090570471CEB410F10D252EA43068D
:101AC0000BD0BCEB410F05D80C0DAB43661E342E7A
:101AD000B6DD02E0AB438018594170BC704770BC62
:101AE00070470000F0B540F2FF7581EA030C0CF07E
:101AF000004C15EA11541DBF15EA1357AC42AF4212
:101B0000E5E0BC41C1F31301C3F31303801A99410B
:101B100043F4801304D2641E4000494180185941A7
:101B2000C90241EA5051B1FBF3F603FB1611A2FBC7
:101B30000675D7EBC020A94102D2761E8018594104
:101B4000C90241EA5051B1FBF3FE03FB1E11A2FB97
:101B50000E75D7EBC020A94103D2AEF1010E80185B
:101B60005941890241EA9051760546EA8E2EB1FB31
:101B7000F3F603FB1611A2FB0675D7EB8020A941F3
:101B800002D2761E80185941C90241EA50514EEAEC
:101B9000060EB1FBF3F603FB1611A2FB0675D7EB9D
:101BA000C020A94102D2761E80185941C90241EADB
:101BB0005051B1FBF3F703FB1711A2FB0735D3EB31
:101BC000C020A94167F100070CBF004247F00107A0
:101BD00066F3D5274FEA1E31B80814F5806412DD8C
:101BE000BD0775F1004250EB0E5051EB045111F559
:101BF000801F5CBF41EA0C01F0BD4CF07F6141F0F9
:101C0000E0410020F0BDBD076D0840EA0E5041F4F0
:101C10008011D4F10104B4F120060ADAC4F12006DF
:101C20000200E04001FA06F3E1401843B2401543D8
:101C30000EE0342C13DCC6F1200445EA40056D08A3
:101C400020FA06F2154321FA06F0A1400D430021C7
:101C500075F1004250F1000051EB0C01F0BD002085
:101C60005FEA0C01F0BDCFB992185B41B3FA83F77C
:101C700004BFB2FA82F6BF190B3FB7F120062FBF9F
:101C800002FA06F3BB40C7F1200622FA06F638BF77
:101C90003343BA401CB1E419641E33E77F4231F08C
:101CA0000041B1FA81F404BFB0FA80F6A4190B3CEC
:101CB000B4F120062FBF00FA06F1A140C4F12006BE
:101CC00020FA06F638BF3143A0403C1B1AE7AC426D
:101CD0001ABF05EA1357AF4212E050EA41061CBF93
:101CE00052EA4306BFE750EA4107304661461CBF4F
:101CF00041EA0551F0BD52EA430C08BFC143F0BDB3
:101D000000204FF4001616EB410F98BF16EB430F5F
:101D100008BF16EB410F24BFC14305E016EB430F8C
:101D20000CBF61464CEA0551F0BD0000400D49185A
:101D300040EA81200CD2490DA1F58061491C40F098
:101D4000004005DBD1F11F0154BFC840C0177047E8
:101D500000207047014648B1B0FA80F18840C91CA4
:101D6000C1F58461090501EBD021400570470120D0
:101D700000F0BEB87047000070B44FF0004591EA23
:101D8000030F7FF545AE6B40841A71EB030604D256
:101D90006E40001BB141121973414FF4001C1CEB43
:101DA000410F34BF7CEB430682E00C0DA4EB1356CD
:101DB000362E7BDC012E45EAC32341DC43EA525335
:101DC00012BFD20292025B08240545EAC12141EA12
:101DD0005051D2EBC020994125D407D1B0FA80F6FA
:101DE00010FA06F162D00020203608E0B1FA81F640
:101DF000B140C6F1200220FA02F21143B0404FEA8E
:101E0000F474B4EB465434F001064FEA74040AD873
:101E1000D6F50016760D04F00044F04061FA06F2A3
:101E20005040F1404840C00A40EA415021F0004192
:101E300028BF5FEA500550F1000044EBD12135E0A6
:101E4000DB0A45EAC121C90AB6F120050EDD42EAE6
:101E50000242120CC5F1200603FA06F6EB4042EAF4
:101E600006056D42984161F100010DE062FA06F548
:101E7000F240554063FA06FC82EA0C02F3405A40F5
:101E80006D42904161EB030111F4801F05D1641E86
:101E9000620502D06D004041494121F480114308A0
:101EA00075F1004350F1000041EB045170BC7047E4
:101EB0001CEB410F15D223F0004352EA43060BD02E
:101EC0004FEA4C0CBCEB410F04D80C0D661E342EAF
:101ED000B7DDEBE7801A994150EA410608BF0021BF
:101EE000E4E708BF1CEB430F28BF6FF00001DDE7FC
:101EF00080B5AFF30080024A11001820ABBEFBE7AB
:101F00002600020038B504000D00DFF860090078F3
:101F1000002803D002284AD027D36AE0DFF8180A45
:101F200000F02EFFDFF8140A0078002809D1DFF84E
:101F30000C0A4078012804D1DFF8040A00F020FFE1
:101F400012E0DFF8F8090078012809D1DFF8EC0980
:101F50004078022804D1DFF8EC0900F011FF03E01B
:101F6000DFF8E40900F00CFF43E0DFF8E00900F0DF
:101F700007FFDFF8DC090078012804D1DFF8D40975
:101F800000F0FEFE12E0DFF8C8090078002804D156
:101F9000DFF81C0A00F0F4FE08E0DFF8B40900786E
:101FA000022803D1DFF80C0A00F0EAFE21E0DFF896
:101FB0009C0900F0E5FEDFF898090078012804D1BB
:101FC000DFF8900900F0DCFE12E0DFF88409007809
:101FD000002804D1DFF8D80900F0D2FE08E0DFF8CD
:101FE00070090078022803D1DFF8C80900F0C8FEA4
:101FF000FFE7DFF8EC090078002804D1DFF8E409F6
:1020000000F0BEFE03E0DFF8E00900F0B9FEDFF803
:10201000DC090078002804D1DFF83C0A00F0B0FEAB
:102020003FE0DFF8C8090078012804D1DFF82C0A66
:1020300000F0A6FE35E0DFF8B4090078022804D1EC
:10204000DFF81C0A00F09CFE2BE0DFF8A009007806
:10205000032804D1DFF80C0A00F092FE21E0DFF83B
:102060008C090078042804D1DFF8FC0900F088FE10
:1020700017E0DFF878090078052804D1DFF8EC09CB
:1020800000F07EFE0DE0DFF864090078062804D138
:10209000DFF8DC0900F074FE03E0DFF8100B00F05D
:1020A0006FFE31BD38B504000D00686800F0E0FF38
:1020B0000100DFF8C00900F063FE686800F0D8FF97
:1020C00001F004F8DFF8E81A086001F011F831BDFA
:1020D00038B504000D0001F03EF831BD38B50400FC
:1020E0000D00686800F0C4FF002804D1DFF8240A5E
:1020F00000F046FE12E0686800F0BAFF012804D143
:10210000DFF83C0A00F03CFE08E0686800F0B0FF31
:10211000022803D1DFF82C0A00F032FE686800F0D4
:10212000A7FFDFF848170870DFF84007007801F0D4
:1021300077F8DFF87C1A486000F0DAFF31BD38B577
:1021400004000D00686800F093FF002804D1DFF858
:10215000280A00F015FE03E0DFF8580A00F010FE30
:10216000686800F085FFDFF878180870DFF87008FD
:10217000007801F055F8DFF8381A886000F0B8FFF1
:1021800031BD38B504000D00686800F071FF00280B
:1021900004D1DFF8240A00F0F3FD3FE0686800F0A6
:1021A00067FF012804D1DFF8140A00F0E9FD35E0EB
:1021B000686800F05DFF022804D1DFF8040A00F02F
:1021C000DFFD2BE0686800F053FF032804D1DFF83F
:1021D000F40900F0D5FD21E0686800F049FF04280B
:1021E00004D1DFF8E40900F0CBFD17E0686800F0E7
:1021F0003FFF052804D1DFF8D40900F0C1FD0DE050
:10220000686800F035FF062804D1DFF8C40900F043
:10221000B7FD03E0DFF8BC0900F0B2FD686800F02C
:1022200027FFDFF8C8170870DFF8C007007800F054
:10223000F7FFDFF87C19C86000F05AFF31BD38B5F0
:1022400004000D00686801F02FFA02000B00DFF8AF
:10225000880900F095FD686801F026FA01F04CFA53
:1022600001F07EFA31BD38B504000D00686801F058
:102270001BFA02000B00DFF8640900F081FD6868BA
:1022800001F012FA01F038FADFF85419086031BD94
:1022900038B504000D00686801F006FA02000B0072
:1022A000DFF8400900F06CFD686801F0FDF901F00D
:1022B00023FADFF83419086031BD38B504000D0089
:1022C000686801F0F1F902000B00DFF8200900F066
:1022D00057FD686801F0E8F901F00EFADFF810190F
:1022E000086031BD2DE9F84384B081468846D8F8AE
:1022F0000C0001F0D9F906000F00D8F8080001F031
:10230000D3F904000D00D8F8040001F0CDF9CDE9AF
:102310000267CDE9004502000B00DFF8D80800F0A5
:102320002FFDD8F8040001F0BFF901F0E5F9DFF85E
:10233000C8180860D8F8080001F0B6F901F0DCF917
:10234000DFF8B4188860D8F80C0001F0ADF901F09E
:10235000D3F9DFF8A4184860DFF89C080068DFF8BC
:1023600050180861DFF890088068DFF84418486169
:10237000DFF884084068DFF83818886100F0B8FE9C
:1023800005B0BDE8F0832DE9F84384B08146884666
:10239000D8F80C0001F088F906000F00D8F8080002
:1023A00001F082F904000D00D8F8040001F07CF976
:1023B000CDE90267CDE9004502000B00DFF83C08DB
:1023C00000F0DEFCD8F8040001F06EF901F094F999
:1023D000DFF82C180860D8F8080001F065F901F062
:1023E0008BF9DFF81C188860D8F80C0001F05CF954
:1023F00001F082F9DFF808184860DFF80408006887
:10240000DFF8AC17C861DFF8F8078068DFF8A017BD
:102410000862DFF8EC074068DFF89417486200F0C4
:1024200067FE05B0BDE8F0832DE9F84384B081462E
:102430008846D8F80C0001F037F906000F00D8F8EC
:10244000080001F031F904000D00D8F8040001F093
:102450002BF9CDE90267CDE9004502000B00DFF85A
:10246000A40700F08DFCD8F8040001F01DF901F07C
:1024700043F9DFF894170860D8F8080001F014F960
:1024800001F03AF9DFF880178860D8F80C0001F005
:102490000BF901F031F9DFF870174860DFF86807D1
:1024A0000068DFF80C178862DFF85C078068DFF8E7
:1024B0000017C862DFF850074068DFF8F4160863B9
:1024C00000F016FE05B0BDE8F08338B504000D003D
:1024D000686800F0CDFDDFF83417086031BD38B50D
:1024E00004000D00DFF884030078002803D00228E0
:1024F0004AD027D36AE0DFF8400400F041FCDFF85F
:102500003C040078002809D1DFF830044078012825
:1025100004D1DFF82C0400F033FC12E0DFF81C04D7
:102520000078012809D1DFF814044078022804D18A
:10253000DFF8100400F024FC03E0DFF80C0400F0E6
:102540001FFC43E0DFF8040400F01AFCDFF800048D
:102550000078012804D1DFF8FC0300F011FC12E040
:10256000DFF8EC030078002804D1DFF8440400F021
:1025700007FC08E0DFF8D8030078022803D1DFF871
:10258000340400F0FDFB21E0DFF8840600F0F8FBE6
:10259000DFF8BC030078012804D1DFF8B80300F0AD
:1025A000EFFB12E0DFF8A8030078002804D1DFF881
:1025B000000400F0E5FB08E0DFF89403007802284F
:1025C00003D1DFF8F00300F0DBFBFFE7DFF81004D6
:1025D0000078002804D1DFF80C0400F0D1FB03E000
:1025E000DFF8040400F0CCFBDFF8000400780028DA
:1025F00004D1DFF8640400F0C3FB3FE0DFF8EC0334
:102600000078012804D1DFF8540400F0B9FB35E06C
:10261000DFF8D8030078022804D1DFF8440400F082
:10262000AFFB2BE0DFF8C4030078032804D1DFF808
:10263000340400F0A5FB21E0DFF8B00300780428A3
:1026400004D1DFF8240400F09BFB17E0DFF89C03C3
:102650000078052804D1DFF8140400F091FB0DE0A8
:10266000DFF888030078062804D1DFF8040400F0BE
:1026700087FB03E0DFF8340500F082FBDFF830056C
:10268000006801F029F902000B00DFF8880500F06E
:1026900077FB76480178DFF8800500F071FBD348BE
:1026A0000178DFF8780500F06BFBCD480178DFF8A2
:1026B000700500F065FBDFF82805006801F00CF9F3
:1026C00002000B00DFF85C0500F05AFBDFF858054C
:1026D000006801F001F902000B00DFF8500500F07E
:1026E0004FFBDFF80405006801F0F6F802000B006C
:1026F000DFF83C0500F044FBDFF83805006801F026
:10270000EBF802000B00DFF8300500F039FBDFF8D2
:10271000E004006801F0E0F802000B00DFF81C059F
:1027200000F02EFBDFF81805006801F0D5F8020074
:102730000B00DFF8100500F023FBDFF80C05016843
:10274000DFF8080500F01CFBDFF804050168DFF87E
:10275000040500F015FBDFF800050168DFF8FC0454
:1027600000F00EFBDFF8F8040168DFF8F80400F071
:1027700007FBDFF8F404006801F0AEF802000B007C
:10278000DFF8E80400F0FCFA31BDF8B504000D00F4
:1027900000270A2F11D26968DFF8D40450F83700F7
:1027A00001F078F9002806D0DFF8C40400EBC70078
:1027B0004068060001E07F1CEBE788A1A86801F0F3
:1027C00069F900280AD0E86800F052FC30703278CD
:1027D0006968DFF8A00400F0D3FA27E09BA1A8689D
:1027E00001F058F900280BD0E86800F041FC308077
:1027F000B6F900206968DFF87C0400F0C1FA15E042
:1028000093A1A86801F046F900280FD0E86800F00D
:102810004BFF00F071FF3060306801F05DF802009E
:102820000B006968DFF8500400F0AAFAF1BDF8B5B2
:1028300004000D000821DFF8440401F06BFA0600E3
:102840001021DFF8380401F065FA07002021DFF8D5
:102850002C0401F05FFAF6B23300FFB23A00C0B2C6
:102860000100DFF81C0400F08BFAF1BD710B0020B1
:10287000F8B504000D000027E86800F0F9FB060039
:1028800074A1A86801F006F900282BD068680078C8
:10289000612804D021D3632815D00AD31DE032204B
:1028A00000FB06F000F012FC0100002001F01BFB11
:1028B0003AE0322000FB06F000F008FC01000120A5
:1028C00001F011FB30E0322000FB06F000F0FEFBCF
:1028D0000100022001F007FB26E0DFF8A80300F06A
:1028E0004FFA27E068680078612804D018D363287D
:1028F0000FD007D314E030000100C9B2002001F06E
:10290000CFFA11E030000100C9B2012001F0C8FA8D
:102910000AE030000100C9B2022001F0C1FA03E070
:10292000D84800F02DFA05E03300AA686968D64857
:1029300000F026FAF1BD0000149E00085C0A002099
:10294000249E0008349E0008449E00082C9C000829
:102950006F0B0020409C000838B504000D0068682B
:1029600000786E2806D10120C8490870C84800F0D8
:1029700007FA17E0C749686801F08CF8002803D00F
:102980000020C24908700DE0C349686801F082F870
:10299000002807D001F012FB0220BC490870BF4894
:1029A00000F0EEF968680178BD4800F0E9F931BD42
:1029B000549C0008B89A000838B504000D000120A6
:1029C000B2490870686800F053FBB6490880B54802
:1029D000B0F90010B44800F0D3F931BD75380000EB
:1029E000D6110020D09A0008E89A0008D8110020DB
:1029F00038B588B004000D0004A8AC491022FEF7D9
:102A00009BFC6846AA491022FEF796FC6868059070
:102A1000A868019001F0B1FA04A90420FFF728FF8B
:102A200069460420FFF724FFE86800F021FB01F06D
:102A3000E7FB01F0A2FAE86800F036FE02000B00A6
:102A40009C4800F09DF909B030BD0000696E74002B
:102A50006600000068000000009B0008DC99000888
:102A6000189B00084C980008F89900089C970008EB
:102A70006C980008689C0008F8B504000D006868B0
:102A80000678A86807783000C0B2612810D13800F5
:102A9000C0B2622803D18849884801F0E6F93800BD
:102AA000C0B263282DD18449854801F0DEF928E0C1
:102AB0003000C0B2622810D13800C0B2612803D102
:102AC0007D49804801F0D1F93800C0B2632818D19F
:102AD00079497D4801F0C9F913E03000C0B263289C
:102AE0000FD13800C0B2612803D17349774801F093
:102AF000BCF93800C0B2622803D16F49744801F0B4
:102B0000B4F9E86800F0B4FA01F07AFB01F035FAA4
:102B1000F1BD0000149A000838B504000D00686883
:102B200000F0C2FD00F0E8FD01F044F9686800F033
:102B3000BBFD02000B00674800F022F931BD000028
:102B40008C980008FC96000838B504000D0001F0D0
:102B50007DFA31BD38B504000D0001F068FA31BDD1
:102B600038B504000D0001F0FFFB80B201005A48A7
:102B700000F006F931BD0000AC98000870B5040003
:102B80000D00686800F074FA0100544800F0F8F88D
:102B9000686800F06DFA80B201F0F7FB06003100C2
:102BA00089B24F4800F0ECF870BD0000D4960008E0
:102BB00010100020CC980008309A0008EC9800080B
:102BC0004C9A0008C09700080C9900082497000848
:102BD0004C970008E4950008549E00087C9C00086F
:102BE000B0110020909C0008A0110020A49C0008B7
:102BF000A81100202C990008740A0020689A000887
:102C0000940A00204C990008B40A0020C01100204A
:102C10006C990008C09F0008B89C0008309B000811
:102C2000649E0008CC9C0008B4110020E09C0008C1
:102C3000489B0008A4110020F49C0008849A000816
:102C4000AC110020609B000834000040749E000816
:102C500038000040849E00083C000040949E00081C
:102C600024080040A49E000880110020B49E0008A3
:102C70000C0A0020089D00081C9D00080008014067
:102C800090940008C49E0008789B00086F0B0020F9
:102C9000309D0008C89F0008D09F0008E4970008F6
:102CA000449D00086C0B0020589D0008F49E00080D
:102CB000049F0008D49E0008000048420000002045
:102CC0000800002018000020100000202000002034
:102CD00028000020909B0008E49E00086C9D0008DE
:102CE000A89B000880B58E488E4908605FF4E130EB
:102CF0008C49486000208B49886000208949C86061
:102D00000020884908610C208649486100208549D7
:102D1000886100208349C861824801F083FB002854
:102D200003D04821804802F0ADF801BD18B585B048
:102D3000040020687A49884220D17C48006850F419
:102D400080107A4908607948006810F4801000907B
:102D500000984FF4805001900220029003200490CC
:102D600001A9734800F0B0FE0420019000200290F9
:102D70000020039001A96F4800F0A6FE06B010BD28
:102D80000EB478B5040005AE3300220065216A4810
:102D900002F07AF805004FF47A732800020092B22C
:102DA0006549604801F079FB71BC5DF810FB10B516
:102DB000040020685A4988423DD1604800880004D8
:102DC00039D45E48008840040ED55D4800780A2852
:102DD00003D00020594908802DE05848008850F45D
:102DE00000405649088026E0554800780D280ED14D
:102DF0005248008850F4804050490880504800787C
:102E000050494E4A12889204920C885413E04C4860
:102E100000784C49494A12889204920C88544748D9
:102E20000088401C4549088044480088C82802DBC7
:102E3000002042490880012241493A4801F0CAFB7A
:102E400010BD10B5040001223D49364801F0C2FB17
:102E500010BD80B501223A49324801F0BBFB01BDEB
:102E60007CB536490988090457D534490C88A4042F
:102E7000A40C002C08D1012231492A4801F0AAFBF8
:102E800000202E49088048E02F4A69462D4800F06E
:102E900054FD0600002E23D516F1030F09D100259D
:102EA000012227491F4801F095FB00202349088093
:102EB00033E016F1020F03D12448FFF761FF05E06C
:102EC00016F1010F02D12248FFF75AFF0025012217
:102ED0001B49144801F07EFB0020184908801CE0C3
:102EE0001949009800F06EFD0500002D11D515F16F
:102EF000020F04D1144801681648FFF741FF00266D
:102F000001220F49074801F065FB00200B490880AA
:102F100003E000200021094A118073BD0000000079
:102F200000500040D00F0020A49600081C10024062
:102F30000010014000140140CC0D0020D2110020EF
:102F4000D7110020040D002074100020D09D00082F
:102F5000449F0008549F00082DE9FC4F83B00E46A3
:102F600017460BB100221A608046444600E0641CFC
:102F7000207801F0A7FF0028F9D120782D2816BF6E
:102F80002B2814F801BB4FF02B0B002F019603D414
:102F9000012F01D0252F04DB002E47D0C6F800807A
:102FA00044E0002F0ADD102F04BF2078302802BF34
:102FB000617841F0200178290ED10AE0207830288C
:102FC00018BF0A2708D1607840F02000782802D185
:102FD0001027A41C00E00827029400E0641C20785D
:102FE0003028FBD04FF0000924A02646CA468DF8B1
:102FF000000007E09DF80050451BCA46EDB207FBF4
:103000000959641C207801F067FF00BF1BA301462B
:103010003A461846FEF74EF90028EBD10299A14234
:10302000484605D1019808B1C0F8008000201CE096
:103030001CA1A61BC95D761A002E0FD405DC451B0A
:1030400003D3B5FBF7F1514508D0AFF300800498E6
:1030500008B1012101604FF0FF3003E0BBF12D0FFB
:1030600008BF4042019901B10C6005B0BDE8F08F86
:10307000FFE700230A2200216EE7000030313233DF
:103080003435363738396162636465666768696A02
:103090006B6C6D6E6F707172737475767778797A08
:1030A0000000000000002115110E0D0C0B0B0A0A88
:1030B000090909090908080808080808070707078F
:1030C000070707070707070707000000C217504058
:1030D000801AB0FA80F10AD08840D1F19D01D20760
:1030E00042EAC151020672F1004241EB10207047E2
:1030F00078B585B001F058FF002001903D4803905D
:1031000001200490694601A801F0E8FF002805D0DD
:103110003948FFF735FE01F05AFF1AE00D25002669
:10312000AE4211DA354850F8260004002200002390
:10313000304911EB8601022001F0D8FE3100304801
:10314000FFF71EFE761CEBE701F041FF2D48FFF76D
:1031500017FE06B070BD38B50D240025A54213DA60
:10316000244810EB85000068244941F825002348D5
:1031700050F8250000F0B0FB02000B0029002248A7
:10318000FFF7FEFD6D1CE9E719A0FFF7F9FD1B48ED
:10319000406802F02FF81D4908701848806802F056
:1031A00029F81B490870154800691A490860134836
:1031B00040691849886011488069164948600F487D
:1031C000C069154908600D48006A134988600B48BA
:1031D000406A114948600948806A104908600748F8
:1031E000C06A0E4988600548006B0C49486031BDD3
:1031F0000D0A000000000208809D00081010002049
:10320000949D00088C9F0008C09B0008710B002053
:10321000D6110020740A0020940A0020B40A00206D
:1032200000280AD0B0FA80F18840D1F19D01C9058B
:10323000020672F1004241EB102070472A2A2A2A26
:103240002A2A2A2A2A2A2A2A2A2A2A2A2A2A2A2ADE
:103250002A2A2A2A2A2A2A2A2A2A2A2A2A2A2A2ACE
:103260002A2A2A2A2A2A2A2A2A2A2A2A2A2A2A2ABE
:103270002A2A2A2A2A2A2A2A2A2A2A2A2A2A2A2AAE
:103280002A2A2A2A2A2A2A2A2A2A2A0D0A00000059
:103290007CB51D4621F000431446B3F5801F20F095
:1032A000000209D20026B34208BFB24200960ED0F7
:1032B0006A46FEF76FFA0AE0DFF8C06306EB1352C6
:1032C0000092DFF8BC33DFF8BC23114019432246DB
:1032D0002B46FEF78DF90B465A00009C520DA418A0
:1032E0003AB1002C05DD40F2FF72944200DB4EE063
:1032F00048E021F00043002420F00002A3420EBF6A
:10330000A242009AFEF7AEFA7CBD7CB51D4621F0C4
:1033100000431446B3F5801F20F0000209D20026B6
:10332000B34208BFB24200960ED06A46FEF732FAA8
:103330000AE0DFF8486306EB13520092DFF84033EF
:10334000DFF840231140194322462B46FEF7CAFB03
:103350000B465A00009C520DA4183AB1002C05DD12
:1033600040F2FF72944200DB11E00BE021F00043D9
:10337000002420F00002A3420EBFA242009AFEF7F2
:1033800071FA7CBD6FF31E5343EA04517CBDBE4B02
:1033900001F0004040EA030100207CBD2DE9F84C1B
:1033A000002A82468B461F4600F0BA802BF000456B
:1033B00000202AF00004854208BF844200F0B0805B
:1033C0004FEA4B004015401C08BF5FEA0B3100F08C
:1033D000A7800020002AAD4911D55242B4A6082585
:1033E0001446002C18BF002D4FD0E20744BFD6E989
:1033F0000023FEF7FDF8640808366D1EF1E777DD5F
:10340000ABA608241546EA0744BFD6E90023FEF719
:10341000EFF86D100836641E002D01DD002CF2D18E
:1034200002460B4650465946FFF732FF8B4682460E
:103430002BF0004300202AF00002834208BF8242A2
:103440002C4655D04FEA4B004015401C08BF5FEAA0
:103450000B314DD0002C4BDD504659468C4A8D4BDC
:10346000FFF716FF21F00045002220F000039542EF
:1034700008BF93423AD04A005215521C01D10B03A7
:1034800034D0641E002CE9DC30E002460B46504686
:103490005946FFF73AFF8B4682462BF00043002047
:1034A0002AF00002834208BF824221D04FEA4B003B
:1034B0004015401C08BF5FEA0B3119D0C4B150461B
:1034C0005946754A754BFFF7E3FE21F0004500228F
:1034D00020F00003954208BF934207D04A005215DE
:1034E000521C01D10B0301D0641EEAD182468B46E7
:1034F0002BF0004300202AF00002834208BF8242E2
:1035000007D04FEA4B004015401C08BF5FEA0B3163
:1035100006D1AFF300801FB1386840F00100386079
:1035200050465946BDE8F48C2DE9F94987B01F0093
:103530001CBF0020386004920C46079D07A801F0CC
:103540006EFEC11020F0080001F001010128059174
:103550002FD10220009001AB07992246284601F0A6
:10356000EFFE040002D1002000211DE00298FEF7CA
:1035700035FA022C18DB0DF10C08661EDFF820B1BD
:1035800002460B4600205946FEF732F8044658F82A
:10359000040B0D46FEF722FA22462B46FEF7ECFB03
:1035A000761E02460B46EDD1049A019C3B46A218BA
:1035B0004DE002284ED1009001AB079922462846E3
:1035C00001F0A2FF040002D10020002119E00298BE
:1035D000FEF704FA022C14DB0DF10C08661EDFF86E
:1035E000C4B000225B46FEF703F8044658F8040B0B
:1035F0000D46FEF7F3F922462B46FEF7BDFB761E7D
:10360000EFD1019B0C466200520D03EB020511D075
:10361000002D0FDD40F2FF72954206DB1A4B01F0E0
:10362000004040EA030100200FE06FF31E5444EA1B
:1036300005510AE021F00045002620F00004B542C3
:103640000EBFB4421A46FEF70DF9049A3B46FFF747
:10365000A5FE0CE0032802D100200B4907E0042856
:1036600007BF4FF0FF306FF0004100200021059AA6
:103670000AB181F0004109B0BDE8F08902FCFFFF0A
:103680000000E03FFFFF0F800000F07F0000F03FF0
:103690003CBF737FDD4F1575436FAC642806C80AC5
:1036A00065CDCD410000B0410023002200213BE761
:1036B000000000000000244000000000000059400D
:1036C000000000000088C3400000000084D797413C
:1036D0000080E03779C34143176E05B5B5B893460E
:1036E000F5F93FE9034F384D321D30F94877825ADA
:1036F0003CBF737FDD4F157501F000428B1AA3F1BB
:103700006051B1F5801F0ADBB1F17F6F1FD242EA31
:10371000C102C10071F1004142EB507070470B15BE
:10372000C3F10903212B10D2890241EA9051800292
:103730000128494141F0004121FA03F0C3F120037F
:10374000994071F1004150417047100070476FF08F
:10375000000013EB103F5CBF000E42EAC050704700
:1037600010B504004E4804602000002101F0DAFF8B
:1037700004D821004B4800F078FB05E0210091F0CF
:103780000041494800F071FB10BD10B504004748E6
:103790000078002803D12000FFF7E2FF02E02000BC
:1037A00000F008FB10BD70B500240025002640483D
:1037B0000078400741D53F4802683F4801683F48CC
:1037C00001F0C2FF06003A48007880071FD53C4848
:1037D00006603C4802683A4801683B4801F0B4FF83
:1037E000050033480078C0070DD5384805603848D3
:1037F000026836480168374801F0A6FF040020003F
:10380000FFF7C3FF4AE02800FFF7BFFF46E0284864
:103810000078C0070DD52D4806602D4802682B485A
:1038200001682C4801F090FF04002000FFF7ADFF75
:1038300034E03000FFF7A9FF30E01D480078800732
:103840001DD5204802681E4801681F4801F07CFF12
:10385000050017480078C0070DD51C4805601C48B6
:1038600002681A4801681B4801F06EFF040020003E
:10387000FFF78BFF12E02800FFF787FF0EE00C48F0
:103880000078C0070AD5124802681048016811483C
:1038900001F05AFF04002000FFF777FF70BD000021
:1038A0009C1100205C0A0020640A0020710B00209B
:1038B000D8110020AC110020A8110020B40A00206B
:1038C000A0110020A4110020940A0020B0110020B3
:1038D000B4110020740A0020C0F3C75181B1FF2940
:1038E00006D0C110400721F0E04101F1605170475E
:1038F00041020CBF40F4E0016FF00041002070472E
:1039000000F0004100020AD0B0FA80FC00FA0CF08E
:1039100001F16051A1EB0C5101EBD0214005704742
:1039200010B500240C2C07DA152001F0C9FF52490C
:1039300041F82400641CF5E710BDF0B404000B004E
:10394000002700210026E55D7F1C2800C0B20D285D
:1039500027D02800C0B2202816D1002903D1E05D6D
:1039600005007F1CF1E70C2E02D15FF0FF3027E04D
:10397000002052F826C00CF80100761C002001003F
:10398000E05D05007F1CE0E7142902D17FF0010013
:1039900016E052F826004554491CE05D05007F1CE6
:1039A000D3E751EA0600002802D17FF0020007E0C9
:1039B000002052F826C00CF80100761C1E60002082
:1039C000F0BC70472DE9F04704000D0000211C26D3
:1039D000002C02D15FF0FF3029E00027B74224D24B
:1039E00029682648582202FB07F2104401F08AFF9A
:1039F000002818D12248FFF7C3F9290020001F4AE8
:103A0000582303FB07F31A44526D90475FF0810877
:103A10005FF00009DFF86CA04A464146504601F0CD
:103A200097FF002003E07F1CD8E77FF00100BDE88E
:103A3000F087F8B504000D001C26022C03DB1248A9
:103A4000FFF79EF916E00027B74213D20B48582122
:103A500001FB07F101440D48FFF792F9074858218F
:103A600001FB07F1084410F114010948FFF788F938
:103A70007F1CE9E7F1BD0000741000206C000020FD
:103A80003C320008040D0020C0990008809F000807
:103A9000049E000810B402000023D05CCC5CA0425D
:103AA00007D1D05C002804D0C85C002801D05B1C82
:103AB000F3E7D05C002804D1C85C002801D10120C4
:103AC00000E0002010BC70472DE9F84302000024FC
:103AD0000025002600275FF000085FF0000EBEF111
:103AE000100F80F01581012010FA0EF00400086814
:103AF00020400500A54240F008814868002831D0E8
:103B0000012820D0022825D003283CD011281DD020
:103B1000122823D0DFF850C2604523D0DFF84CC212
:103B200060451FD0DFF848C260451BD0DFF844C2B3
:103B3000604517D0DFF840C2604513D0DFF83CC2C3
:103B400060450FD022E0C86807001FE0C868001D6C
:103B500007001BE0C8680830070017E0C8680C3091
:103B6000070013E08868002802D10420070009E05C
:103B70008868012803D108200700146102E00820AA
:103B80000700546102E000200700FFE7B5F5807FE1
:103B900001D2130000E0131DB5F5807F02D25FEA69
:103BA0008E0803E0BEF108085FEA8808D3F800C079
:103BB0000F2010FA08F03CEA000C17FA08F050EA5F
:103BC0000C0CC3F800C04868C00040F19E80DFF8CC
:103BD000B001006850F00100DFF8A4C1CCF800008B
:103BE000DFF89C01006810F0010000900098DFF8F9
:103BF0009401F4465FEA9C0C50F82CC05FF00F096A
:103C00001EF00300C0B2800019FA00F93CEA090C6A
:103C10005D48824202D15FF000091FE05B488242AA
:103C200002D15FF0010919E05948824202D15FF0E8
:103C3000020913E05748824202D15FF003090DE008
:103C40005548824202D15FF0040907E0534882429E
:103C500002D15FF0050901E05FF0060966461EF03B
:103C60000300C0B2800019FA00F959EA0606454877
:103C7000F4465FEA9C0C40F82C604868C00307D506
:103C8000474800682843DFF818C1CCF8000006E078
:103C900043480068A843DFF808C1CCF80000486832
:103CA000800307D53F4800682843DFF8F8C0CCF808
:103CB000000006E03B480068A843DFF8E8C0CCF805
:103CC00000004868C00207D5374800682843DFF87D
:103CD000D8C0CCF8000006E033480068A843DFF8FD
:103CE000C8C0CCF800004868800207D52F4800689B
:103CF0002843DFF8B8C0CCF8000006E02B48006885
:103D0000A843DFF8A8C0CCF800001EF1010EE6E6DB
:103D1000BDE8F183020090680B009BB2184201D00D
:103D2000012000E00020C0B270471300DBB2002B7E
:103D300003D00B009BB2036103E00B009BB21B049A
:103D40000361704710B5040019480068210089B26A
:103D5000084207D0200080B215490860200080B2D8
:103D600001F098FE10BD00000000111000001210BC
:103D7000000021100000221000003110000032105D
:103D8000181002400800014000080140000C0140EA
:103D9000001001400014014000180140001C0140C7
:103DA0000004014004040140080401400C040140E7
:103DB0001404014010B50400DFF8C4030460DFF808
:103DC000C4030078012810D12000002101F0ECFE8E
:103DD00005D2DFF8B403DFF8B413086014E0DFF8AD
:103DE000B003DFF8A81308600EE02000002101F006
:103DF000DBFE04D20120DFF89C13087004E05FF0C2
:103E0000FF30DFF8901308702000FFF765FD31F0F8
:103E10000041FFF771FCDFF88013086010BD10B49B
:103E200000200021062919DADFF87023525C100007
:103E3000DFF86C2352F82120DFF854330400E4B299
:103E400043F82420DFF85C2352F82120DFF83833D0
:103E50000400E4B243F82420491CE3E7DFF8301300
:103E6000DFF82823116010BC704738B504000D003E
:103E700000F083F80020DFF830130860012160783B
:103E800000F00EF82900207800F02DF8DFF8F40299
:103E90000078022803D16068DFF81013086031BD94
:103EA00038B504000D002000C0B2002803D002285D
:103EB00011D008D316E02A00D2B24FF40041BC481A
:103EC000FFF733FF0EE02A00D2B24FF48041B8482A
:103ED000FFF72BFF06E02A00D2B24FF40051B4489E
:103EE000FFF723FF31BD38B504000D002800002185
:103EF00001F05AFE02D295F00045FFE72800AD49D7
:103F000001F010FC01D8AC4DFFE72000C0B2002842
:103F100003D0022821D010D32EE0A8480068FFF774
:103F20007FF9290001F052FEA54901F0BBFE01F026
:103F300061F980B2A34908601EE0A0480068FFF75D
:103F40006FF9290001F042FE9D4901F0ABFE01F03E
:103F500051F980B29C4908600EE098480068FFF76C
:103F60005FF9290001F032FE954901F09BFE01F056
:103F700041F980B29549086031BD80B5002100202B
:103F8000FFF78EFF00210120FFF78AFF00210220AA
:103F9000FFF786FF00210020FFF7A5FF0021012089
:103FA000FFF7A1FF00210220FFF79DFF01BD884818
:103FB000006810F03800C0B2C0087047F8B50020A3
:103FC000002700240A2C1DDA82498348FFF74DFFA1
:103FD0000A2000F015F9FFF7D0FFFFF7E8FF050012
:103FE00028003100C0B2C9B2884200D17F1C2E0027
:103FF000032F05DB3A0021007848FEF7C1FE01E0FF
:10400000641CDFE7F1BD10B500240B2C0EDA7149FA
:1040100063484069FFF729FF052000F0F1F8FFF73A
:10402000ACFF052000F0ECF8641CEEE710BD80B595
:10403000FFF7E9FF4FF47A7000F0E2F800F094F92E
:1040400080B201006648FEF79BFE01BD2DE9F041FC
:104050005FF0000800270024FFF7D5FF4FF47A70C7
:1040600000F0CEF800F080F905000026032E22DAD9
:104070005FF00008B8F1060F1BDA5649484850F8BF
:104080002800FFF7F2FE052000F0BAF8FFF775FFF1
:1040900000F06AF90700390089B2280080B2091AD5
:1040A000012901DB641C00E0641E3D0018F10108D9
:1040B000E0E7761CDAE7012C03DB39484949086060
:1040C00002E049484749086021004848FEF758FE89
:1040D000BDE8F0812DE9F041040000212600B6B2D0
:1040E00000274348B0F900502A4890F900204FF4C7
:1040F000C3704243022092FBF0F04519AE4201D258
:1041000016F58046234890F9000001280BD1701B5A
:10411000FFF786F8374901F0C5FD01F06BF88046DE
:1041200018F101080AE0701BFFF77AF8314901F035
:10413000B9FD01F05FF88046B8F10308B8F1000F4F
:1041400001D518F10608062098FBF0F100FB118854
:1041500029480078012810D12848006880450CD0F3
:104160002648C0F800800C4801681E480068234AB1
:10417000126850F82200FFF778FEBDE8F0810000D9
:104180009C110020710B00203011002078110020BC
:10419000F01000206E0B0020801100206400002031
:1041A00030000020A09A000888110020741100201F
:1041B000001001400100BE420000BE422C00004041
:1041C0000000C8423C00004038000040340000407D
:1041D00008080140000020412800002050950008F8
:1041E000049C00086000002048000020E49D0008B6
:1041F0006C0B00200000C3436F0B002084110020D3
:1042000070B5040001F0CCFD0500260016F1010F89
:1042100002D004480078861901F0C2FD401BB0426C
:10422000FAD370BD700B00201FB504000020ADF85C
:1042300004000020ADF806000121012000F0D7F8AD
:10424000ADF80400002240214548FFF76EFD6423CD
:10425000012201A9434801F0A9FD01224021404863
:10426000FFF763FD0121200080B200F0C0F8ADF837
:104270000400002240213A48FFF757FD64200090D7
:10428000012302AA01A9374801F025FF012240219C
:104290003348FFF74AFD002240213148FFF745FD32
:1042A000642301220DF106012E4801F057FE012280
:1042B00040212B48FFF739FDBDF8060004B010BDC2
:1042C0003EB504000D000020ADF8040001210120DE
:1042D00000F08DF8ADF80400002240212048FFF7DF
:1042E00024FD6423012201A91E4801F05FFD012283
:1042F00040211B48FFF719FD0021200080B200F08B
:1043000076F8ADF80400002240211548FFF70DFDB6
:1043100064200090012302AA01A9124801F0DBFEEB
:10432000012240210E48FFF700FD002240210C48E9
:10433000FFF7FBFC280080B200F069F8ADF806003A
:10434000642301220DF10601064801F02FFD012230
:1043500040210348FFF7E9FCBDF808003EBD00001E
:1043600000100140340E002038B50024002543F62B
:10437000FF70FFF759FF0100480402D54FF6FF70A8
:1043800002E08804800C80B232BD70B504000025C4
:104390000026210089B20320FFF792FF01004804A4
:1043A00002D54FF6FF7002E08804800C80B270BD29
:1043B00010B401000022002300200F2809DA012494
:1043C000844023000C00A4B21C4200D0521C401CAC
:1043D000F3E7022092FBF0F400FB1420002801D147
:1043E000002002E05B00180080B210BC704770B57E
:1043F00004000D00002626432800C0B256EA80368D
:10440000300080B2FFF7D4FF304380B270BD38B5C2
:10441000040000252543280080B2FFF7C9FF284388
:1044200080B232BD10B50400002C01D1012033E070
:10443000A0690028FFD194F83900002805D1002098
:1044400084F838002000FEF771FC242084F839003D
:104450002068C06830F400502168C860200000F077
:1044600089FA2068006930F490402168086120686A
:10447000406930F02A00216848612068C06850F423
:1044800000502168C8600020E063202084F83900D3
:10449000202084F83A00002010BD2DE9FC470500DB
:1044A0000C0016001F005FF0000A95F83900202864
:1044B00060D1002C03D0300080B2002801D101204F
:1044C00059E095F83800012801D1022053E001207D
:1044D00085F838000020E863212085F8390001F0D4
:1044E0005FFC8146AE84EE84E88C00282FD0E88CF7
:1044F000401EE884A868B0F5805F18D100974B464D
:1045000000228021280000F043F9002801D0032078
:1045100031E0A046B8F80000C005C00D2968486029
:104520002869002801D1A41CDEE7641CDCE70097A1
:104530004B4600228021280000F02AF9002801D0F3
:10454000032018E0207829684860641CCCE70097B5
:104550004B4600224021280000F01AF9002801D023
:10456000032008E0202085F83900002085F8380075
:10457000002000E00220BDE8F68710B4030093F8A5
:104580003900202823D1002903D0100080B2002850
:1045900001D101201CE093F83800012801D102204C
:1045A00016E0012083F8380019629A84DA8400202A
:1045B000D863212083F83900002083F83800186878
:1045C000C06850F080001C68E060002000E002201D
:1045D00010BC704710B4030093F83A0020282FD184
:1045E000002903D0100080B2002801D1012028E06A
:1045F00093F83800012801D1022022E0012083F83D
:10460000380099629A85DA850020D863222083F8E1
:104610003A00002083F838001868C06850F48070B1
:104620001C68E0601868406950F001001C68606117
:104630001868C06850F020001C68E060002000E0AE
:10464000022010BC70472DE9F84306003068076867
:104650003068D0F80C803068D0F814900020002525
:1046600017F00F04002C08D1B80606D55FEA886061
:1046700003D5300000F027F988E0002C74D05FEA01
:10468000C97002D418F4907F6ED017F00100C0B248
:10469000002806D05FEAC85003D5F06B50F0010047
:1046A000F063780708D519F00100C0B2002803D0E4
:1046B000F06B50F00200F063B80708D519F0010064
:1046C000C0B2002803D0F06B50F00400F06338074C
:1046D00008D519F00100C0B2002803D0F06B50F0EB
:1046E0000800F063F06B00283DD0B80605D55FEAFE
:1046F000886002D5300000F0E6F830684069800933
:1047000010F001000500F06B000701D4002D25D04A
:10471000300000F074F83068406940061AD53068FF
:10472000406930F0400031684861706B00280DD05E
:104730000FF2ED00716B4863706B01F045FE0028CD
:1047400011D0706B716B496B88470CE03000FEF73D
:1047500078FB08E03000FEF774FB04E03000FEF761
:1047600070FB0020F06311E0380606D55FEA0860B0
:1047700003D5300000F060F808E0780606D55FEA5F
:10478000486003D5300000F08EF8FFE7BDE8F18304
:104790002DE9F04105000E0090461F00069C286898
:1047A00000683040B04201D1012000E000204146C5
:1047B000C9B2884220D114F1010FF0D0002C04D0EE
:1047C00001F0EEFAC01B8442E9D22868C06830F4D8
:1047D000D0702968C860286840694008400029688E
:1047E0004861202085F83900202085F83A00002013
:1047F00085F83800032000E00020BDE8F081016862
:10480000C96831F490710268D1600168496949084A
:10481000490002685161202180F83A107047000079
:1048200038B50400656A0020E8850020E884280087
:10483000FEF707FB31BD0000010091F83900212887
:104840002FD18868B0F5805F11D1086A0200108806
:10485000C005C00D0B6858600869002803D1086ABC
:10486000801C086209E0086A401C086205E0086ACA
:10487000431C0B6200780B685860C88C401EC884CB
:1048800080B200280BD10868C06830F080000B6847
:10489000D8600868C06850F040000B68D8600020FD
:1048A00000E00220704710B504002068C06830F0B6
:1048B00040002168C860202084F83900200001F001
:1048C0007FFE002010BD38B5040094F83A0022287D
:1048D0004ED1A068B0F5805F16D1A06A05002069AE
:1048E000002808D120684068C005C00D2880A06A53
:1048F000801CA0621AE02068406800F0FF00288059
:10490000A06A401CA06211E02069002806D1A06ABC
:10491000411CA16221684968017007E0A06A411C3E
:10492000A1622168496811F07F010170E08D401E8D
:10493000E08580B2002819D12068C06830F02000DE
:104940002168C8602068C06830F480702168C86041
:10495000206840694008400021684861202084F8B0
:104960003A002000FEF723FA002002E0002000E0D9
:10497000022032BD2DE9F8430500002428680169B2
:1049800031F44051E868014328680161A968286949
:104990000143686901430C432868C16859480140D4
:1049A00021432868C1602868416931F44071A869D1
:1049B00001432868416128685349884250D102F078
:1049C00037F9814602F034F9804602F031F90700E8
:1049D00002F02EF9060002F02BF9192101FB09F96A
:1049E00069688900B9FBF1F16422B1FBF2F2192187
:1049F00001FB08F869688900B8FBF1F319214F43FE
:104A000069688900B7FBF1F16427B1FBF7F764210E
:104A100001FB1733190132316423B1FBF3F313F0B7
:104A2000F00313EB021319214E4369688900B6FBAA
:104A3000F1F21921484369688900B0FBF1F0642163
:104A4000B0FBF1F1642000FB11221001323064212F
:104A5000B0FBF1F010F00F00C318286883604FE03E
:104A600002F0DBF8814602F0D8F8804602F0D5F873
:104A7000070002F0D2F8060002F0CFF8192101FB7E
:104A800009F969688900B9FBF1F16422B1FBF2F21E
:104A9000192101FB08F869688900B8FBF1F31921B5
:104AA0004F4369688900B7FBF1F16427B1FBF7F761
:104AB000642101FB1733190132316423B1FBF3F395
:104AC00013F0F00313EB021319214E4369688900B8
:104AD000B6FBF1F21921484369688900B0FBF1F097
:104AE0006421B0FBF1F1642000FB1122100132308F
:104AF0006421B0FBF1F010F00F00C3182868836048
:104B0000BDE8F183F3E9FFFF0038014080B502F012
:104B1000D1F800F045F800F04FFF02F0DFF802F0A6
:104B200007FA02F06DFAFEF7DDF802F00CFB02F076
:104B300032FB02F0C8FA02F0EBFB00F083F8B74852
:104B400002F00CFDFEF785F902F0B4FBFEF7E8FE7B
:104B5000FFF765F9FEF7FFFA02F01CF900F04AFED4
:104B600002F09BFCAE48FEF70BF9FEF779F9AD4871
:104B70000068002801D0FEF716FEAB480078022836
:104B8000F3D1FFF7F1FBA9490880A8480088FEF798
:104B900047FBA7490860A5480088FFF79BFAE4E7B0
:104BA00000B595B001200B905FF480300C90002090
:104BB0000D9001200F90022012905FF4803013902E
:104BC0005FF4E01014900BA801F0FCFC002803D067
:104BD000B721984800F056F90F200090022001906C
:104BE000002002904FF48060039000200490022186
:104BF000684601F012FF002803D0C5218D4800F05F
:104C000041F9022005904FF40040079005A802F0FA
:104C10001DFD002803D0CC21864800F033F901F0B7
:104C2000F9FF4FF47A71B0FBF1F002F0CEFE0420F0
:104C300002F0D1FE002200215FF0FF3002F0A9FE59
:104C400015B000BD80B500220121092002F0A1FEAF
:104C5000092002F0B3FE002201210A2002F099FE91
:104C60000A2002F0ABFE00220021142002F091FE87
:104C7000142002F0A3FE00220121172002F089FE79
:104C8000172002F09BFE00220321352002F081FE56
:104C9000352002F093FE01BD80B567480068401CD6
:104CA00065490860022064490968634A126892FBFA
:104CB000F0F200FB1210002802D1642002F08BFBFE
:104CC00005205D4909685C4A126892FBF0F200FB1E
:104CD0001210002808D102F0F6FE524800680028A1
:104CE00002D101204F4908600A2053490968524AFD
:104CF000126892FBF0F200FB1210002806D14F4818
:104D000000684F49086000204C49086005204A4966
:104D10000968494A126892FBF0F200FB1210002861
:104D200034D14848006801280DD147480068FEF793
:104D300077FA03004548C268454801684048006862
:104D400000F063FD22E03F48006802280DD13E4894
:104D50000068FEF765FA0300394802683D480168BB
:104D60003D48006800F051FD10E036480068032817
:104D70000CD135480068FEF753FA03003648026844
:104D8000364801682A48006800F03FFD2A4800685C
:104D90004FF6FD71884202DB002027490860224857
:104DA0000078002803D02E480078012800D034E095
:104DB0002C4800682C4900F0F7FE03D20020294956
:104DC00008602AE027480068002102F0A1FE24D0F4
:104DD00026480068401C25490860244800681028BF
:104DE0001BDBFFF7CAF80020204908602048FDF7C8
:104DF000C7FF204801782048FDF7C2FF1D48007812
:104E0000801C06221D4990FBF2F302FB13001C4A92
:104E1000126852F82000FFF728F801BD4410002066
:104E2000989F000890110020710B0020D0110020E5
:104E3000AC1100201496000894110020B811002035
:104E4000B4110020C011002038000040740A002076
:104E5000B0110020A0110020A4110020A8110020F2
:104E60006F0B0020801100200000E040881100201E
:104E700008980008D5110020D89B00080000704257
:104E800078110020FEE7000008B584B000230393EA
:104E900000290EBF01930190491E0291009301A9C0
:104EA00004AB074878441830FBF742F9019909B17F
:104EB00000220A70002858BF039805B000BD00BF4B
:104EC000DBC3FFFF10B50446FCF758F90146204646
:104ED000096ABDE81040084710B50446FCF74EF9D2
:104EE00001462046896ABDE8104008472DE9F84F81
:104EF00082460E0014001D005FF0010B00275FF0DA
:104F00000008DFF8BC01007E012801D1022049E041
:104F10000120DFF8AC1108764CF2503000F06AF84E
:104F200081464846C0B2002836D1BAF1010F02D1FD
:104F30000120804607E0BAF1020F02D1022080462C
:104F400001E0042080460020070038004146C0B23E
:104F5000C9B2884220D220002900FFB23A0102F0F3
:104F6000E5FD010089B23800C0B216EB400000F048
:104F700036F84CF2503000F03DF88146DFF844013D
:104F8000006840084000DFF83C1108604846C0B2A5
:104F9000002801D17F1CD8E70020DFF82411087613
:104FA0004846C0B2BDE8F28F0020464909680906AC
:104FB0000BD54649464A11604649454A1160414968
:104FC0000968090601D501210800C0B270473D48B3
:104FD000006850F080003B490860002070470022C4
:104FE000374BDA61374A126852F00102354B1A60CA
:104FF0000180704738B5040000F0D2FE0500324849
:105000000068C0070BD514F1010FF8D0002C04D0B4
:1050100000F0C6FE401B8442F1D2032017E02A486C
:105020000068800602D520202749086026480068CD
:10503000C00607D428480068C00703D42248006887
:10504000400703D500F004F8012000E0002032BD45
:1050500000201D490968C90607D51949C96951F0D9
:105060000201174AD16150F0100017490968490739
:1050700007D51349C96951F00101114AD16150F0B6
:10508000040015490968C9070BD50D49C96951F0D4
:1050900004010B4AD16110490968490849000E4AC8
:1050A000116040F20111884206D10B490968490894
:1050B0004900094A116001E0034908607047000097
:1050C00010110020102002400C20024023016745EF
:1050D00004200240AB89EFCD1C200240F8B504004B
:1050E0000D0001260027DFF80001007E012801D114
:1050F00002204FE00120DFF8F01008762068022837
:1051000016D14CF25030FFF775FF00283CD101203A
:1051100000F041F84CF25030FFF76CFF0600DFF86A
:10512000CC00006830F00400DFF8C01008602BE00D
:105130004CF25030FFF75EFF002825D15FF0FF30C2
:105140002860A0680700E1684FF40062A06802FBD5
:1051500001018F4218D2380000F032F84CF2503082
:10516000FFF748FF0600DFF88400006830F0020017
:10517000DFF8781008603000C0B2002801D02F603E
:1051800002E017F50067DEE70020DFF85C10087624
:105190003000C0B2F2BD0021DFF84C20D161DFF851
:1051A0004C10096851F00401DFF840201160DFF86D
:1051B0003C10096851F04001DFF830201160704761
:1051C0000021094AD1610949096851F00201074AE1
:1051D0001160074908600549096851F04001034A18
:1051E00011607047000000001011002010200240E4
:1051F00014200240C0F3C7517E390EDDC217D1F131
:10520000200106DD000240F00040C840104450403C
:105210007047D04380F000407047002070472DE970
:10522000F84305460C462E68002700E0761C3078CF
:10523000FFF748FE0028F9D130782D280CBF082749
:105240002B2800D1761C307840F020016E2927D120
:10525000707840F02000612802BFB07840F0200054
:105260006E2802D02E68002746E0F61CB0460427C0
:1052700098F8000028283FD118F8019F484602F00E
:1052800064FC0028F8D1A9F130000A28F4D398F87A
:1052900000005F28F0D029282ED108F101062BE06C
:1052A00069292CD1707840F020006E2802BFB078B8
:1052B00040F02000662802D02E6800271CE016F877
:1052C000030F40F02000692802BF707840F02000F2
:1052D0006E2847F003070FD1B07840F0200069280E
:1052E00002BFF07840F02000742805D1307940F0FA
:1052F0002000792808BF761DF4B126601CE0302814
:1053000002BF707840F02000782813D1B01C0178DB
:105310002E2908BF401C0078A0F16101062921BF99
:10532000A0F14102062A30380A2803D2B61C47F001
:10533000020701E047F001072E603846BDE8F2831E
:105340002DE9F14F8CB09246169A02EBC202002072
:105350002D2AC8BF2D22186083465860002501E021
:10536000491C01250C78302CFAD000241F460B78FC
:10537000A3F130060A2E80F09780944207DB3B6849
:105380005B1C3B600B78302B05D0012003E0303BE9
:105390000DF80430641C491C0125E8E73868401EFC
:1053A0003860761C012530783028F7D03078A0F1AD
:1053B00030010A2980F08780444507DA30380DF83B
:1053C0000400641C3968491E396003E0302818BFA6
:1053D0004FF00109761C0125E8E70DF1FF31095D69
:1053E00049B93A68521C3A60641E002CF5DC04BFCF
:1053F0008DF800B0012400284BD0092394FBF3F36F
:10540000C4F1090103EBC3035918092291FBF2F21D
:1054100002EBC202DC468A1A18BF4FF0010B5A4653
:105420008B46A4455DDA09219BFBF1F11DF80C3098
:1054300001EBC101BBEB01011DBF57F8221001EBCD
:10544000810103EB4103521C47F822300BF1010BA1
:105450000CF1010CE5E700240025DFF8A8C0314677
:1054600008E0654504DA05EB850402EB4405303DB0
:10547000491C01240A78A2F130060A2EF1D30E4607
:10548000BEF12D0F396808BF6D426D183D6004B93B
:105490001E46BAF1000F03D000B90C9ECAF8006096
:1054A00058460DB0BDE8F08F0E4690468146FBF79A
:1054B00099FE406A31780278914208BF761C002C30
:1054C0007FF474AF6FE75FEA090128468DD00DF1D4
:1054D000FF310DF1FF3211F80810491C02F80810D5
:1054E00083E7317841F0200165299346D1D13346D5
:1054F00016F8011F2B2916BF2D2916F801EB4FF0C6
:105500002B0EA8E700E1F5052DE9FD4E8BB0002438
:10551000DDF858901C60C9EBC909B9F1230FC8BF69
:105520004FF023095C60A24602E0491C4FF0010ADB
:1055300008783028F9D000BF0FF2B81573A0A34641
:105540000A9509900F461E46397816222846FBF721
:10555000B1FE002800F09A80D94503DA3068401C7B
:10556000306007E00A9A0999801A085C0DF80B0070
:105570000BF1010B7F1C4FF0010AE5E73068401E7C
:1055800030607F1C4FF0010A38783028F6D0397827
:1055900016222846FBF78EFE002800F08480D945AD
:1055A0000ADB00BF59A1401B085C0DF80B000BF192
:1055B000010B3168491E31607F1C4FF0010AE6E79C
:1055C0000DF1FF32525C4AB933685B1C3360491EEF
:1055D0000029F5DC04BF8DF80040012132689200FB
:1055E000BAF1000F326046D04FF0070C91FBFCFC83
:1055F000C1F10705CCEBCC0C6544072295FBF2F218
:105600000023C2EBC202AA1A18BF0124A4468B428F
:105610005CDA072295FBF2F21DF80340C2EBC202EE
:10562000AA1A1ABF56F82C2004EB02140CF1010C34
:1056300046F82C406D1C5B1CE9E7002300252C4834
:10564000394608E0854204DA05EB850307EB43059C
:10565000303D491C01230F78A7F13009B9F10A0F39
:10566000F0D30F46BCF12D0F316808BF6D426D18A5
:10567000356003B917460C9921B1BAF1000F08BF84
:105680000B9F0F6020460EB0BDE8F08EFBF7AAFD21
:10569000406A39780278914208BF7F1CBBF1000F45
:1056A0007FF475AF70E75946894591DA1DF8091006
:1056B000072906DD0DF1FF3212F80910491C02F826
:1056C000091049463268521C326081E7397841F04E
:1056D000200170296446CED13A4617F8011F2B29C4
:1056E00016BF2D2917F801CB4FF02B0CA5E70000B2
:1056F00000E1F505303132333435363738396162FF
:10570000636465664142434445460000000102036C
:105710000405060708090A0B0C0D0E0F0A0B0C0DE9
:105720000E0F00004FF0807C1CEB400F94BF1CEB71
:10573000410F05E040EA010C1CEB0C0F01D2814245
:10574000704718BF884270472DE9F84304000D00E8
:1057500016002800310002F003FA07003800216922
:1057600002F0FEF901004A4800F030FA8046A169D3
:10577000484800F02BFA414602F032FA8046276191
:10578000E069390000F022FAE16802F029FAE060ED
:105790006069E16800F008FA02D26069E0600AE03E
:1057A000E068616991F0004100F0FEF903D26069A0
:1057B00090F00040E060C4F818802068390000F0E4
:1057C00005FA81466068414600F000FA494602F059
:1057D00007FA8146E168A06800F0F8F9494602F04E
:1057E000FFF9BDE8F2830021C160002101610021C1
:1057F0008161704780B52848FFF7F5FF2748FFF71C
:10580000F2FF2748FFF7EFFF01BD2DE9FF4F81B001
:10581000012224492448FEF7DDFE10202349887028
:1058200006202249C8700D20204908750A201F490A
:1058300048750420009001AC1D4D009A21002800FD
:10584000FBF76AFD042502AE1A4F2A00310038002A
:10585000FBF762FD04270DF10C08DFF85C903A00BD
:1058600041464846FBF758FD5FF004090DF1100A68
:10587000DFF848B04A4651465846FBF74DFD162220
:105880000A490948FEF779FE05B0BDE8F08F00002F
:10589000A69BC43EA4701D3F740A0020940A0020F9
:1058A000B40A0020D7110020D00F0020D40A002015
:1058B000D80A0020DC0A0020E00A0020E40A0020C8
:1058C00070B5C51DED08AFF30080ED00072D98BF42
:1058D00008250B4E346814B12068A84208D202F0A3
:1058E000F1F900283060F4D1AFF30080002070BDE2
:1058F00061193160451B0D60AFF30080204670BD1B
:10590000C811002081EA00039B0717D1820707D046
:1059100010F8012B11F8013BBAB19A42F6D014E00D
:1059200002680B689A42A2F1013301BF934313F05E
:10593000803F50F8042F51F8043FF3D010F8012BAA
:1059400011F8013B0AB19A42F8D0D01A7047000012
:1059500062F30F2262F31F42401810F0030308D0D5
:10596000C91A1FD3DB0748BF00F8012D28BF20F854
:10597000022D130030B414461546103928BF20E913
:105980003C00FAD8490728BF20E90C0048BF40F87E
:10599000042D890028BF20F8022D48BF00F8012DF2
:1059A00030BC7047C91818BF00F8012DCB0728BFBD
:1059B00000F8012D7047000000B585B06A48006806
:1059C00050F01000684908606748006810F0100047
:1059D000049004986448006850F020006249086010
:1059E0006148006810F02000049004985E48006848
:1059F00050F004005C4908605B48006810F0040047
:105A0000049004985848006850F00800564908600F
:105A10005548006810F008000490049800224EF2E7
:105A200040015248FEF781F9002241F601415048F9
:105A3000FEF77BF94EF2400000900120019000201B
:105A400002900220039069464848FEF73DF838204E
:105A50000090484801900020029069464648FEF7B1
:105A600033F841F60140009001200190002002909F
:105A70000220039069463E48FEF726F80220009077
:105A8000002001900120029069463948FEF71CF879
:105A900005B000BD38B5040038480078022803D0AE
:105AA00036480078002800D157E0FEF780FA3449E4
:105AB00008703448007801280AD133480168334817
:105AC00000682F4A127850F82200FEF7CEF944E021
:105AD0002C480078002814D10225002D0DD4284828
