:020000040800F2
:1000000030180020D5B20008D9A50008DBA50008EB
:10001000DDA50008DFA50008E1A50008000000003C
:10002000000000000000000000000000E3A5000840
:10003000E5A5000800000000E7A50008E9A5000804
:1000400057B300085BB300085FB3000863B3000850
:1000500067B300086BB300086FB3000873B3000800
:1000600077B30008F5A50008FFA500087BB30008DA
:100070007FB3000883B3000809A6000813A6000890
:1000800087B300088BB300088FB3000893B3000850
:100090001DA6000897B300089BB3000827A6000818
:1000A0009FB30008A3B30008A7B30008ABB30008D0
:1000B000AFB30008B3B30008B7B30008BBB3000880
:1000C000BFB30008C3B30008C7B30008CBB3000830
:1000D000CFB3000831A60008D3B30008D7B3000897
:1000E000DBB30008DFB30008E3B30008E7B30008A0
:1000F000EBB30008EFB30008F3B30008F7B3000850
:10010000FBB30008FFB3000803B4000807B40008FD
:100110000BB400080FB400084DA6000813B4000883
:1001200017B400081BB400081FB4000823B400086B
:1001300038B504000D00DFF8C8060078002803D0A9
:1001400002284AD027D36AE0DFF8B80601F09AF80F
:10015000DFF888090078002809D1DFF880094078A5
:10016000012804D1DFF8780901F08CF812E0DFF8FB
:100170006C090078012809D1DFF86009407802286D
:1001800004D1DFF8600901F07DF803E0DFF85809D9
:1001900001F078F843E0DFF8540901F073F8DFF874
:1001A00050090078012804D1DFF8480901F06AF805
:1001B00012E0DFF83C090078002804D1DFF83809A4
:1001C00001F060F808E0DFF828090078022803D180
:1001D000DFF8280901F056F821E0DFF8100901F0F6
:1001E00051F8DFF80C090078012804D1DFF8040980
:1001F00001F048F812E0DFF8F8080078002804D190
:10020000DFF8F40801F03EF808E0DFF8E4080078D1
:10021000022803D1DFF8E40801F034F8FFE7DFF843
:1002200084090078002804D1DFF87C0901F02AF85D
:100230001CE0DFF870090078012804D1DFF8AC0970
:1002400001F020F812E0DFF85C090078022804D100
:10025000DFF89C0901F016F808E0DFF8480900789B
:10026000032803D1DFF88C0901F00CF8DFF88809C6
:100270000078002804D1DFF8840901F003F83FE09A
:10028000DFF874090078012804D1DFF8740900F060
:10029000F9FF35E0DFF860090078022804D1DFF8C3
:1002A000640900F0EFFF2BE0DFF84C090078032829
:1002B00004D1DFF8540900F0E5FF21E0DFF8380948
:1002C0000078042804D1DFF8440900F0DBFF17E0D0
:1002D000DFF824090078052804D1DFF8340900F09C
:1002E000D1FF0DE0DFF810090078062804D1DFF80F
:1002F000F00900F0C7FF03E0DFF8540C00F0C2FF84
:1003000031BD38B504000D00686801F075F90100D1
:10031000DFF8D00900F0B6FF686801F06DF9DFF88A
:10032000C8190860DFF8C009006801F093F9DFF828
:10033000241C086001F0A0F931BD38B504000D009F
:1003400001F0CDF931BD38B504000D00686801F049
:1003500053F9002804D1DFF8940900F093FF12E06C
:10036000686801F049F9012804D1DFF8840900F038
:1003700089FF08E0686801F03FF9022803D1DFF83F
:10038000D80900F07FFF686801F036F9DFF87014D3
:100390000870DFF86C04007801F018FADFF8B41B7D
:1003A000486001F069F931BD38B504000D00686896
:1003B00001F022F9002804D1DFF8C80900F062FF3B
:1003C0001CE0686801F018F9012804D1DFF8B809C9
:1003D00000F058FF12E0686801F00EF9022804D11D
:1003E000DFF8A80900F04EFF08E0686801F004F9A2
:1003F000032803D1DFF8980900F044FF686801F092
:10040000FBF8DFF8A0170870DFF89807007801F014
:10041000DDF9DFF8401B886001F02EF931BD38B5F9
:1004200004000D00686801F0E7F8002804D1DFF847
:10043000CC0900F027FF3FE0686801F0DDF80128F3
:1004400004D1DFF8BC0900F01DFF35E0686801F059
:10045000D3F8022804D1DFF8AC0900F013FF2BE039
:10046000686801F0C9F8032804D1DFF89C0900F09E
:1004700009FF21E0686801F0BFF8042804D1DFF823
:100480008C0900F0FFFE17E0686801F0B5F8052858
:1004900004D1DFF87C0900F0F5FE0DE0686801F09A
:1004A000ABF8062804D1DFF86C0900F0EBFE03E09E
:1004B000DFF8640900F0E6FE686801F09DF8DFF8F7
:1004C00038170870DFF83007007801F07FF9DFF89F
:1004D000841AC86001F0D0F831BD38B504000D00B1
:1004E000C7480078002807D1686801F089FB01F04F
:1004F000AFFB01F0E1FB06E0686801F081FB01F071
:10050000A7FB01F04FFD686801F07AFB02000B00C9
:10051000DFF8AC0A00F0B6FE31BD38B504000D00BE
:10052000686801F06DFB02000B00DFF8E80900F0DD
:10053000A9FE686801F064FB01F08AFBDFF8841A09
:10054000086031BD38B504000D00686801F058FB43
:1005500002000B00DFF8C00900F094FE686801F0AB
:100560004FFB01F075FBDFF8601A086031BD38B54C
:1005700004000D00DFF8E00901F099FF686801F060
:100580003FFB02000B00DFF8D40900F07BFE686837
:1005900001F036FB01F05CFBDFF8301A086031BD7A
:1005A0002DE9F84384B081468846D8F80C0001F064
:1005B00027FB06000F00D8F8080001F021FB04001B
:1005C0000D00D8F8040001F01BFBCDE90267CDE96E
:1005D000004502000B00DFF8F80900F053FED8F8E0
:1005E000040001F00DFB01F033FBDFF8E8190860AF
:1005F000D8F8080001F004FB01F02AFBDFF8D41959
:100600008860D8F80C0001F0FBFA01F021FBDFF85C
:10061000C4194860DFF8BC090068DFF838190861C0
:10062000DFF8B0098068DFF82C194861DFF8A40909
:100630004068DFF82019886101F01EF805B0BDE8B8
:10064000F0832DE9F84384B081468846D8F80C0041
:1006500001F0D6FA06000F00D8F8080001F0D0FA31
:1006600004000D00D8F8040001F0CAFACDE90267D1
:10067000CDE9004502000B00DFF85C0900F002FE46
:10068000D8F8040001F0BCFA01F0E2FADFF84C19E6
:100690000860D8F8080001F0B3FA01F0D9FADFF8E1
:1006A0003C198860D8F80C0001F0AAFA01F0D0FAE1
:1006B000DFF828194860DFF824090068DFF894188B
:1006C000C861DFF818098068DFF888180862DFF869
:1006D0000C094068DFF87C18486200F0CDFF05B0D7
:1006E000BDE8F0832DE9F84384B081468846D8F808
:1006F0000C0001F085FA06000F00D8F8080001F0A0
:100700007FFA04000D00D8F8040001F079FACDE971
:100710000267CDE9004502000B00DFF8C40800F0D5
:10072000B1FDD8F8040001F06BFA01F091FADFF89E
:1007300028180860D8F8080001F062FA01F088FA79
:10074000DFF814188860D8F80C0001F059FA01F0AD
:100750007FFADFF804184860DFF8FC070068DFF86C
:10076000F4178862DFF8F0078068DFF8E817C862DE
:10077000DFF8E4074068DFF8DC17086300F07CFF6F
:1007800005B0BDE8F08338B504000D00686800F0DE
:1007900033FFDFF85018086031BD38B504000D0094
:1007A00014A1686801F03CFF002807D0DFF82C0393
:1007B000DFF83418102201F05DFF19E00EA168681F
:1007C00001F02EFF002807D0DFF81003DFF81C1817
:1007D000102201F04FFF0BE008A1686801F020FF34
:1007E000002805D0BD48DFF80818102201F042FFAC
:1007F00031BD0000616200006263000061630000BF
:100800005D0C002094B1000838B504000D00DFF83D
:10081000E4070078002803D002283CD020D356E01B
:10082000DFF8D40700F02EFDAC480078002807D18F
:10083000AA484078012803D1A94800F023FD0EE022
:10084000A6480078012807D1A4484078022803D19F
:10085000A44800F017FD02E0A34800F013FD36E0C5
:10086000A24800F00FFDA2480078012803D1A1485A
:1008700000F008FD0EE09E480078002803D19E4855
:1008800000F000FD06E09A480078022802D19B485B
:1008900000F0F8FC1BE0DFF8640700F0F3FC94487C
:1008A0000078012803D1934800F0ECFC0EE090485A
:1008B0000078002803D1904800F0E4FC06E08C4862
:1008C0000078022802D18D4800F0DCFCFFE7B54833
:1008D0000078002803D1B44800F0D4FC16E0B148F9
:1008E0000078012803D1C14800F0CCFC0EE0AD48EF
:1008F0000078022803D1BE4800F0C4FC06E0A948F5
:100900000078032802D1BB4800F0BCFCBA4800784C
:10091000002803D1B94800F0B5FC33E0B6480078B0
:10092000012803D1B64800F0ADFC2BE0B2480078B6
:10093000022803D1B34800F0A5FC23E0AE480078BC
:10094000032803D1B04800F09DFC1BE0AA480078C2
:10095000042803D1AD4800F095FC13E0A6480078C8
:10096000052803D1AA4800F08DFC0BE0A2480078CE
:10097000062803D1DA4800F085FC03E0DFF8D00553
:1009800000F080FCD8480168DFF8740600F07AFCBB
:10099000DFF860060178DFF86C0600F073FC96481B
:1009A0000178DFF8640600F06DFC7E480178DFF81E
:1009B0005C0600F067FCDFF80C06006801F0DAFE68
:1009C00002000B00DFF8480600F05CFCDFF844068C
:1009D000006801F0CFFE02000B00DFF83C0600F0DB
:1009E00051FCDFF8E405006801F0C4FE02000B00D2
:1009F000DFF8280600F046FCDFF82406006801F066
:100A0000B9FE02000B00DFF81C0600F03BFCDFF82B
:100A1000BC05006801F0AEFE02000B00DFF808061E
:100A200000F030FCDFF80406006801F0A3FE0200CD
:100A30000B00DFF8FC0500F025FCDFF8F805016885
:100A4000DFF8F40500F01EFCDFF8F0050168DFF8C0
:100A5000F00500F017FCDFF8EC050168DFF8E805A9
:100A600000F010FCDFF8E4050168DFF8E40500F0B1
:100A700009FCDFF8E005006801F07CFE02000B00D5
:100A8000DFF8D40500F0FEFBDFF8D005006801F0C8
:100A900071FE02000B00DFF8C80500F0F3FBDFF881
:100AA000C405006801F066FE02000B00DFF8B8051F
:100AB00000F0E8FBDFF8B405D0E90023DFF8B0056B
:100AC00000F0E0FBDFF8AC05006801F053FE020027
:100AD0000B00DFF8A40500F0D5FB31BD480B00206A
:100AE000A4B10008B4B10008C4B1000844AF0008C4
:100AF0005B0C002058AF00086CAF000888AD000800
:100B0000F8B504000D0000270A2F11D26968DFF83C
:100B10006C0550F8370001F083FD002806D0DFF89F
:100B20005C0500EBC7004068060001E07F1CEBE7B6
:100B300093A1A86801F074FD00280AD0E86800F0CD
:100B40005BFD307032786968DFF8340500F09AFB9D
:100B500027E0A7A1A86801F063FD00280BD0E86892
:100B600000F04AFD3080B6F900206968DFF8100512
:100B700000F088FB15E09FA1A86801F051FD002856
:100B80000FD0E86801F03CF801F062F8306030689E
:100B900001F0F0FD02000B006968DFF8E80400F0E6
:100BA00071FBF1BD28140020A0AD0008F8B50400C9
:100BB0000D000821DFF8D00401F026FF0600102107
:100BC000DFF8C40401F020FF07002021DFF8B8049B
:100BD00001F01AFFF6B23300FFB23A00C0B20100D2
:100BE000DFF8A80400F04EFBF1BD0000B8AD00082E
:100BF00080AF000874AC00082A140020D0AD0008B3
:100C000090AC0008E8AD0008E4AA0008ACAC00080D
:100C100010AA0008F8B504000D000027E86800F0ED
:100C2000EBFC060074A1A86801F0FAFC00282BD0A8
:100C300068680078612804D021D3632815D00AD3CE
:100C40001DE0322000FB06F000F004FD0100002052
:100C500001F043FA3BE0322000FB06F000F0FAFC22
:100C60000100012001F039FA31E0322000FB06F0EA
:100C700000F0F0FC0100022001F02FFA27E0DFF87D
:100C8000100400F0FFFA29E068680078612804D0B9
:100C900018D363280FD007D314E030000100C9B285
:100CA000002001F0F5F912E030000100C9B2012086
:100CB00001F0EEF90BE030000100C9B2022001F0B2
:100CC000E7F904E0DFF8C80300F0DCFA06E03300DF
:100CD000AA686968DFF8BC0300F0D4FAF1BD00002F
:100CE00004AB000894AF0008E4130020C8AC00086F
:100CF00024AB000838B504000D00686800786E2841
:100D000008D10120DFF890130870DFF8900300F09D
:100D1000B9FA1AE0DFF88813686801F081FC00284E
:100D200004D00020DFF8701308700EE0DFF87413B1
:100D3000686801F075FC002807D001F039FA02203C
:100D4000D5490870D84800F09DFA68680178D748FE
:100D500000F098FA31BD000070A9000838B5040011
:100D60000D000120CC490870686800F045FCD049AE
:100D70000880CF48B0F90010CE4800F083FA31BDAA
:100D80007538000044AB000864AB0008E4AC000810
:100D900034AA000838B588B004000D0004A8C6497C
:100DA000102201F067FC6846C449102201F062FC81
:100DB00068680590A868019001F0D9F904A9042099
:100DC000FFF728FF69460420FFF724FFE86800F0DA
:100DD00013FC01F06FFE01F0CAF9E86800F010FFA3
:100DE00002000B00B64800F04DFA09B030BD00001B
:100DF000696E7400660000006800000000AD000825
:100E000084AB00081CAD000858AA0008A4AB000879
:100E100098A90008C0A9000858A80008F8B504005F
:100E20000D0068680678A86807783000C0B26128AD
:100E300010D13800C0B2622803D1A249A24801F003
:100E40000CF93800C0B263282DD19E499F4801F0AB
:100E500004F928E03000C0B2622810D13800C0B2D6
:100E6000612803D197499A4801F0F7F83800C0B2D9
:100E7000632818D19349974801F0EFF813E0300048
:100E8000C0B263280FD13800C0B2612803D18D49A8
:100E9000914801F0E2F83800C0B2622803D18949D4
:100EA0008E4801F0DAF8E86800F0A6FB01F002FED7
:100EB00001F05DF9F1BD38B504000D0001F0C0F995
:100EC00031BD38B504000D0001F0ABF931BD38B5C6
:100ED00004000D0001F0A2FE80B20100804800F085
:100EE000D1F931BD70B504000D00686800F084FBD5
:100EF00001007C4800F0C6F9686800F07DFB80B214
:100F000001F09DFE0600310089B2774800F0BAF981
:100F100070BD0000A8AF0008BCAF000838B50400E1
:100F20000D00686800F06CFE504AC2E900014F48AD
:100F3000D0E900234E4800F0A5F94C4AD2E900015F
:100F400000F086FE0349486300F096FB31BD0000C7
:100F500048A900084C120020B80B0020D0AF0008B0
:100F600038B504000D005FF07E50604948605FF0C6
:100F70007E505E49886000205C49C86000205B4963
:100F800008610020594948610020584988610020C3
:100F90005649C861002055490862002053494862FB
:100FA00000205249886200205049C86200204F4901
:100FB00008634F484D49486300F05EFB31BD0000B7
:100FC00000AE0008FC130020EC130020F4130020F6
:100FD000C4AB0008780B002038AD0008980B002047
:100FE000E4AB000810140020180B0020280B002090
:100FF000380B00205D0C002094B1000804AC000800
:1010000030B30008E4AF000818AE0008D4B10008FF
:10101000F8AF0008001400200CB0000830AE000843
:10102000F013002020B0000854AD0008F813002091
:1010300048AE000834000040E4B100083800004029
:10104000F4B100083C00004004B20008240800404D
:1010500014B20008BC13002024B2000814140020AD
:1010600034B00008E8130020F0B2000800000020AF
:1010700048B000080C14002060AE0008C40A00202C
:101080005CB0000870B000080008014040A70008EC
:1010900034B2000878AE00085B0C002084B0000871
:1010A00038B3000840B300087CAA000898B00008D4
:1010B000580C0020ACB0000864B2000874B20008FC
:1010C00044B2000800004842080000201000002040
:1010D0002000002018000020280000203000002000
:1010E00054B20008C0B0000890AE00084C120020B6
:1010F0000050C34780B5DFF88C03DFF88C1308601D
:101100005FF4E130DFF8801348600020DFF87813E7
:1011100088600020DFF87013C8600020DFF86813D3
:1011200008610C20DFF8601348610020DFF85813D5
:1011300088610020DFF85013C861DFF84C0301F02C
:10114000CBFD002804D04F21DFF8400302F06EFCF5
:1011500001BD18B585B004002068DFF82813884267
:1011600040F08E80DFF82803006850F48040DFF8FC
:1011700020130860DFF81803006810F48040009026
:1011800000984FF400700190022002900320049018
:1011900001A9DFF8000301F011FB4FF4806001901A
:1011A000002002900020039001A9DFF8E80201F07E
:1011B00005FBDFF8E402DFF8E41208600020DFF846
:1011C000DC1248600020DFF8D41288608020DFF84D
:1011D000CC12C8600020DFF8C41208610020DFF8DC
:1011E000BC1248610020DFF8B41288610020DFF8EB
:1011F000AC12C861DFF8A40202F068FC002804D039
:101200007A21DFF8880202F011FCDFF890026063B7
:10121000DFF888024462DFF88802DFF8881208608D
:101220001020DFF8801248600020DFF87812886014
:101230008020DFF87012C8600020DFF868120861B3
:101240000020DFF8601248610020964988614FF461
:1012500040509449C861934802F038FC002803D0FC
:101260008A218A4802F0E2FB8E4820638D4844625E
:1012700085480068C06850F0100083490968C8605C
:1012800006B010BD0EB478B5040001208649086090
:1012900005AE330022006521844802F0ADFF050051
:1012A0004FF47A732800020092B28049764801F028
:1012B0004EFD00207C49086071BC5DF810FB2DE9F3
:1012C000FC41040020686F4988422BD10020009027
:1012D00020680068009020684068009000982068AE
:1012E0000568206847686D4800684668664801F0F0
:1012F0007DFE6F496F4802F09DFF6E480078002820
:1013000002D001206C49086062250027DFF8A08127
:101310003A002900404602F0B3FF632264495A486C
:1013200001F009FEBDE8F38138B5040020680568C6
:1013300020680068C00705D5206840687FF001007C
:101340002168086020680068800705D5206840682B
:101350007FF002002168086020680068400705D51A
:10136000206840687FF004002168086020680068F9
:10137000000705D52068C0687FF008002168086074
:1013800001224E49404801F052FD632248493E483F
:1013900001F0D1FD31BD80B5632245493A4801F0E5
:1013A000CAFD01BDF8B54448006800281CD0444A75
:1013B0006946404801F0A5F805004149009801F050
:1013C000CDF80400002C04D53D4801683D48FFF7E6
:1013D00059FF62250026374F32002900380002F0FD
:1013E0004FFF002034490860F1BD2DE9FF4F81B067
:1013F0002D480068012840D001223049224801F0E0
:1014000016FD10203049887006202F49C8700D2025
:101410002D4908750A202C4948750420009001AC1C
:101420002A4D009A2100280001F014F9042502AE8B
:10143000274F2A003100380001F00CF904270DF184
:101440000C08DFF890903A004146484601F002F956
:101450005FF004090DF1100ADFF87CB04A465146EE
:10146000584601F0F7F816221749074801F018FD11
:10147000002802D01948FFF705FF05B0BDE8F08F3E
:1014800000000000003801400C12002018A90008DC
:10149000181002400008014058000240841000204B
:1014A00044000240C8100020E0130020B80E0020C5
:1014B000200F0020840F0020DC13002029140020BE
:1014C000B412002060B10008600B0020640B002003
:1014D000680B00206C0B0020700B0020C4B20008C9
:1014E0002DE9FC4F83B00E4617460BB100221A605F
:1014F0008046444600E0641C207802F0F4FE002898
:10150000F9D120782D2816BF2B2814F801BB4FF0F5
:101510002B0B002F019603D4012F01D0252F04DBC4
:10152000002E47D0C6F8008044E0002F0ADD102FBF
:1015300004BF2078302802BF617841F0200178296B
:101540000ED10AE02078302818BF0A2708D1607829
:1015500040F02000782802D11027A41C00E00827C2
:10156000029400E0641C20783028FBD04FF0000982
:1015700024A02646CA468DF8000007E09DF80050DA
:10158000451BCA46EDB207FB0959641C207802F0DE
:10159000B4FE00BF1BA301463A46184602F0C6FE41
:1015A0000028EBD10299A142484605D1019808B123
:1015B000C0F8008000201CE01CA1A61BC95D761AA3
:1015C000002E0FD405DC451B03D3B5FBF7F15145C5
:1015D00008D0AFF30080049808B1012101604FF0FA
:1015E000FF3003E0BBF12D0F08BF4042019901B16C
:1015F0000C6005B0BDE8F08FFFE700230A22002150
:101600006EE70000303132333435363738396162B5
:10161000636465666768696A6B6C6D6E6F70717222
:10162000737475767778797A0000000000002115D0
:10163000110E0D0C0B0B0A0A090909090908080803
:101640000808080807070707070707070707070726
:1016500007000000C2175040801AB0FA80F10AD08B
:101660008840D1F19D01D20742EAC151020672F1D0
:10167000004241EB1020704778B585B002F0E0FEE3
:10168000002001904448039001200490694601A87D
:1016900002F070FF002805D04048FFF7F3FD02F08C
:1016A000E2FE1AE00E250026AE4211DA3C4850F860
:1016B0002600040022000023374911EB8601022096
:1016C00002F060FE31003748FFF7DCFD761CEBE7E7
:1016D00002F0C9FE3448FFF7D5FD06B070BD38B53D
:1016E0000E240025A54213DA2B4810EB8500006874
:1016F0002B4941F825002A4850F8250001F03AF816
:1017000002000B0029002948FFF7BCFD6D1CE9E72A
:1017100020A0FFF7B7FD2248006802F0B7FF244978
:1017200008601F48406802F0B1FF224908701C4859
:10173000806802F0ABFF20490870194800691F4912
:101740000860174840691D498860154880691B4931
:1017500048601348C0691A4908601148006A18496E
:1017600088600F48406A164948600D48806A1549EC
:1017700008600B48C06A134988600948006B11492A
:1017800048600748406B00F0F5FF0F4AC2E90001CE
:1017900031BD00000D0A000000000208D4B00008AE
:1017A0004C120020E8B00008FCB20008A8AE000807
:1017B000E41300205D0C002028140020780B00208A
:1017C000980B0020B80B00200000002000280AD051
:1017D000B0FA80F18840D1F19D01C905020672F18D
:1017E000004241EB102070477CB51D4621F00043BC
:1017F0001446B3F5801F20F0000209D20026B34240
:1018000008BFB24200960ED06A4602F061FF0AE0BD
:10181000DFF8C06306EB13520092DFF8BC33DFF849
:10182000BC231140194322462B4602F089FF0B4688
:101830005A00009C520DA4183AB1002C05DD40F26C
:10184000FF72944200DB4EE048E021F000430024A8
:1018500020F00002A3420EBFA242009A03F042F819
:101860007CBD7CB51D4621F000431446B3F5801FB6
:1018700020F0000209D20026B34208BFB24200960F
:101880000ED06A4602F024FF0AE0DFF8486306EB58
:1018900013520092DFF84033DFF840231140194320
:1018A00022462B4603F0BCF80B465A00009C520D12
:1018B000A4183AB1002C05DD40F2FF72944200DB1F
:1018C00011E00BE021F00043002420F00002A342CD
:1018D0000EBFA242009A03F005F87CBD6FF31E53C1
:1018E00043EA04517CBDBE4B01F0004040EA0301D5
:1018F00000207CBD2DE9F84C002A82468B461F460D
:1019000000F0BA802BF0004500202AF00004854248
:1019100008BF844200F0B0804FEA4B004015401CE5
:1019200008BF5FEA0B3100F0A7800020002AAD4914
:1019300011D55242B4A608251446002C18BF002D1C
:101940004FD0E20744BFD6E9002302F0F9FE640855
:1019500008366D1EF1E777DDABA608241546EA07C9
:1019600044BFD6E9002302F0EBFE6D100836641E7A
:10197000002D01DD002CF2D102460B46504659469F
:10198000FFF732FF8B4682462BF0004300202AF0FF
:101990000002834208BF82422C4655D04FEA4B00DA
:1019A0004015401C08BF5FEA0B314DD0002C4BDDC9
:1019B000504659468C4A8D4BFFF716FF21F00045E3
:1019C000002220F00003954208BF93423AD04A001B
:1019D0005215521C01D10B0334D0641E002CE9DCDB
:1019E00030E002460B4650465946FFF73AFF8B4619
:1019F00082462BF0004300202AF00002834208BFF9
:101A0000824221D04FEA4B004015401C08BF5FEADC
:101A10000B3119D0C4B150465946754A754BFFF782
:101A2000E3FE21F00045002220F00003954208BFAC
:101A3000934207D04A005215521C01D10B0301D02A
:101A4000641EEAD182468B462BF0004300202AF028
:101A50000002834208BF824207D04FEA4B00401584
:101A6000401C08BF5FEA0B3106D1AFF300801FB105
:101A7000386840F00100386050465946BDE8F48CA3
:101A80002DE9F94987B01F001CBF0020386004927F
:101A90000C46079D07A803F0E6F8C11020F00800E7
:101AA00001F00101012805912FD10220009001AB26
:101AB00007992246284603F067F9040002D1002066
:101AC00000211DE0029803F043FA022C18DB0DF10F
:101AD0000C08661EDFF820B102460B46002059466E
:101AE00002F02EFE044658F8040B0D4603F030FABF
:101AF00022462B4603F03EFA761E02460B46EDD1F7
:101B0000049A019C3B46A2184DE002284ED1009059
:101B100001AB07992246284603F0E8FA040002D1F7
:101B20000020002119E0029803F012FA022C14DBC5
:101B30000DF10C08661EDFF8C4B000225B4602F00F
:101B4000FFFD044658F8040B0D4603F001FA224647
:101B50002B4603F00FFA761EEFD1019B0C46620074
:101B6000520D03EB020511D0002D0FDD40F2FF7284
:101B7000954206DB1A4B01F0004040EA03010020C9
:101B80000FE06FF31E5444EA05510AE021F00045CE
:101B9000002620F00004B5420EBFB4421A4602F0FF
:101BA000A1FE049A3B46FFF7A5FE0CE0032802D1F4
:101BB00000200B4907E0042807BF4FF0FF306FF00B
:101BC000004100200021059A0AB181F0004109B0CE
:101BD000BDE8F08902FCFFFF0000E03FFFFF0F803F
:101BE0000000F07F0000F03F3CBF737FDD4F1575B4
:101BF000436FAC642806C80A65CDCD410000B041F2
:101C00000023002200213BE70000000000002440E8
:101C10000000000000005940000000000088C340A0
:101C20000000000084D797410080E03779C341432A
:101C3000176E05B5B5B89346F5F93FE9034F384D32
:101C4000321D30F94877825A3CBF737FDD4F1575DE
:101C500001F000428B1AA3F16051B1F5801F0ADB3D
:101C6000B1F17F6F1FD242EAC102C10071F10041A0
:101C700042EB507070470B15C3F10903212B10D2B2
:101C8000890241EA905180020128494141F0004116
:101C900021FA03F0C3F12003994071F10041504152
:101CA0007047100070476FF0000013EB103F5CBFEF
:101CB000000E42EAC050704710B50400A44804600A
:101CC0002000002103F020FB04D82100A14800F0EF
:101CD000C4F905E0210091F000419F4800F0BDF9F2
:101CE00010BD10B504009D480078002803D12000E5
:101CF000FFF7E2FF02E0200000F054F910BDF8B554
:101D000000240025002696480078400740F1C18055
:101D1000944800689449096803F008FB00F02AFD24
:101D200031F000410022914B03F040FB03D2002030
:101D30008F4908600AE18C4802688A4801688D482A
:101D400000F066FB060086480078800766D58A4862
:101D500006608948006800F00DFD02000B00874F07
:101D6000D7E9000103F022FB07D2844AD2E900013F
:101D7000FFF76EFF8049086014E07F48006800F0BC
:101D8000F9FC7E4FD7E9002393F0004303F00EFBEC
:101D900008D27A4AD2E9000191F00041FFF758FFDA
:101DA000754908607648026873480168754800F014
:101DB0002FFB05006A480078C0071CD572480560F3
:101DC0007248026870480168714800F021FB040005
:101DD0002000704903F098FA02D86F48040006E02A
:101DE00020006E4903F0FAFA01D26C48040020008A
:101DF000FFF777FFAAE02800664903F085FA02D8CA
:101E00006548050006E02800644903F0E7FA01D2BE
:101E1000624805002800FFF764FF97E0504800780B
:101E2000C00723D558480660574800685C4903F04E
:101E30006BFA04D85FF08040534908600AE05248CA
:101E400000685FF0404103F0C9FA03D25FF0404000
:101E50004D4908604D4802684B4801684C4800F005
:101E6000D7FA04002000FFF73CFF6FE0300049493B
:101E700003F04AFA02D84848060006E03000474915
:101E800003F0ACFA01D2454806003000FFF729FF05
:101E90005CE033480078800733D53948026836481B
:101EA0000168384800F0B4FA05002D480078C007F2
:101EB00023D53548056034480068394903F024FAD1
:101EC00004D85FF08040304908600AE02E4800687E
:101ED0005FF0404103F082FA03D25FF040402A49AC
:101EE00008602A48026828480168294800F090FAEA
:101EF00004002000FFF7F5FE28E02800FFF7F1FEC0
:101F000024E017480078C00720D51F4800682449FE
:101F100003F0FAF904D85FF080401B4908600AE03A
:101F2000194800685FF0404103F058FA03D25FF0AF
:101F30004040154908601548026813480168144874
:101F400000F066FA04002000FFF7CBFEF1BD0000B0
:101F5000E8130020480B0020500B00205D0C0020EF
:101F60002A140020F4130020F8130020000034404D
:101F700014140020B80B0020EC13002000000020F7
:101F8000F0130020980B0020FC1300200014002008
:101F9000780B00200100BE420000BE420000BEC21D
:101FA0000100004010B50400DFF8E0030460DFF832
:101FB000E0030078012810D12000002103F00EFA80
:101FC00005D2DFF8D003DFF8D013086014E0DFF8A3
:101FD000CC03DFF8C41308600EE02000002103F0FA
:101FE000FDF904D20120DFF8B813087004E05FF0B7
:101FF000FF30DFF8AC130870200000F0BBFB31F0BD
:102000000041FFF725FEDFF89C13086010BD10B4F7
:1020100000200021062919DADFF88C23525C100019
:10202000DFF8882352F82120DFF870330400E4B28F
:1020300043F82420DFF8782352F82120DFF85433C6
:102040000400E4B243F82420491CE3E7DFF84C1312
:10205000DFF84423116010BC704738B504000D0050
:1020600000F085F80020DFF84C130860012160784B
:1020700000F00EF82900207800F02FF8DFF81003A8
:102080000078022803D16068DFF82C13086031BDA6
:1020900038B504000D002000C0B2002803D002288B
:1020A00013D009D318E02A00D2B24FF40041DFF870
:1020B0000C0300F0B4FC0FE02A00D2B24FF48041D0
:1020C000DFF8F80200F0ABFC06E02A00D2B24FF4D1
:1020D0000051BA4800F0A3FC31BD38B504000D0032
:1020E0002800002103F07AF902D295F00045FFE7BD
:1020F0002800B34903F008F901D8B24DFFE72000EA
:10210000C0B2002803D0022821D010D32EE0AE4860
:102110000068FFF75BFB290003F072F9AB4903F09D
:10212000DBF902F0B3FA80B2A94908601EE0A648C4
:102130000068FFF74BFB290003F062F9A34903F0A5
:10214000CBF902F0A3FA80B2A24908600EE09E48E3
:102150000068FFF73BFB290003F052F99B4903F0AD
:10216000BBF902F093FA80B29B49086031BD80B59B
:1021700000210020FFF78CFF00210120FFF788FFDE
:1021800000210220FFF784FF00210020FFF7A5FFB8
:1021900000210120FFF7A1FF00210220FFF79DFF92
:1021A00001BD8E48006810F03800C0B2C00870470A
:1021B000F8B50020002700240A2C1DDA8849894838
:1021C000FFF74BFF0A2000F075FCFFF7D0FFFFF789
:1021D000E8FF050028003100C0B2C9B2884200D132
:1021E0007F1C2E00032F05DB3A0021007E48FFF7FD
:1021F00049F801E0641CDFE7F1BD10B500240B2CA9
:102200000EDA774969484069FFF727FF052000F09B
:1022100051FCFFF7ACFF052000F04CFC641CEEE71E
:1022200010BD80B5FFF7E9FF4FF47A7000F042FC73
:1022300000F0F4FC80B201006C48FFF723F801BD08
:102240002DE9F0415FF0000800270024FFF7D5FFDB
:102250004FF47A7000F02EFC00F0E0FC0500002640
:10226000032E22DA5FF00008B8F1060F1BDA5C4992
:102270004E4850F82800FFF7F0FE052000F01AFC49
:10228000FFF775FF00F0CAFC0700390089B228008B
:1022900080B2091A012901DB641C00E0641E3D00C4
:1022A00018F10108E0E7761CDAE7012C03DB3F4870
:1022B0004F49086002E04F484D49086021004E48F0
:1022C000FEF7E0FFBDE8F0812DE9F04104000021B8
:1022D0002600B6B200274948B0F90050304890F9BE
:1022E00000204FF4C3704243022092FBF0F04519E6
:1022F000AE4201D216F58046294890F90000012827
:102300000BD1701BFFF762FA3D4903F0E5F802F0CC
:10231000BDF9804618F101080AE0701BFFF756FA74
:10232000374903F0D9F802F0B1F98046B8F1030853
:10233000B8F1000F01D518F10608062098FBF0F15E
:1023400000FB11882F48007801281BD12E48006817
:10235000804517D02C48C0F80080124800682B49EF
:10236000096803F037F903D00E4800682749086070
:10237000264801681E480068234A126850F8220067
:10238000FFF76BFEBDE8F08100000000E8130020BD
:102390005D0C00206C130020B413002050130020AB
:1023A0005A0C0020141400206C000020380000207B
:1023B00070AD0008C4130020B013002000100140CD
:1023C0000100BE420000BE422C0000400000C84296
:1023D0003C00004038000040340000400808014044
:1023E0000000204130000020C4A700081CAF0008F6
:1023F000680000205000002074B10008580C002034
:102400000000C3435B0C0020C0130020BC1300205D
:102410002DE9F84304000D0016002800310002F0F9
:1024200085FF07003800216902F080FF010029487C
:1024300002F0E6FF8046A169274802F0E1FF41462D
:1024400003F0D6F880462761E069390002F0D8FF32
:10245000E16803F0CDF8E0606069E16802F0BEFF7A
:1024600002D26069E0600AE0E068616991F00041D1
:1024700002F0B4FF03D2606990F00040E060C4F85D
:1024800018802068390002F0BBFF81466068414631
:1024900002F0B6FF494603F0ABF88146E168A06858
:1024A00002F0AEFF494603F0A3F8BDE8F283002135
:1024B000C1600021016100218161704780B507483A
:1024C000FFF7F5FF0648FFF7F2FF0648FFF7EFFFBB
:1024D00001BD0000A69BC43EA4701D3F780B0020E8
:1024E000980B0020B80B002010B500240C2C07DA44
:1024F000152003F0EFF8434941F82400641CF5E788
:1025000010BDF0B40300002700240026DD5D7F1C11
:102510002800C0B20D2817D02800C0B220280BD147
:10252000002052F826C00CF80400761C002004009D
:10253000D85D05007F1CEBE752F826000555641CAA
:10254000D85D05007F1CE3E7002052F826C00CF898
:102550000400761C0E600020F0BC70472DE9F047A7
:1025600004000D0000201E260027B74224D229684F
:102570002548582202FB07F2104403F0CDF800284A
:1025800018D12248FEF77EFE290020001E4A58235B
:1025900003FB07F31A44526D90475FF081085FF028
:1025A0000009DFF86CA04A464146504601F068FE3B
:1025B000002003E07F1CD8E77FF00100BDE8F08732
:1025C000F8B504000D001E26022C03DB1148FEF7AF
:1025D00059FE16E00027B74213D20B48582101FBE1
:1025E00007F101440C48FEF74DFE0748582101FB56
:1025F00007F1084410F114010848FEF743FE7F1C60
:10260000E9E7F1BDB412002074000020ECA6000838
:10261000F00D002058AC0008E4B2000884B10008B6
:1026200010B402000023D05CCC5CA04207D1D05C87
:10263000002804D0C85C002801D05B1CF3E7D05C04
:10264000002804D1C85C002801D1012000E000204E
:1026500010BC704762B38B0708D0521E11F8013BC3
:1026600000F8013B00F024808B07F6D1830740F08F
:10267000208000BF103A07D330B4B1E83810103AC8
:10268000A0E83810F9D230BC530724BFB1E80810D5
:10269000A0E8081044BF51F8043B40F8043BD207BF
:1026A00024BF31F8022B20F8022B44BF0B780370B3
:1026B0007047121F17D35B0009D151F8043B20F873
:1026C000023B1B0C121F20F8023BF6D20BE051F824
:1026D000043B00F8013B1B0A20F8023B1B0C121FB5
:1026E00000F8013BF3D238BF121D521E24BF11F86F
:1026F000013B00F8013BF8D87047F0B4024610687F
:1027000095681318506803EB5004C00721D54D4459
:102710001FE0F0BC02F10C00704713F8017B05F8D4
:10272000017B491EF9D1A0B1B60813F8011B06F0D0
:102730000306032E08BF13F8016B01EB0621494283
:10274000801C294405D011F8016B05F8016B401E6F
:10275000F9D1A342DDD013F8016B16F0030104BFD9
:1027600013F8011BC91C30090F28DAD113F8010B2B
:102770000F30D6E7C0F3C75181B1FF2906D0C11091
:10278000400721F0E04101F16051704741020CBF68
:1027900040F4E0016FF000410020704700F000417C
:1027A00000020AD0B0FA80FC00FA0CF001F160518E
:1027B000A1EB0C5101EBD021400570472DE9F84306
:1027C000020000240025002600275FF000085FF0CB
:1027D000000EBEF1100F80F01581012010FA0EF0EE
:1027E0000400086820400500A54240F008814868C0
:1027F000002831D0012820D0022825D003283CD041
:1028000011281DD0122823D0DFF85CC2604523D0E8
:10281000DFF858C260451FD0DFF854C260451BD0B6
:10282000DFF850C2604517D0DFF84CC2604513D0C6
:10283000DFF848C260450FD022E0C86807001FE0FB
:10284000C868001D07001BE0C8680830070017E0D3
:10285000C8680C30070013E08868002802D1042003
:10286000070009E08868012803D1082007001461E7
:1028700002E008200700546102E000200700FFE7A3
:10288000B5F5807F01D2130000E0131DB5F5807F00
:1028900002D25FEA8E0803E0BEF108085FEA88080A
:1028A000D3F800C00F2010FA08F03CEA000C17FA29
:1028B00008F050EA0C0CC3F800C04868C00040F1B2
:1028C0009E80DFF8BC01006850F00100DFF8B0C165
:1028D000CCF80000DFF8A801006810F001000090BB
:1028E0000098DFF8A001F4465FEA9C0C50F82CC079
:1028F0005FF00F091EF00300C0B2800019FA00F962
:102900003CEA090C6048824202D15FF000091FE0F6
:102910005E48824202D15FF0010919E05C488242C0
:1029200002D15FF0020913E05A48824202D15FF0FF
:1029300003090DE05848824202D15FF0040907E024
:102940005648824202D15FF0050901E05FF00609B6
:1029500066461EF00300C0B2800019FA00F959EA79
:1029600006064848F4465FEA9C0C40F82C6048682C
:10297000C00307D54A4800682843DFF824C1CCF8D3
:10298000000006E046480068A843DFF814C1CCF810
:1029900000004868800307D5424800682843DFF8F4
:1029A00004C1CCF8000006E03E480068A843DFF808
:1029B000F4C0CCF800004868C00207D53A48006867
:1029C0002843DFF8E4C0CCF8000006E03648006891
:1029D000A843DFF8D4C0CCF800004868800207D5CF
:1029E000324800682843DFF8C4C0CCF8000006E095
:1029F0002E480068A843DFF8B4C0CCF800001EF1F0
:102A0000010EE6E6BDE8F183020090680B009BB280
:102A1000184201D0012000E00020C0B2704713002E
:102A2000DBB2002B03D00B009BB2036103E00B0071
:102A30009BB21B0403617047C3680A0092B2534003
:102A4000C360704710B5040019480068210089B2BE
:102A5000084207D0200080B215490860200080B2EB
:102A600002F0EEFE10BD0000000011100000121078
:102A70000000211000002210000031100000321070
:102A8000181002400800014000080140000C0140FD
:102A9000001001400014014000180140001C0140DA
:102AA0000004014004040140080401400C040140FA
:102AB0001404014070B5040002F060FF0500260018
:102AC00016F1010F02D004480078861902F056FF73
:102AD000401BB042FAD370BD5C0C00201FB504004F
:102AE0000020ADF804000020ADF80600012101200F
:102AF00000F0D7F8ADF80400002240214548FFF768
:102B00008EFF6423012201A9434802F03DFF012208
:102B100040214048FFF783FF0121200080B200F0F0
:102B2000C0F8ADF80400002240213A48FFF777FFD3
:102B300064200090012302AA01A9374803F0B9F8E4
:102B4000012240213348FFF76AFF0022402131482B
:102B5000FFF765FF642301220DF106012E4802F004
:102B6000EBFF012240212B48FFF759FFBDF806007B
:102B700004B010BD3EB504000D000020ADF8040007
:102B80000121012000F08DF8ADF804000022402161
:102B90002048FFF744FF6423012201A91E4802F0E8
:102BA000F3FE012240211B48FFF739FF00212000DE
:102BB00080B200F076F8ADF80400002240211548FC
:102BC000FFF72DFF64200090012302AA01A91248FB
:102BD00003F06FF8012240210E48FFF720FF00228A
:102BE00040210C48FFF71BFF280080B200F069F875
:102BF000ADF80600642301220DF10601064802F03B
:102C0000C3FE012240210348FFF709FFBDF8080079
:102C10003EBD000000100140E80F002038B5002440
:102C2000002543F6FF70FFF759FF0100480402D565
:102C30004FF6FF7002E08804800C80B232BD70B5A0
:102C4000040000250026210089B20320FFF792FF2F
:102C50000100480402D54FF6FF7002E08804800CA2
:102C600080B270BD10B401000022002300200F28A4
:102C700009DA0124844023000C00A4B21C4200D0D5
:102C8000521C401CF3E7022092FBF0F400FB1420DE
:102C9000002801D1002002E05B00180080B210BCC7
:102CA000704770B504000D00002626432800C0B20E
:102CB00056EA8036300080B2FFF7D4FF304380B24E
:102CC00070BD38B5040000252543280080B2FFF709
:102CD000C9FF284380B232BD10B50400002C01D1D9
:102CE000012033E0A0690028FFD194F839000028C2
:102CF00005D1002084F838002000FEF72AFA2420AD
:102D000084F839002068C06830F400502168C86039
:102D1000200000F0BDFB2068006930F4904021687D
:102D200008612068406930F02A0021684861206805
:102D3000C06850F400502168C8600020E063202083
:102D400084F83900202084F83A00002010BD2DE9D5
:102D5000FC4705000C0016001F005FF0000A95F804
:102D60003900202860D1002C03D0300080B2002828
:102D700001D1012059E095F83800012801D1022045
:102D800053E0012085F838000020E863212085F811
:102D9000390002F0F3FD8146AE84EE84E88C002811
:102DA0002FD0E88C401EE884A868B0F5805F18D169
:102DB00000974B4600228021280000F06DFA002881
:102DC00001D0032031E0A046B8F80000C005C00DD6
:102DD000296848602869002801D1A41CDEE7641C2A
:102DE000DCE700974B4600228021280000F054FACF
:102DF000002801D0032018E0207829684860641C6E
:102E0000CCE700974B4600224021280000F044FA0E
:102E1000002801D0032008E0202085F83900002098
:102E200085F83800002000E00220BDE8F68710B4E5
:102E3000030093F83A0020282FD1002903D0100076
:102E400080B2002801D1012028E093F83800012841
:102E500001D1022022E0012083F8380099629A858E
:102E6000DA850020D863222083F83A00002083F816
:102E700038001868C06850F480701C68E0601868FA
:102E8000406950F001001C6860611868C06850F02B
:102E900020001C68E060002000E0022010BC7047A9
:102EA00073B50400150094F83900202841D1019829
:102EB000002803D0280080B2002801D1012039E089
:102EC00094F83800012801D1022033E0012084F871
:102ED000380001982062A584E5840020E063212069
:102EE00084F839000FF2C120216B88620FF2ED20C7
:102EF000216BC8620FF24930216B08630020216BFF
:102F0000486301AE2B009BB22068021D3168206B24
:102F100000F02BFE7FF0400021680860002084F85C
:102F200038002068406950F0800021684861002026
:102F300000E0022076BD73B50400150094F83A0055
:102F4000202851D10198002803D0280080B2002801
:102F500001D1012049E094F83800012801D1022074
:102F600043E0012084F838000198A062A585002084
:102F7000E063222084F83A000FF27120616B8862CE
:102F80000FF2AD20616BC8620FF2B520616B086370
:102F90000020616B486301AE2B009BB23268206851
:102FA000011D606B00F0E1FD0020009020680068CA
:102FB00000902068406800900098002084F8380055
:102FC0002068C06850F480702168C860206840693B
:102FD00050F00100216848612068406950F04000CD
:102FE00021684861002000E0022076BD70B506002F
:102FF000002031684C69E40914F0010496F8391096
:10300000212910D1002C0ED03068406930F08000AA
:1030100031684861306B002802D0306B00F0F1FD60
:10302000300000F070F930684569AD0915F0010510
:1030300096F83A00222810D1002D0ED03068406951
:1030400030F0400031684861706B002802D0706B2E
:1030500000F0D7FD300000F060F9002070BD2DE9D0
:10306000F8430600306807683068D0F80C80306894
:10307000D0F814900020002517F00F04002C08D180
:10308000B80606D55FEA886003D5300000F0A9F9DC
:1030900088E0002C74D05FEAC97002D418F4907FE5
:1030A0006ED017F00100C0B2002806D05FEAC85009
:1030B00003D5F06B50F00100F063780708D519F0E4
:1030C0000100C0B2002803D0F06B50F00200F063A2
:1030D000B80708D519F00100C0B2002803D0F06B82
:1030E00050F00400F063380708D519F00100C0B2B1
:1030F000002803D0F06B50F00800F063F06B00285C
:103100003DD0B80605D55FEA886002D5300000F0F2
:1031100068F930684069800910F001000500F06B23
:10312000000701D4002D25D0300000F0F6F83068FB
:10313000406940061AD53068406930F04000316877
:103140004861706B00280DD00FF2F110716B48636D
:10315000706B00F071FD002811D0706B716B496BC2
:1031600088470CE03000FEF7DFF808E03000FEF79B
:10317000DBF804E03000FEF7D7F80020F06311E040
:10318000380606D55FEA086003D5300000F0E2F8A3
:1031900008E0780606D55FEA486003D5300000F005
:1031A00010F9FFE7BDE8F18338B50400656A2068CF
:1031B000006880060ED40020E8842868406930F05A
:1031C0008000296848612868C06850F0400029687C
:1031D000C86002E0280002F0E5FE31BD38B5040009
:1031E000656A280002F0DFFE31BD000038B504003A
:1031F000656A20680068800616D40020E885286883
:10320000C06830F480702968C86028684069400848
:103210004000296848612868406930F0400029680A
:103220004861202085F83A00280002F0BDFE31BD3B
:1032300038B50400656A280002F0B7FE31BD000011
:10324000F8B506000020776A39684C69E40914F083
:10325000010497F83910212906D1002C04D0002050
:10326000F884380000F04FF838684569AD0915F06A
:10327000010597F83A00222806D1002D04D000203D
:10328000F885380000F049F8F86B50F01000F8634A
:103290003800FEF749F8F1BD2DE9F04105000E00B8
:1032A00090461F00069C286800683040B04201D15B
:1032B000012000E000204146C9B2884220D114F12B
:1032C000010FF0D0002C04D002F058FBC01B844248
:1032D000E9D22868C06830F4D0702968C8602868CE
:1032E00040694008400029684861202085F839007D
:1032F000202085F83A00002085F83800032000E0FF
:103300000020BDE8F0810168C96831F0C0010268A1
:10331000D160202180F8391070470168C96831F404
:1033200090710268D16001684969490849000268E2
:103330005161202180F83A107047000038B5040030
:10334000656A0020E8850020E8842800FDF7ECFF8E
:1033500031BD0000010091F8390021282FD1886883
:10336000B0F5805F11D1086A02001088C005C00D59
:103370000B6858600869002803D1086A801C08623D
:1033800009E0086A401C086205E0086A431C0B62F9
:1033900000780B685860C88C401EC88480B2002832
:1033A0000BD10868C06830F080000B68D8600868EE
:1033B000C06850F040000B68D860002000E0022098
:1033C000704710B504002068C06830F040002168E4
:1033D000C860202084F83900200002F0E3FD0020BE
:1033E00010BD38B5040094F83A0022284ED1A068E8
:1033F000B0F5805F16D1A06A05002069002808D1C9
:1034000020684068C005C00D2880A06A801CA062AA
:103410001AE02068406800F0FF002880A06A401C85
:10342000A06211E02069002806D1A06A411CA162B7
:1034300021684968017007E0A06A411CA162216807
:10344000496811F07F010170E08D401EE08580B277
:10345000002819D12068C06830F020002168C860B9
:103460002068C06830F480702168C86020684069B6
:103470004008400021684861202084F83A0020007C
:1034800002F092FD002002E0002000E0022032BDA8
:103490002DE9F843050000242868016931F4405102
:1034A000E868014328680161A968286901436869DF
:1034B00001430C432868C1685948014021432868EA
:1034C000C1602868416931F44071A86901432868E6
:1034D000416128685349884250D103F09DF88146E4
:1034E00003F09AF8804603F097F8070003F094F889
:1034F000060003F091F8192101FB09F969688900B8
:10350000B9FBF1F16422B1FBF2F2192101FB08F8D9
:1035100069688900B8FBF1F319214F436968890094
:10352000B7FBF1F16427B1FBF7F7642101FB173317
:10353000190132316423B1FBF3F313F0F00313EB01
:10354000021319214E4369688900B6FBF1F2192173
:10355000484369688900B0FBF1F06421B0FBF1F1E8
:10356000642000FB1122100132306421B0FBF1F025
:1035700010F00F00C318286883604FE003F041F893
:10358000814603F03EF8804603F03BF8070003F065
:1035900038F8060003F035F8192101FB09F96968CC
:1035A0008900B9FBF1F16422B1FBF2F2192101FBB0
:1035B00008F869688900B8FBF1F319214F4369687D
:1035C0008900B7FBF1F16427B1FBF7F7642101FB38
:1035D0001733190132316423B1FBF3F313F0F00315
:1035E00013EB021319214E4369688900B6FBF1F20F
:1035F0001921484369688900B0FBF1F06421B0FBF0
:10360000F1F1642000FB1122100132306421B0FB83
:10361000F1F010F00F00C31828688360BDE8F18353
:10362000F3E9FFFF0038014080B503F037F800F000
:103630004FF802F097F803F045F803F063F803F051
:10364000DFF903F045FA03F0E7FA03F00EFB03F0AD
:10365000A3FA03F0CDFBFDF74DFD00F08EF8DFF887
:10366000DC0303F0EBFCFDF796FE03F08EFBFEF7A8
:103670003BFFFEF7CCFCFEF732F803F0A2F8FEF7B2
:103680001DFF03F075FCDFF8B803FDF7FBFDFDF748
:1036900089FEDFF8B0030068002801D0FEF72FFB99
:1036A000DFF8A40300780228F1D1FFF7B7FADFF8BA
:1036B0009C130880DFF894030088FEF787F8DFF892
:1036C00090130860DFF884030088FEF7FDFDDEE755
:1036D00000B595B001200B905FF480300C90002075
:1036E0000D9001200F90022012905FF48030139013
:1036F0005FF4E01014900BA802F058FC002804D0EE
:10370000B921DFF8500300F091F90F20009002205A
:103710000190002002904FF48060039000200490FC
:103720000221684602F06DFE002804D0C721DFF8B0
:10373000240300F07BF9022005904FF4004007902D
:1037400005A803F0F3FC002804D0CE21DFF8040321
:1037500000F06CF902F052FF4FF47A71B0FBF1F017
:1037600003F0A3FE042003F0A6FE002200215FF078
:10377000FF3003F07EFE15B000BD80B500220121B0
:10378000092003F076FE092003F088FE00220121C3
:103790000A2003F06EFE0A2003F080FE00220121C1
:1037A000142003F066FE142003F078FE00220121AD
:1037B000172003F05EFE172003F070FE00220121A7
:1037C000252003F056FE252003F068FE002200218C
:1037D000362003F04EFE362003F060FE01BD704738
:1037E00010B5040020689C490968884240F01D819A
:1037F0009A480068401C9949086005209749096863
:10380000964A126892FBF0F200FB121000280BD1CE
:10381000642003F050FB03F015FF8A48006800287D
:1038200002D101208749086005208C4909688B4A2C
:10383000126892FBF0F200FB1210002846D1884873
:103840000068884901F060FD05D887480068401C81
:103850008549086002E000208349086082480068CA
:10386000052807DBFEF783FC0020804908608048BC
:10387000FDF708FD7F48006801280AD17B480368EE
:103880007D48C2687D48016875480068FDF7ADFD58
:103890001CE07848006802280AD17848036870481C
:1038A00002687748016877480068FDF79EFD0DE0E3
:1038B00070480068032809D171480368714802689C
:1038C0007148016862480068FDF78FFD6348006831
:1038D0004FF6FD71884202DB0020604908605A48BB
:1038E0000078002803D069480078012800D09CE0C7
:1038F0005548007801280CD165480068654901F0F9
:103900006DFD06D20020624908600020574908601A
:103910008BE05F480068002101F05CFE00F08580CC
:103920005D480068401C5C4908605B4800681028DE
:103930007BDBFEF71CFC0020574908605748FDF769
:10394000A1FC41480078012842D1554801785548EA
:10395000FDF798FC45480068FEF70CFF02000B00DD
:103960005148FDF78FFC4A480068FEF703FF02004C
:103970000B004E48FDF786FC35480068FEF7FAFE5E
:1039800002000B004A48FDF77DFC4A4801684A489E
:10399000FDF778FC3E4800683449096801F01AFEDA
:1039A00003D03B480068314908603D4802784148EF
:1039B0000068821806202D49096892FBF0F300FB8D
:1039C00013223E48006850F82200FEF746FB20E034
:1039D0001D48007802281CD12D4800682349096839
:1039E00001F0F8FD03D02A480068204908603448F7
:1039F000026830480068821806201C49096892FB5A
:103A0000F0F300FB13222F48006850F82200FEF765
:103A100024FB28480068401C2649086025480068A7
:103A2000072802DB01202349086010BD38B50400D7
:103A30000D002548FDF726FCFEE70000841200205B
:103A400008B30008CC1300205D0C002024140020D3
:103A5000F813002088A800088C110020D41300203F
:103A60000014002001008040D0130020BC1300206F
:103A700084B2000810140020780B0020FC130020F2
:103A8000EC130020F0130020F41300205B0C002046
:103A9000141400200000E040C4130020A0AA000875
:103AA00027140020C0AE000824B10008D8AE0008DA
:103AB000F0AE0008140B002038B10008B413002049
:103AC000C0130020680000204CB1000810B40100B1
:103AD0000022002901D1012045E00868DFF81833F1
:103AE00098420CD20B68DFF81403C3181420B3FB00
:103AF000F0F080000864DFF80803C8630BE00B688F
:103B0000DFF80003C3181420B3FBF0F08000086452
:103B1000DFF8F402C863022081F821000868036816
:103B20006FF30D134C6888680443C8680443086940
:103B300004434869044388690443C8690443234330
:103B400008680360002088620020C86200200863C3
:103B50000020486300208863012081F821000020B4
:103B600081F82000002010BC70472DE9F0410400CE
:103B70000D0016001F005FF0000894F820000128D7
:103B800001D102203BE0012084F8200094F82100BC
:103B900001282DD1022084F821000020A063206894
:103BA000006840084000216808603B00320029009E
:103BB000200000F00BFBE06A002806D020680068B7
:103BC00050F00E00216808600BE02068006830F0BB
:103BD0000400216808602068006850F00A0021682D
:103BE00008602068006850F001002168086004E067
:103BF000002084F82000022080464046C0B2BDE884
:103C0000F081020000201168096831F00E0113688C
:103C1000196011680968490849001368196001238F
:103C2000116C8B40D16B4B60012182F82110002177
:103C300082F82010C0B2704738B50400002594F80F
:103C40002100022804D00420A06301200500CFE059
:103C50002068006830F00E00216808602068006865
:103C600040084000216808602068DFF8A011884201
:103C700059D32068DFF89811884201D101204EE025
:103C80002068DFF89011884201D1102047E02068B9
:103C9000DFF88411884202D14FF480703FE0206841
:103CA000DFF87811884202D14FF4805037E0206865
:103CB000DFF86C11884202D15FF480302FE0206879
:103CC000DFF86011884202D15FF4801027E020689D
:103CD000DFF85411884202D15FF080701FE0206845
:103CE000DFF81411884201D1012018E02068DFF8C4
:103CF0003C11884201D1102011E02068DFF830111A
:103D0000884202D14FF4807009E02068DFF8241166
:103D1000884202D14FF4805001E05FF48030DFF838
:103D20001811086058E02068DFF8E410884201D1DB
:103D300001204EE02068DFF8DC10884201D110201D
:103D400047E02068DFF8D010884202D14FF480703D
:103D50003FE02068DFF8C410884202D14FF4805061
:103D600037E02068DFF8B810884202D15FF4803075
:103D70002FE02068DFF8AC10884202D15FF4801099
:103D800027E02068DFF8A010884202D15FF0807041
:103D90001FE02068DFF86010884201D1012018E0A0
:103DA0002068DFF88810884201D1102011E02068D7
:103DB000DFF87C10884202D14FF4807009E020685F
:103DC000DFF87010884202D14FF4805001E05FF4B8
:103DD0008030DFF8C0130860012084F82100002043
:103DE00084F82000606B002802D02000616B8847B7
:103DF0002800C0B232BD000008040240F8FFFDBF39
:103E000000000240F8FBFDBF0004024081000240B8
:103E1000080002401C000240300002404400024002
:103E2000580002406C000240800002401C04024026
:103E300030040240440402400404024070B504000F
:103E4000E06B0568206806680421206C81400D4203
:103E500000F0C080700740F1BD80206800688006D7
:103E600005D42068006830F00400216808602068EC
:103E7000DFF82413884258D32068DFF820138842E3
:103E800001D104204EE02068DFF81413884201D1EC
:103E9000402047E02068DFF80C13884202D14FF43D
:103EA00080603FE02068DFF80013884202D14FF4C1
:103EB000804037E02068DFF8F412884202D15FF4D6
:103EC00080202FE02068DFF8E812884202D15FF4FA
:103ED000800027E02068DFF8DC12884202D15FF022
:103EE00080601FE02068DFF8D012884201D10420F2
:103EF00018E02068DFF8C412884201D1402011E0A8
:103F00002068DFF8BC12884202D14FF4806009E0DB
:103F10002068DFF8B012884202D14FF4804001E0FF
:103F20005FF48020A84908604CE020689B498842E3
:103F300001D1042044E020689949884201D1402001
:103F40003EE020689749884202D14FF4806037E014
:103F500020689549884202D14FF4804030E02068C3
:103F60009249884202D15FF4802029E0206890497C
:103F7000884202D15FF4800022E020688D498842A7
:103F800002D15FF080601BE020688B49884201D13C
:103F9000042015E020688949884201D140200FE0C3
:103FA00020688749884202D14FF4806008E0206889
:103FB0008449884202D14FF4804001E05FF48020C0
:103FC00074490860E06A002800F0E3802000E16A9C
:103FD0008847DEE00221206C81400D4200F0B9806C
:103FE000B00740F1B68020680068800608D42068D9
:103FF000006830F00A0021680860012084F8210080
:104000002068654988424DD320686449884201D1BF
:10401000022044E020686249884201D120203EE02D
:1040200020686049884202D14FF4007037E0206870
:104030005D49884202D14FF4005030E020685B496E
:10404000884202D15FF4003029E020685849884254
:1040500002D15FF4001022E020685649884202D164
:104060005FF000701BE020685349884201D10220B4
:1040700015E020685149884201D120200FE02068D6
:104080004F49884202D14FF4007008E020684D4942
:10409000884202D14FF4005001E05FF400304A49F9
:1040A00008604CE020683D49884201D1022044E08C
:1040B00020683B49884201D120203EE020683949F0
:1040C000884202D14FF4007037E0206836498842B8
:1040D00002D14FF4005030E020683449884202D1C8
:1040E0005FF4003029E020683149884202D15FF452
:1040F000001022E020682F49884202D15FF0007052
:104100001BE020682C49884201D1022015E020687C
:104110002A49884201D120200FE02068284988429E
:1041200002D14FF4007008E020682649884202D18D
:104130004FF4005001E05FF40030164908600020A1
:1041400084F82000A06A002823D02000A16A8847B4
:104150001FE00821206C81400D421AD0300718D58D
:104160002068006830F00E00216808600121206C92
:104170008140E06B41600120A063012084F82100B0
:10418000002084F82000206B002802D02000216B42
:10419000884770BD040002408100024008000240D0
:1041A0001C0002403000024044000240580002401F
:1041B0006C00024080000240080402401C040240DF
:1041C00030040240440402400404024030B401259B
:1041D000046CA540C46B6560046863604468102C7F
:1041E00004D10468A2600468E16003E00468A1608F
:1041F0000468E26030BC704708B584B000230393C4
:1042000000290EBF01930190491E0291009301A95C
:1042100004AB07487844183003F048FA019909B113
:1042200000220A70002858BF039805B000BD00BFE7
:10423000870400005FEA000C80EA01039B0715D1A8
:10424000830706D011F8013B00F8013BB3B18307A7
:10425000F8D10A68B2F1013323EA020313F0803F78
:1042600002BF40F8042B51F8042FF3E711F8013B8B
:1042700000F8013B13B111F8013BF9E760467047C4
:1042800062F30F2262F31F42401810F0030308D0BC
:10429000C91A1FD3DB0748BF00F8012D28BF20F83B
:1042A000022D130030B414461546103928BF20E9FA
:1042B0003C00FAD8490728BF20E90C0048BF40F865
:1042C000042D890028BF20F8022D48BF00F8012DD9
:1042D00030BC7047C91818BF00F8012DCB0728BFA4
:1042E00000F8012D704710B5044604F0C9F90146E5
:1042F0002046096ABDE81040084710B5044604F09E
:10430000BFF901462046896ABDE810400847B1F56B
:10431000807F02D34FF0FF3070470170012070475B
:104320000078401E8041C043C00F7047C9B2830768
:1043300006D0521E22D310F8013B9942F7D11FE05C
:10434000083A13D302F1040241EA012141EA014192
:1043500050F8043B121F21BF4B40A3F1013C2CEA53
:10436000030C1CF0803FF3D0C9B2001F083210F8D4
:10437000013B521E28BF91EA030FF8D818BF012055
:10438000401E70472DE9F84F82460E0014001D00B4
:104390005FF0010B00275FF00008DFF8BC01007E32
:1043A000012801D1022049E00120DFF8AC11087694
:1043B0004CF2503000F06AF881464846C0B20028FE
:1043C00036D1BAF1010F02D10120804607E0BAF1DF
:1043D000020F02D10220804601E004208046002026
:1043E000070038004146C0B2C9B2884220D220003E
:1043F0002900FFB23A0104F07DF9010089B23800CA
:10440000C0B216EB400000F036F84CF2503000F02D
:104410003DF88146DFF84401006840084000DFF8BD
:104420003C1108604846C0B2002801D17F1CD8E783
:104430000020DFF8241108764846C0B2BDE8F28FAC
:1044400000204649096809060BD54649464A1160CD
:104450004649454A116041490968090601D50121CB
:104460000800C0B270473D48006850F080003B49EA
:104470000860002070470022374BDA61374A126823
:1044800052F00102354B1A600180704738B50400C4
:1044900001F074FA050032480068C0070BD514F12A
:1044A000010FF8D0002C04D001F068FA401B8442C0
:1044B000F1D2032017E02A480068800602D52020A8
:1044C0002749086026480068C00607D428480068C5
:1044D000C00703D422480068400703D500F004F861
:1044E000012000E0002032BD00201D490968C906F6
:1044F00007D51949C96951F00201174AD16150F035
:10450000100017490968490707D51349C96951F0CF
:104510000101114AD16150F0040015490968C90729
:104520000BD50D49C96951F004010B4AD1611049FD
:104530000968490849000E4A116040F20111884299
:1045400006D10B49096849084900094A116001E090
:10455000034908607047000030130020102002401B
:104560000C2002402301674504200240AB89EFCDB7
:104570001C200240F8B504000D0001260027DFF8DA
:104580000001007E012801D102204FE00120DFF868
:10459000F01008762068022816D14CF25030FFF750
:1045A00075FF00283CD1012000F041F84CF250305A
:1045B000FFF76CFF0600DFF8CC00006830F0040065
:1045C000DFF8C01008602BE04CF25030FFF75EFFC0
:1045D000002825D15FF0FF302860A0680700E1685F
:1045E0004FF40062A06802FB01018F4218D238002C
:1045F00000F032F84CF25030FFF748FF0600DFF8C9
:104600008400006830F00200DFF8781008603000A5
:10461000C0B2002801D02F6002E017F50067DEE786
:104620000020DFF85C1008763000C0B2F2BD002137
:10463000DFF84C20D161DFF84C10096851F004011B
:10464000DFF840201160DFF83C10096851F04001AC
:10465000DFF83020116070470021094AD161094913
:10466000096851F00201074A1160074908600549CD
:10467000096851F04001034A1160704700000000D2
:10468000301300201020024014200240C0F3C75114
:104690007E390EDDC217D1F1200106DD000240F0A7
:1046A0000040C840104450407047D04380F0004064
:1046B0007047002070478268521C8260426832B1A5
:1046C0000268531C036011704168491E41607047C5
:1046D00010B5144600F002F8226010BDC1F30A5371
:1046E00043B14A0012F5001F28D2A3F2FE32A1EB1B
:1046F0000251704750EA410C20D001F0004C31EAE1
:104700000C01B1FA81F204BFB0FA80F3D2180B3A6F
:10471000B2F120032CBF00FA03F1914041EA0C01F1
:104720003EBFC2F1200C20FA0CF3194390405242D4
:1047300040F2FD33D21A01EB03517047002270475B
:10474000B0B581EA030C0CF0004C40F2FF7515EA9D
:1047500011541DBF15EA1357AC42AF4239E0E419BA
:1047600023EA455343F48013C90241F0004141EA72
:10477000505EC7021100A7FB020200284FF00000A4
:10478000EEFB01204FF00001E3FB072118BF42F0D0
:104790000102401800214941E3FB0E01A4F58064A9
:1047A0000F0302D252004041494154F101046CDD33
:1047B000470872F1004250F1000051EB0451A1F59D
:1047C00080115CBF41EA0C01B0BD4CEA05510020EC
:1047D000B0BD05EA1357AC4214BFAF4241E050EA06
:1047E000410E1CBF52EA430E02E061460020B0BDFC
:1047F00024423C441BD15FEA070EF6D0090302BFF6
:1048000001460020AEF1140EB1FA81F7AEEB0704B9
:1048100001FA07FE0C37C7F1200100FA07F7C8407C
:104820004EEA000E23EA455343F48013A2E733F027
:104830000043B3FA83F704BFB2FA82FE77440B3F1A
:10484000E41BB7F1200E2FBF02FA0EF3BB40C7F1F5
:10485000200E22FA0EFE38BF43EA0E03BA40641C53
:1048600082E750EA410E14BF52EA430E6FF0000196
:104870004FF4001717EB430F8ABF194617EB410F90
:10488000B5E74CEA05510020B0BDD4F10104B4F104
:1048900020070FDAC4F12007520828BF42F00102B6
:1048A00010FA07F501FA07F7E1BF2A43E040384361
:1048B000E1400FE0352C98DCC7F1200452EA4002B9
:1048C00020FA07F218BF42F0010231FA07F0A140C6
:1048D0000A43002172F1004250F1000051EB0C013B
:1048E000B0BD6800124254D440F2FF7C1CEA115360
:1048F0000FD0634531D09B1863453CBF01EB02519B
:10490000704701F0004141EA0C510020AFF30080F4
:10491000704750EA410320D001F0004C91EA0C01AD
:104920001CD0B1FA81F30B3B9A420DD9D21A9940AF
:1049300051EA0C01C3F1200C20FA0CFC61449840B0
:10494000531C40F2FF7CD7E7914041EA0C01C2F1D1
:10495000200C20FA0CF3194390407047B0FA80F312
:104960001533202BE0D3202AEED3203A203B9A4265
:1049700009D9D21A00FA03F141EA0C010020531CB4
:1049800040F2FF7CB8E700FA02F141EA0C01002096
:104990007047524240F2FF7C1CEA11530DD0634530
:1049A000DBD0B2EB030C3CBFA1EB025170470CF122
:1049B000010221EA035141F4801150EA410CCCD0AC
:1049C00001F0004C352A27DC30B481EA0C01B2F149
:1049D000200309DAC2F12003044601FA03F5D040AE
:1049E0002843D1409C400CE0C3F12002450020FA4E
:1049F00003F418BF44F0010421FA03F091400C4382
:104A0000002174F1004550F1000051EB0C012442EB
:104A100030BC7FF47BAF70476146002076E7310001
:104A2000F0B540F2FF7581EA030C0CF0004C15EA7A
:104A300011541DBF15EA1357AC42AF42E5E0BC412B
:104A4000C1F31301C3F31303801A994143F4801394
:104A500004D2641E4000494180185941C90241EA0C
:104A60005051B1FBF3F603FB1611A2FB0675D7EB11
:104A7000C020A94102D2761E80185941C90241EADC
:104A80005051B1FBF3FE03FB1E11A2FB0E75D7EBD9
:104A9000C020A94103D2AEF1010E8018594189020C
:104AA00041EA9051760546EA8E2EB1FBF3F603FB00
:104AB0001611A2FB0675D7EB8020A94102D2761E03
:104AC00080185941C90241EA50514EEA060EB1FB25
:104AD000F3F603FB1611A2FB0675D7EBC020A94124
:104AE00002D2761E80185941C90241EA5051B1FBE9
:104AF000F3F703FB1711A2FB0735D3EBC020A94145
:104B000067F100070CBF004247F0010766F3D527A5
:104B10004FEA1E31B80814F5806412DDBD0775F147
:104B2000004250EB0E5051EB045111F5801F5CBF59
:104B300041EA0C01F0BD4CF07F6141F0E041002002
:104B4000F0BDBD076D0840EA0E5041F48011D4F16C
:104B50000104B4F120060ADAC4F120060200E040A4
:104B600001FA06F3E1401843B24015430EE0342C3D
:104B700013DCC6F1200445EA40056D0820FA06F270
:104B8000154321FA06F0A1400D43002175F10042C2
:104B900050F1000051EB0C01F0BD00205FEA0C0168
:104BA000F0BDCFB992185B41B3FA83F704BFB2FAF4
:104BB00082F6BF190B3FB7F120062FBF02FA06F3AA
:104BC000BB40C7F1200622FA06F638BF3343BA408D
:104BD0001CB1E419641E33E77F4231F00041B1FAA1
:104BE00081F404BFB0FA80F6A4190B3CB4F120069E
:104BF0002FBF00FA06F1A140C4F1200620FA06F604
:104C000038BF3143A0403C1B1AE7AC421ABF05EA4B
:104C10001357AF4212E050EA41061CBF52EA430666
:104C2000BFE750EA4107304661461CBF41EA0551E3
:104C3000F0BD52EA430C08BFC143F0BD00204FF461
:104C4000001616EB410F98BF16EB430F08BF16EB8B
:104C5000410F24BFC14305E016EB430F0CBF614673
:104C60004CEA0551F0BD2DE9F84305460C462E6887
:104C7000002700E0761C3078FFF735FB0028F9D1DB
:104C800030782D280CBF08272B2800D1761C3078CF
:104C900040F020016E2927D1707840F02000612873
:104CA00002BFB07840F020006E2802D02E680027A6
:104CB00046E0F61CB046042798F8000028283FD1AB
:104CC00018F8019F484603F024FD0028F8D1A9F107
:104CD00030000A28F4D398F800005F28F0D0292883
:104CE0002ED108F101062BE069292CD1707840F013
:104CF00020006E2802BFB07840F02000662802D065
:104D00002E6800271CE016F8030F40F020006928E9
:104D100002BF707840F020006E2847F003070FD1E3
:104D2000B07840F02000692802BFF07840F0200001
:104D3000742805D1307940F02000792808BF761D0D
:104D4000F4B126601CE0302802BF707840F02000EB
:104D5000782813D1B01C01782E2908BF401C007898
:104D6000A0F16101062921BFA0F14102062A3038D5
:104D70000A2803D2B61C47F0020701E047F00107FA
:104D80002E603846BDE8F2832DE9F14F8CB0924693
:104D9000169A02EBC20200202D2AC8BF2D221860ED
:104DA00083465860002501E0491C01250C78302C11
:104DB000FAD000241F460B78A3F130060A2E80F0AB
:104DC0009780944207DB3B685B1C3B600B78302B81
:104DD00005D0012003E0303B0DF80430641C491C71
:104DE0000125E8E73868401E3860761C01253078D8
:104DF0003028F7D03078A0F130010A2980F0878080
:104E0000444507DA30380DF80400641C3968491E3F
:104E1000396003E0302818BF4FF00109761C0125E6
:104E2000E8E70DF1FF31095D49B93A68521C3A6073
:104E3000641E002CF5DC04BF8DF800B001240028AE
:104E40004BD0092394FBF3F3C4F1090103EBC30333
:104E50005918092291FBF2F202EBC202DC468A1ACF
:104E600018BF4FF0010B5A468B46A4455DDA092165
:104E70009BFBF1F11DF80C3001EBC101BBEB010113
:104E80001DBF57F8221001EB810103EB4103521CB7
:104E900047F822300BF1010B0CF1010CE5E700247F
:104EA0000025DFF8A8C0314608E0654504DA05EBC7
:104EB000850402EB4405303D491C01240A78A2F127
:104EC00030060A2EF1D30E46BEF12D0F396808BF09
:104ED0006D426D183D6004B91E46BAF1000F03D053
:104EE00000B90C9ECAF8006058460DB0BDE8F08FBE
:104EF0000E469046814603F0F7FB406A317802780F
:104F0000914208BF761C002C7FF474AF6FE75FEA14
:104F1000090128468DD00DF1FF310DF1FF3211F856
:104F20000810491C02F8081083E7317841F020018D
:104F300065299346D1D1334616F8011F2B2916BF98
:104F40002D2916F801EB4FF02B0EA8E700E1F5052F
:104F5000C11768B14840401AB0FA80F29040D21CA4
:104F6000C907C2F5846241EA025202EBD021400532
:104F700070476C0070B44FF0004591EA030F43F1A5
:104F8000DB836B40841A71EB030604D26E40001B76
:104F9000B141121973414FF4001C1CEB410F34BF97
:104FA0007CEB430682E00C0DA4EB1356362E7BDC23
:104FB000012E45EAC32341DC43EA525312BFD20219
:104FC00092025B08240545EAC12141EA5051D2EB27
:104FD000C020994125D407D1B0FA80F610FA06F125
:104FE00062D00020203608E0B1FA81F6B140C6F167
:104FF000200220FA02F21143B0404FEAF474B4EBFD
:10500000465434F001064FEA74040AD8D6F5001667
:10501000760D04F00044F04061FA06F25040F14091
:105020004840C00A40EA415021F0004128BF5FEAF1
:10503000500550F1000044EBD12135E0DB0A45EA90
:10504000C121C90AB6F120050EDD42EA0242120C66
:10505000C5F1200603FA06F6EB4042EA06056D426A
:10506000984161F100010DE062FA06F5F240554009
:1050700063FA06FC82EA0C02F3405A406D4290410A
:1050800061EB030111F4801F05D1641E620502D09B
:105090006D004041494121F48011430875F10043FE
:1050A00050F1000041EB045170BC70471CEB410F04
:1050B00015D223F0004352EA43060BD04FEA4C0CC2
:1050C000BCEB410F04D80C0D661E342EB7DDEBE7A8
:1050D000801A994150EA410608BF0021E4E708BF61
:1050E0001CEB430F28BF6FF00001DDE72DE9FD4EFB
:1050F0008BB00024DDF858901C60C9EBC909B9F1E8
:10510000230FC8BF4FF023095C60A24602E0491C90
:105110004FF0010A08783028F9D000BF0FF2B81517
:1051200073A0A3460A9509900F461E4639781622A9
:105130002846FFF7FBF8002800F09A80D94503DAEB
:105140003068401C306007E00A9A0999801A085CB0
:105150000DF80B000BF1010B7F1C4FF0010AE5E786
:105160003068401E30607F1C4FF0010A38783028CC
:10517000F6D0397816222846FFF7D8F8002800F034
:105180008480D9450ADB00BF59A1401B085C0DF89B
:105190000B000BF1010B3168491E31607F1C4FF091
:1051A000010AE6E70DF1FF32525C4AB933685B1C35
:1051B0003360491E0029F5DC04BF8DF80040012151
:1051C00032689200BAF1000F326046D04FF0070CFF
:1051D00091FBFCFCC1F10705CCEBCC0C654407222C
:1051E00095FBF2F20023C2EBC202AA1A18BF0124F7
:1051F000A4468B425CDA072295FBF2F21DF80340CD
:10520000C2EBC202AA1A1ABF56F82C2004EB0214F1
:105210000CF1010C46F82C406D1C5B1CE9E70023E7
:1052200000252C48394608E0854204DA05EB850361
:1052300007EB4305303D491C01230F78A7F13009E6
:10524000B9F10A0FF0D30F46BCF12D0F316808BF3A
:105250006D426D18356003B917460C9921B1BAF14A
:10526000000F08BF0B9F0F6020460EB0BDE8F08E08
:1052700003F03AFA406A39780278914208BF7F1CFD
:10528000BBF1000F7FF475AF70E75946894591DA9D
:105290001DF80910072906DD0DF1FF3212F809107B
:1052A000491C02F8091049463268521C326081E7F5
:1052B000397841F0200170296446CED13A4617F87A
:1052C000011F2B2916BF2D2917F801CB4FF02B0CEE
:1052D000A5E7000000E1F5053031323334353637CB
:1052E0003839616263646566414243444546000063
:1052F000000102030405060708090A0B0C0D0E0F36
:105300000A0B0C0D0E0F00004FF0807C1CEB400FC1
:1053100094BF1CEB410F05E040EA010C1CEB0C0FA5
:1053200001D28142704718BF8842704790EA010F4E
:1053300040F1648181F00041421A3CBF801A891813
:105340004FF0004CC0F3C752FF2A24D0C1F3C7531B
:1053500013B3D21AD2F1190327DD4CEA01214CFA1A
:1053600003F321EA0303D140C20D4CEA00204018A8
:1053700034BF20EA0C004CEA5000D20553EA006327
:1053800073EB0C0C52EB1020420012F1807F38BFFF
:105390007047C00DC0057047490212BF9A4200EB2A
:1053A0005120F8E7D2F11703D9D570474FF4001C0C
:1053B0001CEB410F94BF1CEB430F09E041EA030CC7
:1053C00050EA4C0C52EA0C0C03D2994208BF9042AE
:1053D000704714BF8B428242704701024FF0807CBD
:1053E0001CEB400F94BF1CEB410F05E040EA010CA1
:1053F0001CEB0C0F01D28842704718BF81427047E6
:10540000FF2212EAD05C1DBF12EAD15394459342A9
:105410002BE09C44D30780EA01021A4043EA0020B3
:1054200043EA0121A1FB0030C04238BF40007CF1BB
:105430007F010BDBFE294ADA5B0842EAC15153EADD
:10544000006373F1004C51EB10207047D1F1080C50
:10545000DCF120012FDB5B0810FA01F10B4320FA8D
:105460000CF073F100415041704794451CBF02EAB3
:10547000D153934280EA010202F000421DD0400065
:1054800019D0490017D05BB9634514D00902B1FAAD
:1054900081F39940BCEB030CC00140F00040C1E730
:1054A0000002B0FA80FC10FA0CF0B3EB0C0CC9014E
:1054B00041F00041B6E71000704740000AD04900B3
:1054C00008D010F1807F94BF11F1807F02E042F09C
:1054D000FF407047D043704710B5FF2313EAD05404
:1054E0001DBF13EAD1529C429A4239E0A41ADA074E
:1054F00080EA0103134042EA012142EA0020421AF5
:105500003CBF641E01EB4202090AB2FBF1FE01FB43
:105510001E221202B2FBF1F001FB10226EF30F20EB
:105520001202B2FBF1FE4EEA00207F3406DDFE2CB3
:1055300024DA53EA500050EBC45010BDD4F10204F9
:1055400001FB1E2240F08071192C1DDC21FA04F0B1
:10555000C4F12004A140114371F10042584110BD33
:105560009C421ABF03EAD1529A420FE080EA010E30
:105570000EF00043400004D0490016D143F0FF4034
:1055800010BD490008BFD343180010BD9C4205D18F
:10559000D21AF7D001F00041484010BD4A0212BFB4
:1055A0000846484000F0004010BD4AB90902B1FA6F
:1055B00081F2914044B1A418C00140F000409EE740
:1055C000C90141F0004152420002B0FA80F4A0400B
:1055D000141B94E740EA010C1CEB0C0F07D0884227
:1055E00005D14FEA400C1CF1807F98BF8042704784
:1055F00090EA010F7FF5A0AE81F00041431A4FF011
:1056000000423EBF5340C01AC91800BFD3095FEA29
:10561000D05C13EB400F34BFB3EB410F40E07CEBA9
:10562000D1530CD342EA012122D8D1EB402009D337
:10563000400A28BF5FEA500140EBCC507047401A47
:1056400015D04002B0FA80F2521C9040400A4FEA56
:105650003C23B3EB026384BF00EB730007E040F42C
:1056600000001A16DB07C2F10102D0401843704750
:10567000182BFCDC31FA03F202FA03F3591A38BF93
:1056800042F00102D2EB40203CBF4000ACF1010CE3
:105690005FEACC5CC20572F100414CEB50207047D0
:1056A00013EB400F0FD2C94209D0ACEBD153022B00
:1056B00003DB4902172BDDDD70479143401AC042DE
:1056C000D5D10020704713EB410FD0D36FF000000D
:1056D0007047010270B5C51DED08AFF30080ED0005
:1056E000072D98BF08250B4E346814B12068A842D6
:1056F00008D203F08BF800283060F4D1AFF30080BB
:10570000002070BD61193160451B0D60AFF3008052
:10571000204670BD1C14002081EA00039B0717D1AE
:10572000820707D010F8012B11F8013BBAB19A4259
:10573000F6D014E002680B689A42A2F1013301BF6F
:10574000934313F0803F50F8042F51F8043FF3D0F7
:1057500010F8012B11F8013B0AB19A42F8D0D01A87
:105760007047000000B585B07248006850F0100026
:10577000704908606F48006810F0100004900498A9
:105780006C48006850F020006A4908606948006869
:1057900010F02000049004986648006850F004005F
:1057A000644908606348006810F00400049004989D
:1057B0006048006850F008005E4908605D48006875
:1057C00010F008000490049800224EF240015A485C
:1057D000FDF725F9002241F601415848FDF71FF970
:1057E0004EF2400000900120019000200290022023
:1057F000039069465048FCF7E1FF3820009050487C
:1058000001900020029069464E48FCF7D7FF41F610
:10581000014000900120019000200290022003909E
:1058200069464648FCF7CAFF02200090002001901C
:105830000120029069464148FCF7C0FF05B000BD59
:1058400038B5040040480078022803D03E4800786C
:10585000002800D167E03D480068401C3B490860D3
:10586000FCF79FFC3A4908703A480078012815D1A6
:105870003948006839490968FFF7ACFE03D036485B
:105880000068364908603548016835480068304A84
:10589000127850F82200FCF7E0FB44E02D48007835
:1058A000002814D10225002D0DD429480078284164
:1058B000C00703D51CA0FBF7E5FC02E01BA0FBF72B
:1058C000E1FC6D1EEFE71AA0FBF7DCFC2BE02048A3
:1058D00000782449244A1268885424492448224ADA
:1058E000126850F82200FCF7B8FB1F480068401C03
:1058F0001D4908601C480068062814DB00201A496E
:105900000860002013490870FCF731FC1948FBF7C8
:10591000B9FC0025062D06DA1248415D1648FBF752
:10592000B1FC6D1CF6E731BD310000003000000015
:105930000D0A00001810024000100140000C014048
:1059400000003110000801405D0C00200814002008
:10595000271400205B0C002014140020BC1300202E
:10596000B41300206C000020B81300200000204178
:1059700038000020FCB0000810B1000801480068A1
:10598000704700BFD81300202DE9FC4706000D002A
:1059900017001C005FF0000A5FF0000896F8500046
:1059A000012801D10220C5E0012086F85000FFF750
:1059B000E5FF814696F85100012802D0022080467A
:1059C000B0E0002D03D0380080B2002802D10120C1
:1059D0008046A7E0032086F85100002070653563FB
:1059E000B786F7860020B0630020B0870020F087DC
:1059F0000020706400203064B068B0F5004F05D11D
:105A00003068006850F48040316808603068006891
:105A1000400605D43068006850F0400031680860E6
:105A2000F068B0F5006F29D17068002802D0F08EC0
:105A3000012806D128883168C860AD1CF08E401E50
:105A4000F086F08E002843D030688068800707D544
:105A500028883168C860AD1CF08E401EF086F0E7E3
:105A6000002C08D014F1010FEBD0FFF787FFB0EB4B
:105A70000900A042E5D30320804653E07068002867
:105A800002D0F08E012806D12878316808736D1C89
:105A9000F08E401EF086F08E002819D030688068A5
:105AA000800707D52878316808736D1CF08E401E7A
:105AB000F086F0E7002C08D014F1010FEBD0FFF7CF
:105AC0005DFFB0EB0900A042E5D30320804629E04A
:105AD000CDF80090230001220221300000F0FCF9F3
