:020000040800F2
:1000000050100020C97E0008557800085778000875
:10001000597800085B7800085D780008000000004F
:100020000000000000000000000000005F780008F1
:100030006178000800000000637800086578000817
:100040004F7F0008537F0008577F00085B7F000840
:100050005F7F0008637F0008677F00086B7F0008F0
:100060006F7F0008717800087B780008737F0008B4
:10007000777F00087B7F00087F7F0008837F000870
:10008000877F00088B7F00088F7F0008937F000820
:1000900085780008977F00089B7F00088F7800080C
:1000A0009F7F0008A37F0008A77F0008AB7F0008A0
:1000B000AF7F0008B37F0008B77F0008BB7F000850
:1000C000BF7F0008C37F0008C77F0008CB7F000800
:1000D000CF7F0008D37F0008D77F0008DB7F0008B0
:1000E000DF7F0008E37F0008E77F0008EB7F000860
:1000F000EF7F0008F37F0008F77F0008FB7F000810
:10010000FF7F000803800008078000080B800008BC
:100110000F800008997800081380000817800008F5
:100120001B8000081F80000823800008278000082B
:100130002DE9F84F74A7A2B0D7E90045CDE90045F5
:100140002C9EDFF8307C04918DF843605FF0000155
:100150006FA40D9112944FF0FF3682469046994657
:100160000FE0C3462C461BF8011B0498D04700281B
:10017000049000F0B2800D98401C641E0D90F2D1E6
:10018000A84498F80000252807D10021079108917C
:1001900009910A910B910C910DE06A463146404657
:1001A00001F01CF8050001D10D98B5E0D9D5012565
:1001B000E6E741F0010118F8010F2028F9D02328C3
:1001C0000CD02B2804D02D2805D0302809D086E06B
:1001D00041F00201EFE741F00401ECE741F00801D2
:1001E000E9E741F01001E6E700200F900AE00F98E0
:1001F000B84205DA00EB800302EB4302303A0F927B
:1002000008F1010898F80020A2F130000A28EED386
:1002100098F800002E2818BF0E9629D118F8010F63
:100220002A280BD1D9F80000C9F8000008F101080C
:1002300050F8042BC9F800000E9219E02D280CBFCD
:1002400018F8010B002000220E920BE040B90E9A24
:10025000BA4205DA02EB820403EB4403303B0E930F
:1002600008F1010898F80030A3F130020A2AEDD312
:10027000ADF84010129898F8001000F0B9FF08B1DE
:1002800018F8010B8DF842009DF84200682804BF61
:1002900098F80010682903D162208DF8420008E028
:1002A0006C2804BF98F800006C2804D171218DF8E7
:1002B000421008F1010813A806904A4618F8013BBD
:1002C00002A9504600F068F838B913AA02A95046AE
:1002D00000F0CAF900287FF554AF30461CE02A2808
:1002E00082D1D9F80020C9F8002052F8040BC9F8CF
:1002F000002000280F9003D540420F9041F00401E8
:1003000008F1010884E70000000000000000000080
:10031000686A6C747A4C000023B0BDE8F08F6228E4
:1003200020D0682811D06A2803D06C2827D07128E3
:1003300025D10868C01D20F007000860D0E900231F
:1003400008300860194610467047002A0A680A609B
:10035000106803D0121D0A6000B217E0121D0A6077
:1003600080B217E0002A0A680A60106803D0121DE4
:100370000A6040B20AE0121D0A60C0B20AE0002A18
:100380000A680A60106803D0121D0A60C11770471E
:10039000121D0A60002170477CB50D4611461C46AF
:1003A0002E69B4F1250200F04D811C3A00F08680E0
:1003B000121F022A40F282800E3A00F00781521F7B
:1003C0005AD0093A7AD0921E16D0521E35D0521EFB
:1003D000022A73D9121F30D0521F00F09A80521E89
:1003E0004AD0521E00F0E480D21E00F0FD80921E22
:1003F00042D0D21E40D02BE195F83A206C2A09D089
:100400006869421C6A610A680A6052F8043B0A6023
:10041000335427E10A680A6052F8043B0A6000215D
:10042000009301914FF0FF322A6329466A4600F09B
:1004300096F9002840F1168101E195F83A00012271
:10044000FFF76DFFC5E900010023994204DA6869EE
:10045000411C69612D210DE0288F810704D5686951
:10046000411C69612B2105E0C00722D56869411C48
:100470006961202131541CE095F83A000022FFF711
:100480004EFFC5E9000195F83800010711D5D5E9FF
:1004900000230020834208BF82420AD044F020009B
:1004A000782806D1686930213154401C411C6961AB
:1004B0003454214668693044E86083E00868C01D10
:1004C00020F007000860D0E9002308300860C5E983
:1004D0000023D5E90001C80F04D06869411C696197
:1004E0002D210DE0288F810704D56869411C6961C1
:1004F0002B2105E0C00704D56869411C69612021F2
:10050000315468693044E8602146284600F032FAE8
:10051000A8E005F13A02507820B14FF0FF340FF611
:10052000243070E01078622808D0682824D06A2827
:1005300012D06C282ED071280ED02BE00A680A60E9
:1005400052F8040B0A6020B94FF0FF340FF60C305C
:1005500059E0E96A017085E00A680A6052F8040B04
:100560000A6020B94FF0FF340FF6F0204BE0EA6A42
:10057000D317C0E9002375E00A680A6052F8040B3B
:100580000A6020B94FF0FF340FF6D0203BE0E96A53
:10059000018067E00A680A6052F8040B0A6020B91B
:1005A0004FF0FF340FF6B4202DE0E96A016059E006
:1005B0000A680A6052F8040B0A600021C5E90001CC
:1005C000EE607821284600F029F94BE06C2285F88E
:1005D0003A200B680B6053F8042B0B6052BB4FF0B2
:1005E000FF340FF6AC200EE095F83A206C2AF0D0DC
:1005F0000868086050F8044B0860EC603CB94FF0A4
:10060000FF340FF6702000F00DFE201A76BD2E6B21
:10061000002E04D5204600F025FE044608E03246B0
:100620000021204600F046FE002814BF041B34467B
:10063000AC6117E0294600F092F8002812D54FF07F
:10064000FF3076BD6869411C69612521315409E09C
:100650006969481C686125227254210002D0411C3E
:1006600069613454002076BD2DE9F0410E460546FF
:10067000716B7069B46A091A306A091AB069091A8B
:10068000706A091AF069091A96F838000C1B4107BC
:1006900090460DD4002C0BDD2746B0682021A847DA
:1006A0000028B06057D0F06A401C7F1EF062F4D181
:1006B000736942463146284600F0ACFC00284AD116
:1006C000376A002F0ADDB0683021A8470028B060E3
:1006D00041D0F06A401C7F1EF062F4D1B369F26829
:1006E0003146284600F096FCA8BB776A002F09DD4A
:1006F000B0683021A847B06068B3F06A401C7F1E24
:10070000F062F5D1F068B169F369421831462846C4
:1007100000F080FCF8B9B76A002F09DDB06830211D
:10072000A847B060B8B1F06A401C7F1EF062F5D1F6
:1007300096F8380041070BD5002C09DDB068202160
:10074000A847B06038B1F06A401C641EF062F5D171
:100750000020BDE8F0814FF0FF30BDE8F0812DE9C9
:10076000F8470D46A3B02F6B002F8146904648BF37
:100770006FF0004700F0CAFD696B40180FF62C11AE
:100780008128D1E90023CDE9012328BF4FF0FF30B4
:100790003ED20024002F2FDDD8F8001001AA6846B1
:1007A00000F01EFD0646002E35D4D8F8000008B92A
:1007B000761E30D4B7421FDB6869301881280AD30F
:1007C0000020686303AA29464846FFF74DFF04004E
:1007D00012D40020686103A8D5F814A032466946F7
:1007E000504400F099FDB244C5F814A058F8040B29
:1007F000002818BFBF1BCDD12CB903AA29464846F3
:10080000FFF732FF044614B9002068616863204690
:1008100024B0BDE8F0874FF0FF34F8E72DE9FC473E
:1008200007468A463E69BAF16F0F08BF082405D013
:100830004AF02001782914BF0A2410243C25D7E966
:100840000023BAF1640F18BFBAF1690F90469946B8
:1008500006D100218B4203DAD8F1000869EB49097F
:100860000020814508BF80451FD1386BE8B9082CAE
:100870004CD197F83800010748D530203B2586F841
:100880003B0043E000280ED597F8380000F0140034
:10089000102808D17A6B7869121A386A121A511A1C
:1008A0000029C8BF3962BDE8F3878DF800A0404633
:1008B00049462246E31700F083FD3032D0B26D1E68
:1008C0003A28019504DB9DF80000A0F151018A1837
:1008D0007255404649462246E31700F071FD8046B6
:1008E00089460020814508BF804503D0F86871190A
:1008F0008842DCD3082C09D197F83800010705D5C8
:10090000715D302902D06D1E30207055C5F13C015B
:10091000B9617019F860386B8142B3DA411A3962F3
:100920004FF6EF70398F01403987BDE8F3872DE925
:10093000D04306460F4614464FF00008DFF83894BF
:1009400012E0E00707D542464B463046394600F0F4
:100950004FFE06460F464046494642464B4600F08B
:1009600047FE641080468946002CEAD1304639465D
:10097000BDE8D0832DE9F34F054641F020048DB04A
:10098000D5E90089612C02AE09D0286B002848BF48
:10099000062003D408BF672C01D101202863D5E9C4
:1009A000002358004015401C0ED119030CD0032021
:1009B000A8619DF8380061381A2802D20FF2F4615C
:1009C00011E00FF2F4610EE058004015401C0FD109
:1009D00019030DD10320A8619DF8380061381A2849
:1009E00014D30FF2DC61E868032200F095FCD3E138
:1009F000194621F00043B3F5801F10460DD20027A1
:100A0000BB4208BFBA42019703D111E00FF2AC61BB
:100A1000E9E701AA00F0BEFE0AE0DFF8607307EB29
:100A20001352DFF85C3301921940DFF85833194351
:100A3000C5E90001612C0ED1E86830210170811CEC
:100A4000E9609DF8381061290CBF78215821417068
:100A50006869801C6861D5E900AB2BF00043002079
:100A60002AF00002834204BF8242002300F05A8130
:100A7000612C40F0A980286B00284CBF2120401C2D
:100A800000904046009F7F1C49460022002300F052
:100A9000B9FED94601988DF8082038BF89F0004981
:100AA000001F0190002FD0460DF1090040F349814D
:100AB00040F2FF71DFF8D0B20C910646404649463D
:100AC0000022002300F0B6FE80F03A814800400D7D
:100AD00000F11C0210D0002A0EDD0C98824205DBCA
:100AE00009F0004040EA0B01002013E0A448084050
:100AF00040EA025140460DE029F00043002028F072
:100B00000002834208BF82420FBF40461C2240467B
:100B100000F0A8FE8046894600F042FFFF1F002F2C
:100B2000044609DD00F05AFF02460B46404649469E
:100B300000F066FF80468946F01D072104E004F0BE
:100B40000F0200F8012D2411002C01DD491EF6D5FD
:100B5000491E5CBF002200F8012DF9D5ECE0002011
:100B6000194602AA0A4400E05B1E12F80149491E18
:100B70008442F9D00F2804D10DF10900425C521CC7
:100B80004254002904D50198001D02AE5B1C01905F
:100B9000591E12D49DF838007218147804F13008E8
:100BA0005FFA88F4392CC4BFA0F13A04A044491E6E
:100BB00002F80189F1D58DF83800286B002840F142
:100BC000B080591E2963ACE040464946002200230C
:100BD00000F018FE019938BF89F0004947F297509C
:100BE00041436A4A91FBF2F20192D2F1070204DD1D
:100BF00040464946FFF79BFE0AE052420020644906
:100C0000FFF795FE02460B464046494600F06AFF54
:100C10008046662C286BDFF87CB106BF019F0A373F
:100C200006273F18142FC8BF142730208DF808005E
:100C300089460DF1090000E03046002F34DD0646FC
:100C40004046494601F072F801460A4606F108039B
:100C500004200A26B2FBF6F606EB860EA2EB4E0245
:100C6000303203F8012C0A22B6FBF2F202EB820EBC
:100C7000A6EB4E063036401E03F8026DE9D1083F60
:100C8000002F03F10806D7DD084601F063F802469D
:100C90000B464046494600F0B3FE00225B4600F09A
:100CA000A7FC80468946CBE70DF10901401A0DF1FA
:100CB000090604E00199491E401E0191761C317815
:100CC0003029F7D0662C02D10199491C03E0652C2C
:100CD0000CBF012100212B6BCB189842B8BF431EDB
:100CE000002B1ED4834204DAF05C3528A8BF3920DB
:100CF00000DA30201946721E02EB010800E05B1E8C
:100D000018F80199491E8145F9D0392802D1705C43
:100D1000401C7054002904D50198401C16465B1CE9
:100D20000190019800B200901BB29DF83810324635
:100D3000284600F035F82FE0C61D002F3FF7BEAE65
:100D400030460DF10901401A009903468842C8BF98
:100D50000B46002B0DF109063FF52FAF8342BFF67E
:100D6000FEAE0DF10900C05C07287FF7F8AE0F203A
:100D7000F6E60000CBCCCC0C0000244002FCFFFFC8
:100D8000FFFF0F800000E03F0000F07FA086010021
:100D90000000F03F84D797410FB0BDE8F08F00000E
:100DA0002DE9F84783B006468A461746984600F074
:100DB00019FAB8F1000F406A356B90F8009002DC28
:100DC0004FF00108BFA7BDF930404AF02000662867
:100DD00008BF641C15D0672840F0848014F1040F0C
:100DE000C0F28680AC4280F2838096F83800641CA2
:100DF000010702D4A845B8BF454620B22D1A48BF06
:100E000000250FFA84FAF068B169BAF1000F25DC09
:100E10004A1C30234354002D03DC96F838000107A8
:100E200003D5F06800F80290521C15EB0A0FB8BF0A
:100E30006C4220B2441941424445B8BFA046B26159
:100E400071620FFA88F5F561F068B3692A46394690
:100E5000184400F061FA641BB462C4E022B2904509
:100E6000084417DA4246394600F056FAB069404461
:100E7000B061AAEB0801002D716203DC96F838100E
:100E80000A0705D5F16801F80090F069401CF0618F
:100E9000B562A8E0394600F03FFAB069002D504431
:100EA000A8EB040803DC96F838100A0703D5F168AC
:100EB00001F80090401CB0610FFA88F08542F0689C
:100EC000B369B8BFA8460FFA88F207EB0A011844C5
:100ED00000F022FAB0690FFA88F10844B061681A8C
:100EE000706280E0BAF1610F14D14FF0700A16E021
:100EF000A84504DA96F838100A0758BF45466D1E13
:100F000048BF0025BAF1670F14BF4FF0450A4FF0F4
:100F1000650A04E0BAF1410F08BF4FF0500AB16909
:100F2000F368481CB061002D17F8012B5A5403DCFC
:100F300096F838100A071BD5F168431CB36101F815
:100F40000090002D14DDA8F101080FFA88F0854209
:100F5000F068B8BFA8460FFA88F23946184400F086
:100F6000DBF9B0690FFA88F108446D1AB061756257
:100F7000F068B1690844002C80F800A003D42B214C
:100F80004170811C03E02D2141706442811C0020CE
:100F90006A460AE023460A2493FBF4F404EB840532
:100FA000A3EB450302F8013B401C24B2002CF1DC0A
:100FB000012806DC4AF02002652A04BF302201F82D
:100FC000012B48B9302001F8010B07E0401E1DF845
:100FD0000020303201F8012B0028F7DCF068B269FC
:100FE0001044091AF16196F8380000F01400102836
:100FF0000DD17169B0694118706A4118F0694118E2
:10100000B06A4118706B8142BCBF411A316204B0B2
:10101000BDE8F087F8B505460E4617461C46002089
:1010200074B117F8011BB068A847B06030B1F06A1E
:10103000401CF0620020641EF3D1F2BD4FF0FF307F
:10104000F2BD00007072696E74665F733A20256E9F
:1010500020646973616C6C6F776564007072696E8F
:1010600074663A2062616420256E20617267756D36
:10107000656E74007072696E74665F733A206261A7
:101080006420257320617267756D656E74000000C1
:101090007072696E74665F733A2062616420256CB9
:1010A0007320617267756D656E740000000000004A
:1010B000000000006E616E004E414E00696E6600D9
:1010C000494E46003000F0B4024610689568131887
:1010D000506803EB5004C00721D54D441FE0F0BC1D
:1010E00002F10C00704713F8017B05F8017B491EE3
:1010F000F9D1A0B1B60813F8011B06F00306032EC0
:1011000008BF13F8016B01EB06214942801C2944FA
:1011100005D011F8016B05F8016B401EF9D1A3420F
:10112000DDD013F8016B16F0030104BF13F8011BA7
:10113000C91C30090F28DAD113F8010B0F30D6E79C
:10114000613807E005E0A0F161011A2901D2012010
:10115000704741381A288041C00F7047A0F109013B
:10116000052901D3202801D10120704700207047B4
:10117000A0F141011A2938BF203070471A48704742
:1011800030B45368D418042B09DA41B1057804F857
:10119000015B10F8015B15B15B1C491EF3E753605E
:1011A00030BC704738B514461D4661B1FFF7E8FF03
:1011B00061686A6B204690476FF00102811A02D085
:1011C000491E03D005E06FF0010032BD4FF0FF3043
:1011D00032BD0021616032BDDA6B1047024BE1E79E
:1011E000014BF9E701487047F4050020BC050020D9
:1011F0000278C9B28A421AB11CBF10F8012FF9E770
:1012000018BF00207047B1F5807F02D34FF0FF3048
:1012100070470170012070470078401E8041C04334
:10122000C00F704780B500B906A005490B681BB117
:1012300022220021984701E000F099FD222002BD02
:10124000400C0020636F6E73747261696E74206865
:10125000616E646C65723A20626164206D657373BF
:101260006167650000F10103810704D010F8011BDC
:1012700089B18107FAD10268B2F10131914311F0CD
:10128000803F04BF50F8042FF6E710F8011B11B19E
:1012900010F8011BFBE7C01A70478268521C82607D
:1012A000426832B10268531C036011704168491EE4
:1012B00041607047C9B2830706D0521E22D310F88E
:1012C000013B9942F7D11FE0083A13D302F104021F
:1012D00041EA012141EA014150F8043B121F21BFBC
:1012E0004B40A3F1013C2CEA030C1CF0803FF3D0EF
:1012F000C9B2001F083210F8013B521E28BF91EA04
:10130000030FF8D818BF0120401E704780B5FFF7C3
:1013100035FF006C02BD010262B38B0708D0521E7C
:1013200011F8013B00F8013B00F024808B07F6D157
:10133000830740F0208000BF103A07D330B4B1E8F3
:101340003810103AA0E83810F9D230BC530724BF47
:10135000B1E80810A0E8081044BF51F8043B40F879
:10136000043BD20724BF31F8022B20F8022B44BFE4
:101370000B7803707047121F17D35B0009D151F827
:10138000043B20F8023B1B0C121F20F8023BF6D254
:101390000BE051F8043B00F8013B1B0A20F8023B2C
:1013A0001B0C121F00F8013BF3D238BF121D521E56
:1013B00024BF11F8013B00F8013BF8D8704700004A
:1013C000B3BBD9B1B2F5803F7DD2022A1ED98C467B
:1013D000B1FBF2F102FB11C31B0443EA1043B3FB60
:1013E000F2FC02FB1C3380B240EA0343B3FBF2F091
:1013F00002FB103240EA0C4000237047022A05D954
:101400008446B0FBF2F002FB10C270474AB105D12E
:1014100000F0010249085FEA300070470022002313
:10142000704700F0A7BC0B000200002100207047AD
:10143000904271EB030CF6D3B3F5803F2FD2F0B599
:10144000B3FA83F7B1FA81F4A7F10F0E3D1B5340B5
:10145000CEF1200602FA0EF2F3415340B5F10F0728
:1014600046D80F3C2C444140C4F12006A040F14135
:101470004140B1FBF3F603FB1611A2FB0645001B2E
:10148000A94102D2761E8018594180EA010221FA50
:101490000EF362FA0EF200215A403046F0BD30B42D
:1014A000B1FBF3FC03FB1C11A2FB0C45001BA94183
:1014B00003D2ACF1010C8018594130BC02460B46F6
:1014C000604600217047B2F1807F65D3F0B5B2FA73
:1014D00082F7B1FA81F4C7F10F063D1B22FA06F339
:1014E00007F1110EF24120355A40B5F10F07B8D976
:1014F0004140C4F12006A040F1414140B1FBF3FC62
:1015000003FB1C11A2FB0C45001BA94103D2BCF13B
:10151000010C801859410F2F12D30F3FC90341EA24
:101520005041B1FBF3F603FB1611A2FB0645D4EBC9
:10153000C030A94102D2761E8018594146EACC3CFF
:1015400007B34140C7F12006B840F1414140B1FB2B
:10155000F3F603FB1611A2FB0645001BA94102D2BC
:10156000761E8018594180EA010221FA0EF3C7F174
:10157000200462FA0EF20CFA07F05A402CFA04F139
:101580003043F0BD80EA010221FA0EF3002162FA35
:101590000EF260465A40F0BD8C46B1FBF2F102FB00
:1015A00011C31B0243EA1063B3FBF2FC02FB1C33C2
:1015B0001B024CEA002043EA1063B3FBF2FC02FB7F
:1015C0001C331B024CEA002043EA1063B3FBF2FC1D
:1015D00002FB1C331B024CEA002043EA1063B3FBFE
:1015E000F2FC02FB1C324CEA002000237047000092
:1015F000B0B581EA030C0CF0004C40F2FF7515EA1F
:1016000011541DBF15EA1357AC42AF4239E0E4193B
:1016100023EA455343F48013C90241F0004141EAF3
:10162000505EC7021100A7FB020200284FF0000025
:10163000EEFB01204FF00001E3FB072118BF42F051
:101640000102401800214941E3FB0E01A4F580642A
:101650000F0302D252004041494154F101046CDDB4
:10166000470872F1004250F1000051EB0451A1F51E
:1016700080115CBF41EA0C01B0BD4CEA055100206D
:10168000B0BD05EA1357AC4214BFAF4241E050EA87
:10169000410E1CBF52EA430E02E061460020B0BD7D
:1016A00024423C441BD15FEA070EF6D0090302BF77
:1016B00001460020AEF1140EB1FA81F7AEEB07043B
:1016C00001FA07FE0C37C7F1200100FA07F7C840FE
:1016D0004EEA000E23EA455343F48013A2E733F0A9
:1016E0000043B3FA83F704BFB2FA82FE77440B3F9C
:1016F000E41BB7F1200E2FBF02FA0EF3BB40C7F177
:10170000200E22FA0EFE38BF43EA0E03BA40641CD4
:1017100082E750EA410E14BF52EA430E6FF0000117
:101720004FF4001717EB430F8ABF194617EB410F11
:10173000B5E74CEA05510020B0BDD4F10104B4F185
:1017400020070FDAC4F12007520828BF42F0010237
:1017500010FA07F501FA07F7E1BF2A43E0403843E2
:10176000E1400FE0352C98DCC7F1200452EA40023A
:1017700020FA07F218BF42F0010231FA07F0A14047
:101780000A43002172F1004250F1000051EB0C01BC
:10179000B0BD000010B5144600F002F8226010BD84
:1017A000C1F30A5343B14A0012F5001F28D2A3F235
:1017B000FE32A1EB0251704750EA410C20D001F0FB
:1017C000004C31EA0C01B1FA81F204BFB0FA80F3A7
:1017D000D2180B3AB2F120032CBF00FA03F191406A
:1017E00041EA0C013EBFC2F1200C20FA0CF3194370
:1017F0009040524240F2FD33D21A01EB0351704740
:10180000002270474FF4001C1CEB410F94BF1CEBEF
:10181000430F09E041EA030C50EA4C0C52EA0C0C6D
:1018200003D2994208BF9042704714BF8B42824254
:10183000704700004FF4001C1CEB410F94BF1CEBE1
:10184000430F09E041EA030C50EA4C0C52EA0C0C3D
:1018500003D28B4208BF8242704714BF9942904224
:1018600070470000124254D440F2FF7C1CEA11532E
:101870000FD0634531D09B1863453CBF01EB02514B
:10188000704701F0004141EA0C510020AFF30080A5
:10189000704750EA410320D001F0004C91EA0C015E
:1018A0001CD0B1FA81F30B3B9A420DD9D21A994060
:1018B00051EA0C01C3F1200C20FA0CFC6144984061
:1018C000531C40F2FF7CD7E7914041EA0C01C2F182
:1018D000200C20FA0CF3194390407047B0FA80F3C3
:1018E0001533202BE0D3202AEED3203A203B9A4216
:1018F00009D9D21A00FA03F141EA0C010020531C65
:1019000040F2FF7CB8E700FA02F141EA0C01002046
:101910007047524240F2FF7C1CEA11530DD06345E0
:10192000DBD0B2EB030C3CBFA1EB025170470CF1D2
:10193000010221EA035141F4801150EA410CCCD05C
:1019400001F0004C352A27DC30B481EA0C01B2F1F9
:10195000200309DAC2F12003044601FA03F5D0405E
:101960002843D1409C400CE0C3F12002450020FAFE
:1019700003F418BF44F0010421FA03F091400C4332
:10198000002174F1004550F1000051EB0C0124429C
:1019900030BC7FF47BAF70476146002076E70000E3
:1019A000C1F30A5340F2FE329B1A14DDD3F1200337
:1019B0004FEAE17208DDC90241EA505141F00040AE
:1019C000D84080185040704703F2E13010B1D24344
:1019D00082F000407047002070470000C11768B1D6
:1019E0004840401AB0FA80F29040D21CC907C2F5B4
:1019F000846241EA025202EBD021400570470000A8
:101A000070B44FF0004591EA030F40F1BD816B4087
:101A1000841A71EB030603D2001BB1411219734102
:101A20004FF4001C1CEB410F34BF7CEB430442E03D
:101A30000C0DA4EB1356352E4FDC45EAC323DB0A0D
:101A400045EAC121C912B6F120050DDD63FA05F69C
:101A5000EB4086EA0305124218BF45F00105C018A5
:101A600051F100010CD213E062FA06F5F240554044
:101A7000F3415A40B340F3405A408018594107D3CC
:101A800049085FEA30005FEA350528BF45F00105E7
:101A900001F58011420875F1004250F1000041EB60
:101AA00004514E0016F5001F70BC38BF704700206F
:101AB000090D090570471CEB410F10D252EA43068D
:101AC0000BD0BCEB410F05D80C0DAB43661E342E7A
:101AD000B6DD02E0AB438018594170BC704770BC62
:101AE00070470000F0B540F2FF7581EA030C0CF07E
:101AF000004C15EA11541DBF15EA1357AC42AF4212
:101B0000E5E0BC41C1F31301C3F31303801A99410B
:101B100043F4801304D2641E4000494180185941A7
:101B2000C90241EA5051B1FBF3F603FB1611A2FBC7
:101B30000675D7EBC020A94102D2761E8018594104
:101B4000C90241EA5051B1FBF3FE03FB1E11A2FB97
:101B50000E75D7EBC020A94103D2AEF1010E80185B
:101B60005941890241EA9051760546EA8E2EB1FB31
:101B7000F3F603FB1611A2FB0675D7EB8020A941F3
:101B800002D2761E80185941C90241EA50514EEAEC
:101B9000060EB1FBF3F603FB1611A2FB0675D7EB9D
:101BA000C020A94102D2761E80185941C90241EADB
:101BB0005051B1FBF3F703FB1711A2FB0735D3EB31
:101BC000C020A94167F100070CBF004247F00107A0
:101BD00066F3D5274FEA1E31B80814F5806412DD8C
:101BE000BD0775F1004250EB0E5051EB045111F559
:101BF000801F5CBF41EA0C01F0BD4CF07F6141F0F9
:101C0000E0410020F0BDBD076D0840EA0E5041F4F0
:101C10008011D4F10104B4F120060ADAC4F12006DF
:101C20000200E04001FA06F3E1401843B2401543D8
:101C30000EE0342C13DCC6F1200445EA40056D08A3
:101C400020FA06F2154321FA06F0A1400D430021C7
:101C500075F1004250F1000051EB0C01F0BD002085
:101C60005FEA0C01F0BDCFB992185B41B3FA83F77C
:101C700004BFB2FA82F6BF190B3FB7F120062FBF9F
:101C800002FA06F3BB40C7F1200622FA06F638BF77
:101C90003343BA401CB1E419641E33E77F4231F08C
:101CA0000041B1FA81F404BFB0FA80F6A4190B3CEC
:101CB000B4F120062FBF00FA06F1A140C4F12006BE
:101CC00020FA06F638BF3143A0403C1B1AE7AC426D
:101CD0001ABF05EA1357AF4212E050EA41061CBF93
:101CE00052EA4306BFE750EA4107304661461CBF4F
:101CF00041EA0551F0BD52EA430C08BFC143F0BDB3
:101D000000204FF4001616EB410F98BF16EB430F5F
:101D100008BF16EB410F24BFC14305E016EB430F8C
:101D20000CBF61464CEA0551F0BD0000400D49185A
:101D300040EA81200CD2490DA1F58061491C40F098
:101D4000004005DBD1F11F0154BFC840C0177047E8
:101D500000207047014648B1B0FA80F18840C91CA4
:101D6000C1F58461090501EBD021400570470120D0
:101D700000F0BEB87047000070B44FF0004591EA23
:101D8000030F7FF545AE6B40841A71EB030604D256
:101D90006E40001BB141121973414FF4001C1CEB43
:101DA000410F34BF7CEB430682E00C0DA4EB1356CD
:101DB000362E7BDC012E45EAC32341DC43EA525335
:101DC00012BFD20292025B08240545EAC12141EA12
:101DD0005051D2EBC020994125D407D1B0FA80F6FA
:101DE00010FA06F162D00020203608E0B1FA81F640
:101DF000B140C6F1200220FA02F21143B0404FEA8E
:101E0000F474B4EB465434F001064FEA74040AD873
:101E1000D6F50016760D04F00044F04061FA06F2A3
:101E20005040F1404840C00A40EA415021F0004192
:101E300028BF5FEA500550F1000044EBD12135E0A6
:101E4000DB0A45EAC121C90AB6F120050EDD42EAE6
:101E50000242120CC5F1200603FA06F6EB4042EAF4
:101E600006056D42984161F100010DE062FA06F548
:101E7000F240554063FA06FC82EA0C02F3405A40F5
:101E80006D42904161EB030111F4801F05D1641E86
:101E9000620502D06D004041494121F480114308A0
:101EA00075F1004350F1000041EB045170BC7047E4
:101EB0001CEB410F15D223F0004352EA43060BD02E
:101EC0004FEA4C0CBCEB410F04D80C0D661E342EAF
:101ED000B7DDEBE7801A994150EA410608BF0021BF
:101EE000E4E708BF1CEB430F28BF6FF00001DDE7FC
:101EF00080B5AFF30080024A11001820ABBEFBE7AB
:101F0000260002002DE9F0410400002500270026EC
:101F1000002C01D10120A2E094F83C00002805D15A
:101F2000002084F83D00200000F0AEFC022084F880
:101F30003C002068006830F00200216808602068DA
:101F4000006850F001002168086000F0C1FD804683
:101F500020684068C0070DD400F0BAFDB0EB08005F
:101F60000B28F5D3032084F83C00002084F83D00C2
:101F7000032074E020684068C00763D5A069012889
:101F800002D156F0800601E036F08006E0690128B3
:101F900002D156F0400601E036F04006206A0128E2
:101FA00002D156F0200601E036F02006606A0128D2
:101FB00002D156F0100601E036F01006A06A0128A2
:101FC00002D156F0080601E036F00806E06A012862
:101FD00002D156F0040601E036F0040620680068DD
:101FE00030F0FC00304321680860A168E0680143DC
:101FF00020690143606901436068401E0143206815
:10200000C16120680068400840002168086000F055
:102010005FFD804620684068C0070DD500F058FD80
:10202000B0EB08000B28F5D3032084F83C00002017
:1020300084F83D00032012E020684068C00701D406
:1020400001200500012D06D100202064012084F824
:102050003C00002003E0042084F83C000120BDE89F
:10206000F08130B40200002401204B6910FA03F320
:102070001068D0F8000230F47C504D6A50EA052018
:1020800050F001001568C5F800021068D0F81C0275
:1020900098431568C5F81C02C86900281CD110684F
:1020A000D0F80C0298431468C4F80C0210684C690C
:1020B00000EBC400CC684D68ADB255EA0445C0F8E9
:1020C000405210684C6900EBC4008C680D68ADB2DA
:1020D00055EA0445C0F84452C86901281CD110686B
:1020E000D0F80C0218431468C4F80C0210684C694C
:1020F00000EBC4000C684D68ADB255EA0445C0F869
:10210000405210684C6900EBC4008C68CD68ADB2D9
:1021100055EA0445C0F844528869002807D1106880
:10212000D0F8040298431468C4F8040206E010686A
:10213000D0F8040218431468C4F80402086900289F
:1021400007D11068D0F8140298431468C4F8140238
:1021500006E01068D0F8140218431468C4F814029A
:10216000086A012806D11068D0F81C0218431468C8
:10217000C4F81C021068D0F800024008400014683F
:10218000C4F80002002030BC704702000800C0B252
:10219000002811D192F83C0022280BD092F83C0084
:1021A000422807D092F83C00622803D092F83C0005
:1021B000722801D1022072E00800C0B2012811D1BA
:1021C00092F83C0032280BD092F83C00522807D0FD
:1021D00092F83C00622803D092F83C00722801D1AA
:1021E00002205CE092F83D00012801D1022056E077
:1021F000012082F83D000800C0B2002818D192F8F2
:102200003C00122804D0322806D0522808D00BE017
:10221000422082F83C0023E0622082F83C001FE06C
:10222000722082F83C001BE0222082F83C0017E07C
:1022300092F83C00122804D0222806D0422808D068
:102240000BE0522082F83C000AE0622082F83C0059
:1022500006E0722082F83C0002E0322082F83C0066
:10226000002010641068406940F40F4050F00100F5
:1022700013685861002082F83D000800C0B20028B1
:1022800006D11068406950F00A001368586105E0F3
:102290001068406950F05000136858610020704782
:1022A0002DE9F0478046002200235FF000095FF02F
:1022B000000AD8F80000C068000910F00100D8F842
:1022C00000104969C1F3C00111F00101002807D0D5
:1022D000002905D05AF4007A1022D8F80030DA60CC
:1022E000D8F800201669360916F00106D8F8002043
:1022F0005269C2F3801717F00107002E07D0002F94
:1023000005D05AF4806A1020D8F800100861D8F877
:1023100000004069C00750D5D8F800008168AB487C
:102320000140AA48814201D1012600E00026D8F8E8
:1023300000008168A6480140A548814201D10127DB
:1023400000E00027D8F800008168A2480140A148B9
:10235000814202D15FF0010901E05FF0000957EA14
:10236000060059EA0000002827D0D8F8000080684D
:10237000400810F001000600D8F800008068400A0C
:1023800010F001000700D8F80000806810F001008C
:10239000814657EA060059EA0000002803D040466B
:1023A00000F01EF901E05AF4006AD8F800008168D4
:1023B00089480143D8F800008160D8F80000C4685B
:1023C00014F00304D8F800004069C0F3400515F08C
:1023D0000105002C05D0002D03D00021404600F05F
:1023E0002EF9D8F80000066916F00306D8F80000A8
:1023F0004069C0F3001717F00107002E05D0002F29
:1024000003D00121404600F01AF9D8F840005AEAFA
:102410000000C8F84000D8F80000806910F0010002
:10242000D8F800104969C1F3002111F00101D8F872
:1024300000205269C2F3C03212F00102002809D014
:10244000002907D0002A05D0D8F8403053F0010306
:10245000C8F84030D8F800309B695B0813F00103DE
:10246000D8F800406469C4F3402414F00104D8F89B
:1024700000506D69C5F3C03515F00105002B09D07A
:10248000002C07D0002D05D0D8F8400050F00200F5
:10249000C8F84000D8F800008269920812F00102E2
:1024A000D8F800004069C0F3802010F00100D8F88F
:1024B00000104969C1F3C03111F00101002A09D0AF
:1024C000002807D0002905D0D8F8403053F0040385
:1024D000C8F84030D8F800309B6913F0700F01D174
:1024E000012400E00024D8F800205269C2F3C0257E
:1024F00015F00105D8F800205269C2F3C03616F075
:102500000106002C49D1002D47D0002E45D0D8F827
:102510000000806910F070000400200010280AD02C
:1025200020280FD0302814D0402819D050281ED091
:10253000602823D029E0D8F8400050F00800C8F8FF
:10254000400022E0D8F8400050F01000C8F84000E9
:102550001BE0D8F8400050F02000C8F8400014E01C
:10256000D8F8400050F04000C8F840000DE0D8F81E
:10257000400050F08000C8F8400006E0D8F8400065
:1025800050F48070C8F84000FFE7D8F80000806978
:1025900030F07000D8F800108861D8F840000028AA
:1025A00011D00420D8F800104860012088F83C00C1
:1025B000D8F80000416909480140D8F8000041619D
:1025C000404600F01FFABDE8F0870000010000045B
:1025D000000100080000011009050100A470FFFFC0
:1025E00010B5040020684069400840002168486137
:1025F00094F83C00122805D12068406930F40F405F
:102600002168486194F83C00422804D0522806D042
:10261000722808D00BE0222084F83C000AE0322027
:1026200084F83C0006E0622084F83C0002E00120CF
:1026300084F83C00200000F051FA002010BDF8B5ED
:1026400004000D00002100222800C0B2002801D1A2
:10265000666B00E0A66B20682A00D2B2120110441B
:10266000D0F8B00110F00400B060B068002809D1C3
:1026700020682A00D2B212011044D0F8B001400DF7
:10268000306008E020682A00D2B212011044D0F86D
:10269000B001C008706020682A00D2B21201104454
:1026A000D0F8B00110F00200F06020682A00D2B229
:1026B00012011044D0F8B40110F00F00306128006E
:1026C000C0B2306220682A00D2B212011044D0F8A1
:1026D000B401C0F30720F06120682A00D2B21201D1
:1026E0001044D0F8B801307520682A00D2B2120127
:1026F0001044D0F8B801000A707520682A00D2B2E0
:1027000012011044D0F8B801000CB07520682A00FE
:10271000D2B212011044D0F8B801000EF075206852
:102720002A00D2B212011044D0F8BC0130762068E1
:102730002A00D2B212011044D0F8BC01000A70760F
:1027400020682A00D2B212011044D0F8BC01000C5B
:10275000B07620682A00D2B212011044D0F8BC0131
:10276000000EF0762800C0B2002809D1202022688F
:10277000D0602068406930F00A002268506108E0AB
:102780002020226810612068406930F050002268E3
:10279000506194F83C70222F01D0322F05D120686F
:1027A000406930F40F40216848612800C0B2002819
:1027B00018D194F83C00422804D0622806D0722830
:1027C00008D00BE0122084F83C0023E0322084F88B
:1027D0003C001FE0522084F83C001BE0012084F8FC
:1027E0003C0017E094F83C00522804D0622806D040
:1027F000722808D00BE0122084F83C000AE0222066
:1028000084F83C0006E0422084F83C0002E001200D
:1028100084F83C00200000F0D3F80020F2BD000056
:1028200080B5DFF86802DFF8681208600320DFF87F
:102830006012486000209649886000209449C86072
:102840005FF40020924908615FF48010904948616C
:1028500000208F49886100208D49C86100208C4983
:10286000086200208A494862002089498862002065
:102870008749C8628648FFF745FB002803D04F21EF
:10288000844800F013FA01BD18B585B00400206833
:102890007E49884221D18048006850F000707E490E
:1028A00008607D48006810F00070009000984FF4B8
:1028B00000600190002002900020039001A9774859
:1028C00000F0F6F94FF480500190022002900320AE
:1028D000049001A9714800F0EBF906B010BD80B575
:1028E0006F486B4908636F486949486300F014F802
:1028F00000216748FFF749FC002807D064480068BA
:10290000406950F00A00624909684861664800F071
:102910008BFB00F089F801BD80B500206349486158
:1029200000206249886101206049C86160480068F0
:1029300000F066FC40015D49086000205B4948608A
:102940004FF6E0705949886000205849C86000205F
:10295000564908610120554908620E2053494862D2
:1029600052494B48FFF77DFB01BD38B504000D000F
:1029700040F60100844206D3D62246494D4800F075
:1029800055FCAFF300804C480068322806DBD722A4
:102990004049484800F04AFCAFF3008047484649A8
:1029A000096840F8315045484349096800EBC100C7
:1029B000446041480068401C3F490860002032BD27
:1029C00038B504000025082D06DA606B2844007D28
:1029D0003B4948556D1CF6E7606B0168394800F0CB
:1029E00023FB3749384800F01FFB00212000FFF788
:1029F000CCFB002805D02068406950F00A0021680F
:102A0000486131BD10B504000020216848600021F4
:102A10002000FFF7BAFB002805D02068406950F07D
:102A20000A002168486110BD80B528490020FFF7E1
:102A30009CFF26490120FFF798FF24490220FFF759
:102A400094FF22490320FFF790FF20490420FFF75D
:102A50008CFF1E490520FFF788FF1C490620FFF761
:102A600084FF1A490720FFF780FF18490820FFF765
:102A70007CFF16490920FFF778FF14490A20FFF769
:102A800074FF12490B20FFF770FF01BD0064004086
:102A900058090020C47900081C10024000080140B9
:102AA000C40B00207C0B00204C7C00080C0B002089
:102AB000A00B0020387F0008100C002040060020EA
:102AC000000C0020D87E0008887D000809790008E5
:102AD00001480068704700BF180C002070470000D4
:102AE00080B500F0B5FB00F026F800F0C5FBFFF75D
:102AF00097FE00F039FC00F0A7FC00F047FA00F068
:102B000047FD00F06DFD00F002FD00F058F800F008
:102B1000F4FA00F0F4FD00F021FEFFF7E0FE5A4861
:102B200000F082FA00F0F0FA584800680028F9D165
:102B300000F074FFF6E700B58FB0012005905FF458
:102B400080300690002007900120099002200C9010
:102B50005FF480300D905FF4E0100E9005A800F057
:102B6000A7FF002803D0A621494800F09FF80F20B6
:102B7000009002200190002002904FF480600390AA
:102B8000002004900221684601F0BDF9002803D01E
:102B9000B4213F4800F08AF801F0B2FA4FF47A719C
:102BA000B0FBF1F001F08BFB042001F08EFB002262
:102BB00000215FF0FF3001F066FB0FB000BD80B573
:102BC00000220121092001F05EFB092001F070FBC9
:102BD000002201210A2001F056FB0A2001F068FBC7
:102BE00000220021142001F04EFB142001F060FBB4
:102BF00000220121172001F046FB172001F058FBAD
:102C000000220321352001F03EFB352001F050FB6E
:102C100001BD80B51F480068401C1E4908601D4862
:102C2000006814200A201B4909681A4A126892FB9E
:102C3000F0F200FB121000280DD1174800680028A0
:102C400009D01648C36815488268154801681548B8
:102C5000006801F099FB05200E4909680D4A1268C9
:102C600092FBF0F200FB1210002802D101200E4965
:102C70000860084800684FF6FD71884202DB0020BA
:102C80000449086001BD0000207F00083C0C0020C2
:102C9000F4790008140C0020380C0020340B0020BC
:102CA000280C0020300C00201C0C0020FEE7000047
:102CB0002DE9F843020000240025002600275FF0DC
:102CC00000085FF0000EBEF1100F80F015810120AA
:102CD00010FA0EF00400086820400500A54240F0FC
:102CE00008814868002831D0012820D0022825D04A
:102CF00003283CD011281DD0122823D0DFF83CC275
:102D0000604523D0DFF838C260451FD0DFF834C2F9
:102D100060451BD0DFF830C2604517D0DFF82CC209
:102D2000604513D0DFF828C260450FD022E0C868A4
:102D300007001FE0C868001D07001BE0C8680830D6
:102D4000070017E0C8680C30070013E08868002807
:102D500002D10420070009E08868012803D1082077
:102D60000700146102E008200700546102E000201F
:102D70000700FFE7B5F5807F01D2130000E0131DC7
:102D8000B5F5807F02D25FEA8E0803E0BEF1080845
:102D90005FEA8808D3F800C00F2010FA08F03CEA78
:102DA000000C17FA08F050EA0C0CC3F800C0486891
:102DB000C00040F19E80DFF89C01006850F00100E7
:102DC000DFF890C1CCF80000DFF88801006810F04F
:102DD000010000900098DFF88001F4465FEA9C0C47
:102DE00050F82CC05FF00F091EF00300C0B2800045
:102DF00019FA00F93CEA090C5848824202D15FF006
:102E000000091FE05648824202D15FF0010919E033
:102E10005448824202D15FF0020913E052488242D4
:102E200002D15FF003090DE05048824202D15FF009
:102E3000040907E04E48824202D15FF0050901E033
:102E40005FF0060966461EF00300C0B2800019FA62
:102E500000F959EA06064048F4465FEA9C0C40F83F
:102E60002C604868C00307D5424800682843DFF853
:102E700004C1CCF8000006E03E480068A843DFF833
:102E8000F4C0CCF800004868800307D53A480068D1
:102E90002843DFF8E4C0CCF8000006E036480068BC
:102EA000A843DFF8D4C0CCF800004868C00207D5BA
:102EB000324800682843DFF8C4C0CCF8000006E0C0
:102EC0002E480068A843DFF8B4C0CCF8000048687A
:102ED000800207D52A4800682843DFF8A4C0CCF850
:102EE000000006E026480068A843DFF894C0CCF84C
:102EF00000001EF1010EE6E6BDE8F1831300DBB22F
:102F0000002B03D00B009BB2036103E00B009BB2CC
:102F10001B040361704710B504001A4800682100C3
:102F200089B2084207D0200080B21649086020000C
:102F300080B200F029F810BD000000000000111060
:102F400000001210000021100000221000003110BB
:102F50000000321018100240080001400008014033
:102F6000000C014000100140001401400018014015
:102F7000001C014000040140040401400804014019
:102F80000C040140140401407047000080B58E48D5
:102F90008E4908605FF4E1308C49486000208B491D
:102FA000886000208949C8600020884908610C2099
:102FB0008649486100208549886100208349C861AD
:102FC000824801F039FA002803D048218048FFF7F1
:102FD0006DFE01BD18B585B0040020687A498842AD
:102FE00020D17C48006850F480107A490860794804
:102FF000006810F48010009000984FF48050019009
:10300000022002900320049001A97348FFF750FEAC
:1030100004200190002002900020039001A96F4835
:10302000FFF746FE06B010BD0EB478B5040005AE3D
:103030003300220065216A4801F046FD05004FF487
:103040007A732800020092B26549604801F02FFAB5
:1030500071BC5DF810FB10B5040020685A49884225
:103060003DD160480088000439D45E48008840049F
:103070000ED55D4800780A2803D000205949088001
:103080002DE05848008850F400405649088026E05A
:10309000554800780D280ED15248008850F48040E1
:1030A000504908805048007850494E4A128892048E
:1030B000920C885413E04C4800784C49494A1288D5
:1030C0009204920C885447480088401C4549088067
:1030D00044480088C82802DB0020424908800122B9
:1030E00041493A4801F053FA10BD10B504000122DD
:1030F0003D49364801F04BFA10BD80B501223A49EE
:10310000324801F044FA01BD7CB53649098809040A
:1031100057D534490C88A404A40C002C08D10122F2
:1031200031492A4801F033FA00202E49088048E04E
:103130002F4A69462D4800F01EFB0600002E23D5BD
:1031400016F1030F09D10025012227491F4801F07C
:103150001EFA00202349088033E016F1020F03D144
:103160002448FFF761FF05E016F1010F02D1224864
:10317000FFF75AFF002501221B49144801F007FA06
:103180000020184908801CE01949009800F038FB1D
:103190000500002D11D515F1020F04D11448016866
:1031A0001648FFF741FF002601220F49074801F0AA
:1031B000EEF900200B49088003E000200021094AB5
:1031C000118073BD00000000005000409C0A0020E8
:1031D000847A00081C1002400010014000140140D5
:1031E000980800204C0C00204F0C0020D007002035
:1031F000DC0A0020647D0008A87E0008B87E000874
:10320000C0F3C7517E390EDDC217D1F1200106DDB2
:10321000000240F00040C840104450407047D04386
:1032200080F00040704700207047000000B583B078
:103230000091019202906A4604491820ABBE002812
:1032400001D1FEF794FD03B000BD00BF10100200D5
:1032500080B50848006850F0100006490860032057
:1032600001F00BF8002001F04DFC01F071FC002092
:1032700002BD00000020024000B585B0354800685E
:1032800050F01000334908603248006810F0100018
:10329000049004982F48006850F020002D490860E1
:1032A0002C48006810F02000049004982948006819
:1032B00050F00400274908602648006810F0040018
:1032C000049004982348006850F0080021490860E1
:1032D0002048006810F008000490049800224EF284
:1032E00040011D48FFF70AFE002241F601411B483C
:1032F000FFF704FE4EF240000090012001900020F4
:1033000002900220039069461348FFF7D1FC382051
:103310000090134801900020029069461148FFF781
:10332000C7FC41F60140009001200190002002906E
:103330000220039069460948FFF7BAFC022000907A
:10334000002001900120029069460448FFF7B0FC7C
:1033500005B000BD1810024000100140000C0140F3
:10336000000011100008014080B532483249086061
:103370004FF482703049486000202F4988604FF434
:1033800000602D49C86000202B49086101202A49AE
:1033900048614FF400702849886128202649C86197
:1033A0000020254908620020234948620020224964
:1033B00088620A202049C8621F4801F01FFC0028CB
:1033C00003D045211D48FFF771FC1B4800680068C9
:1033D00050F0400018490968086001BD18B585B073
:1033E000040020681349884221D11548006850F430
:1033F0008040134908601248006810F48040009033
:1034000000984FF420400190022002900320049085
:1034100001A90C48FFF74CFC4FF4804001900020BC
:1034200002900020039001A90648FFF741FC06B076
:1034300010BD00000038004000090020247A000878
:103440001C100240000C014000B589B05FF08040C4
:10345000DFF8D81208600020DFF8D01248600020A2
:10346000DFF8C812886041F29310DFF8C012C8601C
:103470000020DFF8B81208610020DFF8B012886180
:10348000DFF8A80201F01CFC002804D04421DFF87A
:10349000A002FFF70BFC002000900020019069467D
:1034A000A24801F0A1FE002803D04B21A048FFF75D
:1034B000FDFB60200290002003900020049000207B
:1034C0000690002202A9994801F0C6FC002803D00A
:1034D00054219748FFF7EAFB042202A9934801F020
:1034E000BBFC002803D059219148FFF7DFFB0822DD
:1034F00002A98E4801F0B0FC002803D05E218C4860
:10350000FFF7D4FB894800F0E9F809B000BD00B529
:103510008BB08848884908600020874948600020AF
:10352000854988604FF6FF708349C8600020824952
:1035300008610020804988610320029000200390E8
:1035400001200490002005900020069000200790A4
:10355000012008900020099000200A9002A97648D6
:1035600001F0F4FB002803D07B217148FFF79EFB9C
:10357000002000900020019069466F4801F034FE61
:10358000002803D082216A48FFF790FB0BB000BDF2
:10359000E0B56A486A49086000206949486000202F
:1035A0006749886000206649C860002064498861D6
:1035B000634801F069FB002803D092215C48FFF7C3
:1035C00075FB002000900020019069465C4801F0E6
:1035D0000BFE002803D099215548FFF767FB07BD74
:1035E000E0B5584858490860002057494860002015
:1035F0005549886000205449C860002052498861BC
:10360000514801F041FB002803D0A9214848FFF7A9
:103610004DFB002000900020019069464A4801F0CF
:10362000E3FD002803D0B0214148FFF73FFB07BD71
:1036300081B00168B1F1804F0BD14449096851F064
:103640000101424A11604149096811F001010091EC
:10365000009901B0704718B585B00400206835495D
:10366000884215D13948006850F004003749086095
:103670003648006810F0040000900098C0200190C7
:10368000002002900020039001A93148FFF710FBB1
:1036900006B010BD81B00168284A91420CD12B4977
:1036A000096851F01001294A11602849096811F090
:1036B0001001009100990FE00168224A91420BD15C
:1036C0002249096851F02001204A11601F49096808
:1036D00011F020010091009901B070471FB504005E
:1036E0002068B0F1804F09D107200090022001909E
:1036F0000220039069461748FFF7DAFA1FBD80B52C
:1037000018210D4801F081FB47F6FF70124908604F
:103710000021064801F0F0FA0421044801F0ECFA17
:103720000821024801F0E8FA01BD00009C090020D0
:10373000547A000800080040DC0900200010004016
:103740001C0A0020001400405C0A00201C100240EB
:10375000000C0140000801402408004010B500247E
:103760000C2C07DA112001F06DFD504941F82400BE
:10377000641CF5E710BDF0B404000B000027002125
:103780000026E55D7F1C2800C0B20D2827D0280048
:10379000C0B2202816D1002903D1E05D05007F1CAE
:1037A000F1E70C2E02D15FF0FF3027E0002052F845
:1037B00026C00CF80100761C00200100E05D050029
:1037C0007F1CE0E7102902D17FF0010016E052F8DB
:1037D00026004554491CE05D05007F1CD3E751EAF3
:1037E0000600002802D17FF0020007E0002052F816
:1037F00026C00CF80100761C1E600020F0BC70474B
:103800002DE9F04704000D0000211126002C02D103
:103810005FF0FF3026E00027B74221D22968244814
:10382000542202FB07F2104401F02EFD002815D1AE
:10383000290020001E4A542303FB07F31A44126D8B
:1038400090475FF081085FF00009DFF868A04A4602
:103850004146504601F03EFD002003E07F1CDBE7BF
:103860007FF00100BDE8F087F8B504000D001126D7
:10387000022C03DB1048FFF7D7FB16E00027B74206
:1038800013D20B48542101FB07F101440B48FFF709
:10389000CBFB0748542101FB07F1084410F110014C
:1038A0000748FFF7C1FB7F1CE9E7F1BDDC0A0020F8
:1038B00008000020D0070020CC7B0008FC7E000818
:1038C000A87D000810B504002000002101F036FD9D
:1038D00005D821006648006801F042FD07E021009C
:1038E00091F000416248D0F8020001F039FD10BDAE
:1038F00038B504005F480068002806D101F0DCFDFF
:1039000001F0E8FD5C4908602FE001F045FE01F0A0
:1039100083FE5A490860594800685949096801F00E
:1039200089FE5549086054480068564901F006FD73
:1039300007D851480068544901F0BCFE4E49086060
:10394000F1E74D4800685FF0464101F025FF08D2DD
:10395000494800685FF08D4101F0ACFE46490860BF
:10396000EFE746480068464908602200424801687F
:10397000464800F0CFFC05002800FFF7A3FF31BD4B
:1039800038B504003B48006800280ED101F094FDD2
:1039900001F0A0FD384908603848016836480068E1
:1039A00001F088FE3549086025E001F0F5FD01F0E1
:1039B00033FE3249086020003049096801F03AFEC0
:1039C000304901F0BBFC05D82F48210001F072FE00
:1039D0000400F0E720002949096801F02BFE5FF0A0
:1039E000464101F0D9FE06D25FF08D40210001F082
:1039F00061FE0400EEE7220020480168244800F040
:103A000089FC050023480078002803D02800FFF730
:103A10006FFF02E02800FFF755FF31BD80B51E485B
:103A20000068002803D0022812D005D31CE01B48F0
:103A30000068FFF747FF1AE019480068002806D021
:103A400018480068FFF754FF0020154908600EE091
:103A500013480068002806D013480068FFF790FF5D
:103A600000200F49086002E01048FFF7DDFA01BDB1
:103A7000040000200C0C0020280C0020200C00204A
:103A8000240C002001000046000080C6340B0020FA
:103A9000580B00204E0C0020000000202C0C0020B1
:103AA0001C0C0020300C0020340C0020787D000815
:103AB0007CB5040000252078C00740F18480DFF841
:103AC000A006006810F00C0004280BD0DFF8900668
:103AD000006810F00C0008280ED1DFF8840600689A
:103AE000C00309D5DFF87406006880036BD56068F1
:103AF000002868D1012005E26068B0F5803F08D158
:103B0000DFF85806006850F48030DFF8501608607F
:103B100038E06068002810D1DFF84006006830F413
:103B20008030DFF838160860DFF83006006830F4BF
:103B30008020DFF82816086024E06068B0F5A02F28
:103B400010D1DFF81806006850F48020DFF80C165A
:103B50000860DFF80806006850F48030DFF8FC15D4
:103B600008600FE0DFF8F405006830F48030DFF81B
:103B7000EC150860DFF8E405006830F48020DFF819
:103B8000DC150860606800280ED0FEF7A1FF050074
:103B9000DFF8C8050068800315D4FEF799FF401BC5
:103BA0006528F5D30320ADE1FEF792FF0500DFF8AD
:103BB000AC050068800306D5FEF78AFF401B652828
:103BC000F5D303209EE1207880075CD5DFF89005CF
:103BD000006810F00C0F0BD0DFF88405006810F0BF
:103BE0000C0008281AD1DFF878050068C00315D446
:103BF000DFF868050068800704D52069012801D036
:103C000001207FE1DFF85405006830F0F8006169B9
:103C100050EAC100DFF84415086034E0206900284C
:103C20001ED00120DFF848150860FEF751FF05009F
:103C3000DFF828050068800706D4FEF749FF401B1F
:103C40000328F5D303205DE1DFF81005006830F0AC
:103C5000F800616950EAC100DFF80015086012E061
:103C60000020DFF80C150860FEF732FF0500DFF8D2
:103C7000EC040068800706D5FEF72AFF401B0328E6
:103C8000F5D303203EE1207800072CD5A069002859
:103C900016D00120DFF8DC140860FEF719FF0500DC
:103CA000DFF8C8040068800706D4FEF711FF401B48
:103CB0000328F5D3032025E1012000F03AFA12E0B1
:103CC0000020DFF8B0140860FEF702FF0500DFF8FF
:103CD0009C040068800706D5FEF7FAFE401B032807
:103CE000F5D303200EE12078400740F1A88000269C
:103CF000DFF884040068C00010D4DFF87C0400689A
:103D000050F08050DFF870140860DFF86C04006831
:103D100010F080500090009801200600DFF85C044D
:103D20000068C00516D4DFF85404006850F48070B1
:103D3000DFF848140860FEF7CBFE0500DFF83C040E
:103D40000068C00506D4FEF7C3FE401B6528F5D306
:103D50000320D7E0E068012808D1DFF824040068D8
:103D600050F00100DFF81814086037E0E068002820
:103D700010D1DFF80C04006840084000DFF80014A0
:103D80000860DFF8FC03006830F00400DFF8F0138F
:103D9000086023E0E068052810D1DFF8E40300683C
:103DA00050F00400DFF8D8130860DFF8D40300688F
:103DB00050F00100DFF8C81308600FE0DFF8C0031F
:103DC000006840084000DFF8B8130860DFF8B0036F
:103DD000006830F00400DFF8A8130860E0680028ED
:103DE00010D0FEF775FE0500DFF894030068800729
:103DF00019D4FEF76DFE401B41F289318842F3D39E
:103E000003207FE0FEF764FE0500DFF8740300681E
:103E1000800708D5FEF75CFE401B41F289318842DD
:103E2000F3D303206EE03000C0B2012807D1DFF8E1
:103E30004803006830F08050DFF83C130860E06908
:103E400000285ED0DFF81803006810F00C00082886
:103E500055D0E06902283FD10020DFF82813086020
:103E6000FEF736FE0600DFF8F4020068800106D592
:103E7000FEF72EFE801B0328F5D3032042E0206AC4
:103E8000B0F5803F09D1DFF8D802016831F4003184
:103E9000A0680143DFF8C8020160DFF8C4020168CE
:103EA00031F47411206A0143606A0143DFF8B00203
:103EB00001600120DFF8CC120860FEF709FE050062
:103EC000DFF89802006880011BD4FEF701FE401B5A
:103ED0000328F5D3032015E00020DFF8A8120860BE
:103EE000FEF7F6FD0500DFF874020068800108D5D2
:103EF000FEF7EEFD401B0328F5D3032002E001206E
:103F000000E0002076BD70B504000D000026DFF84B
:103F10007802006810F00700A84211D2DFF86802AA
:103F20000068C008C0002843DFF85C120860DFF8B2
:103F30005802006810F00700A84201D00120A5E057
:103F40002078800709D5DFF81802016831F0F00108
:103F5000A0680143DFF8080201602078C0075AD545
:103F60006068012806D1DFF8F4010068800312D4EC
:103F700001208BE06068022806D1DFF8E0010068CC
:103F8000800108D4012081E0DFF8D00100688007BB
:103F900001D401207AE0DFF8C801016889088900AE
:103FA00060680143DFF8B8010160FEF791FD06008B
:103FB000606801280FD1DFF8A801006810F00C003C
:103FC000042828D0FEF784FD801B41F28931884205
:103FD000F1D303205AE0606802280ED160480068DF
:103FE00010F00C00082816D0FEF772FD801B41F27D
:103FF00089318842F2D3032048E05948006810F024
:104000000C0F08D0FEF764FD801B41F28931884215
:10401000F3D303203AE05C48006810F007008542C3
:104020000ED259480068C008C000284356490860AD
:104030005548006810F00700A84201D0012025E093
:104040002078400707D54648016831F4E061E06810
:104050000143434801602078000708D540480068C4
:1040600030F46050216950EAC1003D49086000F019
:104070000EF846493A4A1268C2F30312895CC840F6
:1040800039490860002000F03DFD002070BD78B582
:1040900085B001A83E491022FDF74EF93D48008841
:1040A000ADF80000002000210022002300242C4D48
:1040B0002D6815F00C06042E02D0082E02D01CE04C
:1040C00028481BE001A8C5F38346805D0300E80390
:1040D0000DD56846224E3668C6F34046805D010025
:1040E000204800FB03F0B0FBF1F0020003E02A4897
:1040F00000FB03F00200100000E01A4806B070BD9B
:1041000019480068704780B5FFF7FAFF2349144A41
:104110001268C2F30222895CC84002BD80B5FFF775
:10412000EFFF1E490E4A1268C2F3C222895CC840E2
:1041300002BD81B00C490968C9084FF47A72B1FB1D
:10414000F2F101FB00F1009100BF00994A1E0092BC
:104150000029F9D101B070470000000000100240B2
:104160000410024000127A00A00500202410024032
:1041700000004242800442421C1002400070004095
:10418000201002406000424200200240987E000859
:10419000887E00081613000800093D00407F0008D3
:1041A00010F0070351490A684FF6FF010A405049D1
:1041B00051EA03210A434D490A6070474B480068A1
:1041C000C0F302207047012210F01F018A404949C4
:1041D00003005BB25B0941F82320704710B4020072
:1041E00052B2002A09D50A01434B040064B214F00C
:1041F0000F04234403F8042C04E00A013F4B04009D
:1042000064B21A5510BC704770B4030013F0070471
:10421000D4F10700052801D3042001E0D4F1070000
:10422000251D072D01D2002500E0E51E012616FA06
:1042300000F0401E0140A940012010FA05F56D1E56
:104240002A401143080070BC704710B50400601E7E
:10425000B0F1807F01D301200EE0601E2849086084
:104260000F215FF0FF30FFF7B9FF002025490860FC
:10427000072025490860002010BD10B5040020006B
:10428000FFF78EFF10BD2DE9F04104000D00160070
:104290000027FFF793FF8046320029004046FFF7D2
:1042A000B3FF0100200040B2FFF798FFBDE8F081A6
:1042B00010B50400200040B2FFF785FF10BD10B517
:1042C00004002000FFF7C1FF10BD042806D10E49ED
:1042D000096851F004010C4A116005E00A490968B7
:1042E00031F00401084A1160704700000CED00E055
:1042F0000000FA0500E100E018ED00E000E400E055
:1043000014E000E018E000E010E000E080B5FEF707
:1043100080FC01BDF8B504000D0016002660656044
:104320002068616801F086F9E060E168A06801F04A
:10433000C1F9A060A068364901F000F801D83448FE
:10434000A060A068334901F027FA01D23248A0608A
:104350006169E06801F032FA0700A169A06801F024
:104360002DFA390001F0A6F90700E068216901F093
:1043700061F9E16901F022FA390001F09BF920624C
:10438000E0682061206AF2BD2DE9FF4F81B0012273
:104390002249234800F0FBF81020224988700620AB
:1043A0002049C8700D201F4908750A201D4948750D
:1043B0000420009001AC1C4D009A21002800FCF75D
:1043C000ABFF042502AE194F2A0031003800FCF77C
:1043D000A3FF04270DF10C08DFF854903A00414682
:1043E0004846FCF799FF5FF004090DF1100ADFF869
:1043F00044B04A4651465846FCF78EFF4FF47A7354
:1044000016220849064800F052F805B0BDE8F08FC2
:1044100000007A46FFFF79C600007AC64F0C0020E4
:104420009C0A0020A4050020A8050020AC0500205F
:10443000B0050020B405002010B50400002C01D107
:10444000012033E0A0690028FFD194F8390000284A
:1044500005D1002084F838002000FEF7BBFD2420A1
:1044600084F839002068C06830F400502168C860C2
:10447000200000F05DFA2068006930F49040216867
:1044800008612068406930F02A002168486120688E
:10449000C06850F400502168C8600020E06320200C
:1044A00084F83900202084F83A00002010BD2DE95E
:1044B000FC4705000C0016001F005FF0000A95F88D
:1044C0003900202860D1002C03D0300080B20028B1
:1044D00001D1012059E095F83800012801D10220CE
:1044E00053E0012085F838000020E863212085F89A
:1044F0003900FEF7EDFA8146AE84EE84E88C0028A0
:104500002FD0E88C401EE884A868B0F5805F18D1F1
:1045100000974B4600228021280000F016F9002861
:1045200001D0032031E0A046B8F80000C005C00D5E
:10453000296848602869002801D1A41CDEE7641CB2
:10454000DCE700974B4600228021280000F0FDF8B0
:10455000002801D0032018E0207829684860641CF6
:10456000CCE700974B4600224021280000F0EDF8F0
:10457000002801D0032008E0202085F83900002021
:1045800085F83800002000E00220BDE8F68710B46E
:10459000030093F83A0020282FD1002903D01000FF
:1045A00080B2002801D1012028E093F838000128CA
:1045B00001D1022022E0012083F8380099629A8517
:1045C000DA850020D863222083F83A00002083F89F
:1045D00038001868C06850F480701C68E060186883
:1045E000406950F001001C6860611868C06850F0B4
:1045F00020001C68E060002000E0022010BC704732
:104600002DE9F8430600306807683068D0F80C8060
:104610003068D0F814900020002517F00F04002C0B
:1046200008D1B80606D55FEA886003D5300000F0EF
:1046300028F988E0002C74D05FEAC97002D418F41D
:10464000907F6ED017F00100C0B2002806D05FEA5C
:10465000C85003D5F06B50F00100F063780708D51F
:1046600019F00100C0B2002803D0F06B50F0020036
:10467000F063B80708D519F00100C0B2002803D0D4
:10468000F06B50F00400F063380708D519F0010012
:10469000C0B2002803D0F06B50F00800F063F06B5C
:1046A00000283DD0B80605D55FEA886002D5300005
:1046B00000F0E7F830684069800910F0010005005B
:1046C000F06B000701D4002D25D0300000F074F805
:1046D0003068406940061AD53068406930F04000C3
:1046E00031684861706B00280DD00FF2F100716BDA
:1046F0004863706B01F0CEF8002811D0706B716BBD
:10470000496B88470CE03000FEF7EFFC08E0300012
:10471000FEF7EBFC04E03000FEF7E7FC0020F0635E
:1047200011E0380606D55FEA086003D5300000F0D6
:1047300061F808E0780606D55FEA486003D53000E6
:1047400000F08FF8FFE7BDE8F1832DE9F0410500A7
:104750000E0090461F00069C286800683040B0425A
:1047600001D1012000E000204146C9B2884220D199
:1047700014F1010FF0D0002C04D0FEF7A9F9C01BF2
:104780008442E9D22868C06830F4D0702968C860D3
:10479000286840694008400029684861202085F861
:1047A0003900202085F83A00002085F838000320E1
:1047B00000E00020BDE8F0810168C96831F4907123
:1047C0000268D1600168496949084900026851617D
:1047D000202180F83A1070470000000038B504002E
:1047E000656A0020E8850020E8842800FEF77DFC4B
:1047F00031BD0000010091F8390021282FD18868CF
:10480000B0F5805F11D1086A02001088C005C00DA4
:104810000B6858600869002803D1086A801C086288
:1048200009E0086A401C086205E0086A431C0B6244
:1048300000780B685860C88C401EC88480B200287D
:104840000BD10868C06830F080000B68D860086839
:10485000C06850F040000B68D860002000E00220E3
:10486000704710B504002068C06830F0400021682F
:10487000C860202084F83900200001F007F90020EA
:1048800010BD38B5040094F83A0022284ED1A06833
:10489000B0F5805F16D1A06A05002069002808D114
:1048A00020684068C005C00D2880A06A801CA062F6
:1048B0001AE02068406800F0FF002880A06A401CD1
:1048C000A06211E02069002806D1A06A411CA16203
:1048D00021684968017007E0A06A411CA162216853
:1048E000496811F07F010170E08D401EE08580B2C3
:1048F000002819D12068C06830F020002168C86005
:104900002068C06830F480702168C8602068406901
:104910004008400021684861202084F83A002000C7
:10492000FEF799FB002002E0002000E0022032BDEB
:104930002DE9F843050000242868016931F440514D
:10494000E868014328680161A9682869014368692A
:1049500001430C432868C168594801402143286835
:10496000C1602868416931F44071A8690143286831
:10497000416128685349884250D1FFF7CFFB8146F7
:10498000FFF7CCFB8046FFF7C9FB0700FFF7C6FB2C
:104990000600FFF7C3FB192101FB09F969688900CB
:1049A000B9FBF1F16422B1FBF2F2192101FB08F825
:1049B00069688900B8FBF1F319214F4369688900E0
:1049C000B7FBF1F16427B1FBF7F7642101FB173363
:1049D000190132316423B1FBF3F313F0F00313EB4D
:1049E000021319214E4369688900B6FBF1F21921BF
:1049F000484369688900B0FBF1F06421B0FBF1F134
:104A0000642000FB1122100132306421B0FBF1F070
:104A100010F00F00C318286883604FE0FFF773FBA6
:104A20008146FFF770FB8046FFF76DFB0700FFF73D
:104A30006AFB0600FFF767FB192101FB09F96968AA
:104A40008900B9FBF1F16422B1FBF2F2192101FBFB
:104A500008F869688900B8FBF1F319214F436968C8
:104A60008900B7FBF1F16427B1FBF7F7642101FB83
:104A70001733190132316423B1FBF3F313F0F00360
:104A800013EB021319214E4369688900B6FBF1F25A
:104A90001921484369688900B0FBF1F06421B0FB3B
:104AA000F1F1642000FB1122100132306421B0FBCF
:104AB000F1F010F00F00C31828688360BDE8F1839F
:104AC000F3E9FFFF0038014008B584B000230393E9
:104AD00000290EBF01930190491E0291009301A984
:104AE00004AB074878441830FBF722FB019909B161
:104AF00000220A70002858BF039805B000BD00BF0F
:104B00009BC7FFFF10B504004FF47A700D49097878
:104B1000B0FBF1F00C490968B1FBF0F0FFF7CFFBF7
:104B2000002801D001200CE0102C09D20022210025
:104B30005FF0FF30FFF7A7FB04480460002000E0AF
:104B4000012010BD3C060020A00500209C0500208F
:104B500080B52748006850F00100254908602448C6
:104B6000006810F00100009000982248006850F0A2
:104B70008050204908601F48006810F08050009065
:104B800000980320FFF779FB002200217FF00B0043
:104B9000FFF779FB002200217FF00A00FFF773FB8B
:104BA000002200217FF00900FFF76DFB00220021A9
:104BB0007FF00400FFF767FB002200217FF0030075
:104BC000FFF761FB002200217FF00100FFF75BFB94
:104BD000002200215FF0FF30FFF755FB0648006818
:104BE00030F0E06050F000700349086001BD00BF84
:104BF000181002401C1002400400014010B50400CF
:104C0000002C01D101203DE00020A06294F8510069
:104C1000002802D12000FEF7E1FB022084F85100B9
:104C20002068006830F04000216808606168A06872
:104C30000143E06801432069014360690143A069C1
:104C400010F400700143E0690143206A0143A06A47
:104C5000014320680160A169090C11F00401606A38
:104C6000014320684160E06A216808612068C069EA
:104C700030F400602168C86100206065012084F87C
:104C80005100002010BD000010B50400002C01D11F
:104C9000012014E094F83D00002805D1002084F89C
:104CA0003C002000FEF7F6FC022084F83D00211DA8
:104CB000206800F057F9012084F83D00002010BD65
:104CC00010B50400002C01D1012014E094F83D003F
:104CD000002805D1002084F83C002000FEF7A8FC45
:104CE000022084F83D00211D206800F03BF90120DE
:104CF00084F83D00002010BD38B504000D000122ED
:104D00002900206800F062FA2068DFF83810884235
:104D100004D02068DFF83010884201D1012000E083
:104D20000020C0B2002805D02068406C50F400403C
:104D3000216848642068006850F00100216808601C
:104D4000002032BD002C0140003401402DE9F0412B
:104D500004000D00002600275FF00008002C01D1A0
:104D6000012050E094F83D00002805D1002084F88F
:104D70003C002000FEF76FFC022084F83D00206814
:104D80008068C008C00021688860211D206800F08C
:104D9000E9F820688168206882692068036A2868C9
:104DA0000143DFF8B4010240A868D5F818C050EA02
:104DB0000C200243DFF8A4010240DFF8A401024006
:104DC000E868D5F81CC050EA0C2002432869D5F8E1
:104DD00020C05FEA0C3C5CEA001C5CEA020233F093
:104DE000220333F088036868D5F814C050EA0C1029
:104DF000034320688160206882612068036201208B
:104E000084F83D000020BDE8F08138B504000D00B5
:104E10002800002802D0042806D00BE0012200213F
:104E2000206800F0D3F90FE001220421206800F08F
:104E3000CDF909E001220021206800F0C7F9012224
:104E40000421206800F0C2F92068006850F00100D9
:104E500021680860002032BD70B504000D00160006
:104E600094F83C00012801D1022074E0012084F86C
:104E70003C00022084F83D003000002806D00428C1
:104E80001BD0082831D00C2846D05DE029002068CE
:104E900000F0B5F82068806950F00800216888614A
:104EA0002068806930F00400216888612068816989
:104EB000286901432068816146E02900206800F0EC
:104EC000D5F82068806950F4006021688861206806
:104ED000806930F480602168886120688069296970
:104EE00050EA0120216888612EE02900206800F046
:104EF000FBF82068C06950F008002168C86120688C
:104F0000C06930F004002168C8612068C16928695F
:104F100001432068C16117E02900206800F01FF9F3
:104F20002068C06950F400602168C8612068C069C9
:104F300030F480602168C8612068C069296950EA3E
:104F400001202168C861FFE7012084F83D000020AE
:104F500084F83C00002070BDFCFCFFFFF3F3FFFF72
:104F60000F0FFFFF10B400220368DFF84C42A0428D
:104F700012D0DFF8482290420ED0B0F1804F0BD013
:104F8000DFF83C22904207D0DFF83822904203D06D
:104F9000DFF83422904203D133F070034A681343A0
:104FA000DFF81422904211D0DFF8102290420DD089
:104FB000B0F1804F0AD0DFF80822904206D0DFF827
:104FC0000422904202D0804A904203D133F44073CD
:104FD000CA68134333F080034A69134303608A6845
:104FE000C2620A688262744A904202D0734A904256
:104FF00001D10A6902630122426110BC7047F0B41A
:10500000002600275FF0000C026A5208520002627C
:10501000056A4368846934F07004A408A4000A682F
:10502000144335F002058A681543634A904202D062
:10503000624A904205D135F00805CA68154335F03B
:1050400004055D4A904202D05C4A904207D133F495
:10505000807333F400734A6913438A6913434360CE
:1050600084614A6842630562F0BC7047F0B4002571
:1050700000260027026A32F010020262046A4268C7
:10508000836933F4E04333F44073D1F800C053EA4A
:105090000C2334F02004D1F808C054EA0C14DFF8D3
:1050A00018C1604502D0454DA84206D134F08004B5
:1050B000CD6854EA051434F040043F4DA84202D0B4
:1050C0003E4DA84209D132F4806232F400624D694B
:1050D00052EA85028D6952EA8502426083614D6819
:1050E00085630462F0BC7047F0B4002600275FF0CF
:1050F000000C026A32F480720262056A4368C46975
:1051000034F07004A408A4000A68144335F4007550
:105110008A6855EA0225284A904202D0274A9042DE
:1051200006D135F40065CA6855EA022535F4806574
:10513000214A904202D0214A904209D133F480534F
:1051400033F400534A6953EA02138A6953EA02139B
:105150004360C4614A68C2630562F0BC7047F0B442
:10516000002200240026036A33F480530362056A98
:105170004768C36933F4E04333F44073D1F800C0A7
:1051800053EA0C2335F40055D1F808C055EA0C3524
:10519000DFF824C0604502D0084A904204D137F4B9
:1051A00080474A6957EA82174760C3614A680264C8
:1051B0000562F0BC70470000002C01400034014043
:1051C0000004004000080040000C004070B40024BF
:1051D00001258D40036AAB430362066A12FA01F3AC
:1051E0001E43066270BC7047020092F83C00012822
:1051F00001D1022024E0012082F83C00022082F844
:105200003D001068406830F0700013685860106806
:10521000436808680343106843601068806830F092
:1052200080001368986010688368486803431068BA
:105230008360012082F83D00002082F83C000020BD
:105240007047000070B5C51DED08AFF30080ED009C
:10525000072D98BF08250B4E346814B12068A8426A
:1052600008D200F015FC00283060F4D1AFF30080C4
:10527000002070BD61193160451B0D60AFF30080E7
:10528000204670BD440C002081EA00039B0717D123
:10529000820707D010F8012B11F8013BBAB19A42EE
:1052A000F6D014E002680B689A42A2F1013301BF04
:1052B000934313F0803F50F8042F51F8043FF3D08C
:1052C00010F8012B11F8013B0AB19A42F8D0D01A1C
:1052D0007047000062F30F2262F31F42401810F083
:1052E000030308D0C91A1FD3DB0748BF00F8012DFC
:1052F00028BF20F8022D130030B41446154610398B
:1053000028BF20E93C00FAD8490728BF20E90C0053
:1053100048BF40F8042D890028BF20F8022D48BF5F
:1053200000F8012D30BC7047C91818BF00F8012DD6
:10533000CB0728BF00F8012D704700004FF0807C9C
:105340001CEB400F94BF1CEB410F05E040EA010C41
:105350001CEB0C0F01D28142704718BF8842704786
:1053600011B581B00C0000F07BF8002049490860BD
:1053700001219DF8050000F006F821009DF80400C9
:1053800000F024F813BD38B504000D002000C0B2B1
:10539000002803D0022811D008D316E02A00D2B288
:1053A0004FF400413C48FDF7A9FD0EE02A00D2B2BF
:1053B0004FF480413848FDF7A1FD06E02A00D2B243
:1053C0004FF400513448FDF799FD31BD38B5040064
:1053D0000D002800002100F0DFF902D295F0004511
:1053E000FFE728002D49FFF7A9FF01D82C4DFFE763
:1053F0002000C0B2002803D0022821D010D32EE014
:105400002848006800F008F9290000F0D7F926497B
:1054100000F054FBFDF7F4FE80B2244908601EE062
:105420002048006800F0F8F8290000F0C7F91E498C
:1054300000F044FBFDF7E4FE80B21D4908600EE079
:105440001848006800F0E8F8290000F0B7F916499C
:1054500000F034FBFDF7D4FE80B21649086031BD80
:1054600080B500210020FFF78EFF00210120FFF70B
:105470008AFF00210220FFF786FF00210020FFF7AE
:10548000A5FF00210120FFF7A1FF00210220FFF767
:105490009DFF01BD080C0020001001400100BE422C
:1054A0000000BE422C0000400000C8423C0000400A
:1054B00038000040340000400448016804484018A7
:1054C00047F6FF72014B1A60704700BF2408004086
:1054D0000180FFFFC2175040801AB0FA80F10AD055
:1054E0008840D1F19D01D20742EAC151020672F112
:1054F000004241EB102070471FB504000020ADF8BA
:1055000004000020ADF806000121012000F074F82D
:10551000ADF80400002240211D48FDF7EFFC642394
:10552000012201A91B4800F047FB01224021184835
:10553000FDF7E4FC0121200080B200F05DF8ADF839
:105540000400002240211248FDF7D8FC642000909E
:10555000012302AA01A90F4800F0C3FC0122402147
:105560000B48FDF7CBFC002240210948FDF7C6FCA3
:10557000642301220DF10601064800F0F5FB01222B
:1055800040210348FDF7BAFCBDF8060004B010BD89
:10559000001001400009002038B50024002543F622
:1055A000FF70FFF7A9FF0100480402D54FF6FF7016
:1055B00002E08804800C80B232BD10B401000022E9
:1055C000002300200F2809DA0124844023000C0066
:1055D000A4B21C4200D0521C401CF3E7022092FBF4
:1055E000F0F400FB1420002801D1002002E05B0051
:1055F000180080B210BC704770B504000D00002682
:1056000026432800C0B256EA8036300080B2FFF749
:10561000D4FF304380B270BD00280AD0B0FA80F1C8
:105620008840D1F19D01C905020672F1004241EBAB
:105630001020704790EA010F40F1428081F0004154
:10564000421A3CBF801A89184FF0004CC0F3C75271
:10565000FF2A24D0C1F3C75313B3D21AD2F11903CE
:1056600027DD4CEA01214CFA03F321EA0303D14080
:10567000C20D4CEA0020401834BF20EA0C004CEA6E
:105680005000D20553EA006373EB0C0C52EB102070
:10569000420012F1807F38BF7047C00DC0057047CF
:1056A000490212BF9A4200EB5120F8E7D2F11703EA
:1056B000D9D5704790EA010F7FF5C2AF81F0004164
:1056C000431A4FF000423EBF5340C01AC91800BFF2
:1056D000D3095FEAD05C13EB400F34BFB3EB410F4B
:1056E00040E07CEBD1530CD342EA012122D8D1EB2C
:1056F000402009D3400A28BF5FEA500140EBCC505C
:105700007047401A15D04002B0FA80F2521C904007
:10571000400A4FEA3C23B3EB026384BF00EB730003
:1057200007E040F400001A16DB07C2F10102D04086
:1057300018437047182BFCDC31FA03F202FA03F32A
:10574000591A38BF42F00102D2EB40203CBF400062
:10575000ACF1010C5FEACC5CC20572F100414CEB8C
:105760005020704713EB400F0FD2C94209D0ACEB69
:10577000D153022B03DB4902172BDDDD7047914328
:10578000401AC042D5D10020704713EB410FD0D34F
:105790006FF00000704700004FF0807C1CEB400F62
:1057A00094BF1CEB410F05E040EA010C1CEB0C0F11
:1057B00001D28842704718BF81427047FF2212EA27
:1057C000D05C1DBF12EAD153944593422BE09C4418
:1057D000D30780EA01021A4043EA002043EA01218C
:1057E000A1FB0030C04238BF40007CF17F010BDBE1
:1057F000FE294ADA5B0842EAC15153EA006373F1B9
:10580000004C51EB10207047D1F1080CDCF1200165
:105810002FDB5B0810FA01F10B4320FA0CF073F157
:1058200000415041704794451CBF02EAD153934256
:1058300080EA010202F000421DD0400019D0490068
:1058400017D05BB9634514D00902B1FA81F39940CE
:10585000BCEB030CC00140F00040C1E70002B0FA0D
:1058600080FC10FA0CF0B3EB0C0CC90141F00041C4
:10587000B6E71000704740000AD0490008D010F188
:10588000807F94BF11F1807F02E042F0FF407047BB
:10589000D043704738B50400002594F82100022851
:1058A00004D00420A06301200500CFE02068006838
:1058B00030F00E0021680860206800684008400051
:1058C000216808602068DFF89011884259D3206869
:1058D000DFF88811884201D101204EE02068DFF80E
:1058E0008011884201D1102047E02068DFF8741150
:1058F000884202D14FF480703FE02068DFF86811E1
:10590000884202D14FF4805037E02068DFF85C1104
:10591000884202D15FF480302FE02068DFF8501118
:10592000884202D15FF4801027E02068DFF844113C
:10593000884202D15FF080701FE02068DFF8141108
:10594000884201D1012018E02068DFF82C1188423C
:1059500001D1102011E02068DFF82011884202D127
:105960004FF4807009E02068DFF81411884202D1FA
:105970004FF4805001E05FF48030DFF808110860D8
:1059800058E02068DFF8D410884201D101204EE0B1
:105990002068DFF8CC10884201D1102047E0206851
:1059A000DFF8C010884202D14FF480703FE02068D9
:1059B000DFF8B410884202D14FF4805037E02068FD
:1059C000DFF8A810884202D15FF480302FE0206811
:1059D000DFF89C10884202D15FF4801027E0206835
:1059E000DFF89010884202D15FF080701FE02068DD
:1059F000DFF86010884201D1012018E02068DFF84C
:105A00007810884201D1102011E02068DFF86C1076
:105A1000884202D14FF4807009E02068DFF86010FE
:105A2000884202D14FF4805001E05FF48030DFF80B
:105A300058100860012084F82100002084F820001C
:105A4000606B002802D02000616B88472800C0B23C
:105A500032BD0000080402408100024008000240FC
:105A60001C00024030000240440002405800024046
:105A70006C000240800002401C04024030040240DE
:105A80004404024004040240040002407047000045
:105A90000749086808B1002070470648C008C000E0
:105AA00008600549C908C900091A0160704700BFAC
:105AB000480C0020571000205012002010B5FF2382
:105AC00013EAD0541DBF13EAD1529C429A4239E0E6
:105AD000A41ADA0780EA0103134042EA012142EAEC
